{
  "contractName": "PethernetContract",
  "abi": [
    {
      "constant": true,
      "inputs": [],
      "name": "ministryOfHealthAddr",
      "outputs": [
        {
          "name": "",
          "type": "address"
        }
      ],
      "payable": false,
      "stateMutability": "view",
      "type": "function",
      "signature": "0x34d78caa"
    },
    {
      "constant": false,
      "inputs": [
        {
          "name": "_medicalUnitHash",
          "type": "string"
        },
        {
          "name": "_medicalUnitOriginAddr",
          "type": "address"
        }
      ],
      "name": "addMedicalUnit",
      "outputs": [],
      "payable": false,
      "stateMutability": "nonpayable",
      "type": "function",
      "signature": "0x1e9ce79a"
    },
    {
      "constant": false,
      "inputs": [
        {
          "name": "_vaccineDoseHash",
          "type": "string"
        }
      ],
      "name": "addVaccineDose",
      "outputs": [],
      "payable": false,
      "stateMutability": "nonpayable",
      "type": "function",
      "signature": "0x40d58494"
    },
    {
      "constant": false,
      "inputs": [
        {
          "name": "_vaccineDoseHash",
          "type": "string"
        },
        {
          "name": "_medicalUnitHash",
          "type": "string"
        }
      ],
      "name": "distributeVaccineDose",
      "outputs": [],
      "payable": false,
      "stateMutability": "nonpayable",
      "type": "function",
      "signature": "0x78dd86bc"
    },
    {
      "constant": false,
      "inputs": [
        {
          "name": "_doctorHash",
          "type": "string"
        }
      ],
      "name": "addDoctor",
      "outputs": [],
      "payable": false,
      "stateMutability": "nonpayable",
      "type": "function",
      "signature": "0x0be61700"
    },
    {
      "constant": false,
      "inputs": [
        {
          "name": "_injectorHash",
          "type": "string"
        }
      ],
      "name": "addInjector",
      "outputs": [],
      "payable": false,
      "stateMutability": "nonpayable",
      "type": "function",
      "signature": "0xa10811fc"
    },
    {
      "constant": false,
      "inputs": [
        {
          "name": "_medicalUnitHash",
          "type": "string"
        },
        {
          "name": "_injectorHash",
          "type": "string"
        },
        {
          "name": "_doctorHash",
          "type": "string"
        },
        {
          "name": "_vaccineDoseHash",
          "type": "string"
        },
        {
          "name": "_certificateHash",
          "type": "string"
        }
      ],
      "name": "issueCertificate",
      "outputs": [],
      "payable": false,
      "stateMutability": "nonpayable",
      "type": "function",
      "signature": "0x35318158"
    },
    {
      "constant": true,
      "inputs": [
        {
          "name": "_doctorHash",
          "type": "string"
        }
      ],
      "name": "checkDoctor",
      "outputs": [
        {
          "name": "isExisted",
          "type": "bool"
        }
      ],
      "payable": false,
      "stateMutability": "view",
      "type": "function",
      "signature": "0x932f3fe0"
    },
    {
      "constant": true,
      "inputs": [
        {
          "name": "_injectorHash",
          "type": "string"
        }
      ],
      "name": "checkInjector",
      "outputs": [
        {
          "name": "isExisted",
          "type": "bool"
        }
      ],
      "payable": false,
      "stateMutability": "view",
      "type": "function",
      "signature": "0xfbfd4bc8"
    },
    {
      "constant": true,
      "inputs": [
        {
          "name": "_certificateHash",
          "type": "string"
        }
      ],
      "name": "checkCertificate",
      "outputs": [
        {
          "name": "isExisted",
          "type": "bool"
        }
      ],
      "payable": false,
      "stateMutability": "view",
      "type": "function",
      "signature": "0xffbd4dd5"
    },
    {
      "constant": true,
      "inputs": [
        {
          "name": "_vaccineDoseHash",
          "type": "string"
        }
      ],
      "name": "checkVaccineDose",
      "outputs": [
        {
          "name": "isExisted",
          "type": "bool"
        }
      ],
      "payable": false,
      "stateMutability": "view",
      "type": "function",
      "signature": "0x37ebc7f0"
    },
    {
      "constant": true,
      "inputs": [
        {
          "name": "_medicalUnitHash",
          "type": "string"
        }
      ],
      "name": "checkMedicalUnit",
      "outputs": [
        {
          "name": "isExisted",
          "type": "bool"
        }
      ],
      "payable": false,
      "stateMutability": "view",
      "type": "function",
      "signature": "0x9473191a"
    }
  ],
  "bytecode": "0x6080604052336000806101000a81548173ffffffffffffffffffffffffffffffffffffffff021916908373ffffffffffffffffffffffffffffffffffffffff16021790555034801561005057600080fd5b5061198d806100606000396000f3fe6080604052600436106100ba576000357c0100000000000000000000000000000000000000000000000000000000900463ffffffff1680630be61700146100bf5780631e9ce79a146100e857806334d78caa14610111578063353181581461013c57806337ebc7f01461016557806340d58494146101a257806378dd86bc146101cb578063932f3fe0146101f45780639473191a14610231578063a10811fc1461026e578063fbfd4bc814610297578063ffbd4dd5146102d4575b600080fd5b3480156100cb57600080fd5b506100e660048036036100e191908101906113d0565b610311565b005b3480156100f457600080fd5b5061010f600480360361010a9190810190611411565b610398565b005b34801561011d57600080fd5b506101266104d7565b6040516101339190611785565b60405180910390f35b34801561014857600080fd5b50610163600480360361015e91908101906114d1565b6104fc565b005b34801561017157600080fd5b5061018c600480360361018791908101906113d0565b610ac1565b60405161019991906117a0565b60405180910390f35b3480156101ae57600080fd5b506101c960048036036101c491908101906113d0565b610b85565b005b3480156101d757600080fd5b506101f260048036036101ed9190810190611465565b610ce4565b005b34801561020057600080fd5b5061021b600480360361021691908101906113d0565b610fab565b60405161022891906117a0565b60405180910390f35b34801561023d57600080fd5b50610258600480360361025391908101906113d0565b61102d565b60405161026591906117a0565b60405180910390f35b34801561027a57600080fd5b50610295600480360361029091908101906113d0565b6110f1565b005b3480156102a357600080fd5b506102be60048036036102b991908101906113d0565b611178565b6040516102cb91906117a0565b60405180910390f35b3480156102e057600080fd5b506102fb60048036036102f691908101906113d0565b6111fa565b60405161030891906117a0565b60405180910390f35b60016004826040518082805190602001908083835b60208310151561034b5780518252602082019150602081019050602083039250610326565b6001836020036101000a038019825116818451168082178552505050505050905001915050908152602001604051809103902060006101000a81548160ff02191690831515021790555050565b6000809054906101000a900473ffffffffffffffffffffffffffffffffffffffff1673ffffffffffffffffffffffffffffffffffffffff163373ffffffffffffffffffffffffffffffffffffffff16141515610429576040517f08c379a00000000000000000000000000000000000000000000000000000000081526004016104209061187b565b60405180910390fd5b806001836040518082805190602001908083835b602083101515610462578051825260208201915060208101905060208303925061043d565b6001836020036101000a038019825116818451168082178552505050505050905001915050908152602001604051809103902060006101000a81548173ffffffffffffffffffffffffffffffffffffffff021916908373ffffffffffffffffffffffffffffffffffffffff1602179055505050565b6000809054906101000a900473ffffffffffffffffffffffffffffffffffffffff1681565b3373ffffffffffffffffffffffffffffffffffffffff166001866040518082805190602001908083835b60208310151561054b5780518252602082019150602081019050602083039250610526565b6001836020036101000a038019825116818451168082178552505050505050905001915050908152602001604051809103902060009054906101000a900473ffffffffffffffffffffffffffffffffffffffff1673ffffffffffffffffffffffffffffffffffffffff161415156105f7576040517f08c379a00000000000000000000000000000000000000000000000000000000081526004016105ee906117db565b60405180910390fd5b600115156005856040518082805190602001908083835b602083101515610633578051825260208201915060208101905060208303925061060e565b6001836020036101000a038019825116818451168082178552505050505050905001915050908152602001604051809103902060009054906101000a900460ff1615151415156106b8576040517f08c379a00000000000000000000000000000000000000000000000000000000081526004016106af9061185b565b60405180910390fd5b600115156004846040518082805190602001908083835b6020831015156106f457805182526020820191506020810190506020830392506106cf565b6001836020036101000a038019825116818451168082178552505050505050905001915050908152602001604051809103902060009054906101000a900460ff161515141515610779576040517f08c379a0000000000000000000000000000000000000000000000000000000008152600401610770906117fb565b60405180910390fd5b600073ffffffffffffffffffffffffffffffffffffffff166002836040518082805190602001908083835b6020831015156107c957805182526020820191506020810190506020830392506107a4565b6001836020036101000a038019825116818451168082178552505050505050905001915050908152602001604051809103902060009054906101000a900473ffffffffffffffffffffffffffffffffffffffff1673ffffffffffffffffffffffffffffffffffffffff1614151515610876576040517f08c379a000000000000000000000000000000000000000000000000000000000815260040161086d9061181b565b60405180910390fd5b600073ffffffffffffffffffffffffffffffffffffffff166003826040518082805190602001908083835b6020831015156108c657805182526020820191506020810190506020830392506108a1565b6001836020036101000a038019825116818451168082178552505050505050905001915050908152602001604051809103902060000160009054906101000a900473ffffffffffffffffffffffffffffffffffffffff1673ffffffffffffffffffffffffffffffffffffffff1614151515610976576040517f08c379a000000000000000000000000000000000000000000000000000000000815260040161096d906117bb565b60405180910390fd5b6080604051908101604052803373ffffffffffffffffffffffffffffffffffffffff168152602001858152602001848152602001838152506003826040518082805190602001908083835b6020831015156109e657805182526020820191506020810190506020830392506109c1565b6001836020036101000a038019825116818451168082178552505050505050905001915050908152602001604051809103902060008201518160000160006101000a81548173ffffffffffffffffffffffffffffffffffffffff021916908373ffffffffffffffffffffffffffffffffffffffff1602179055506020820151816001019080519060200190610a7c9291906112c1565b506040820151816002019080519060200190610a999291906112c1565b506060820151816003019080519060200190610ab69291906112c1565b509050505050505050565b60008073ffffffffffffffffffffffffffffffffffffffff166002836040518082805190602001908083835b602083101515610b125780518252602082019150602081019050602083039250610aed565b6001836020036101000a038019825116818451168082178552505050505050905001915050908152602001604051809103902060009054906101000a900473ffffffffffffffffffffffffffffffffffffffff1673ffffffffffffffffffffffffffffffffffffffff1614159050919050565b6000809054906101000a900473ffffffffffffffffffffffffffffffffffffffff1673ffffffffffffffffffffffffffffffffffffffff163373ffffffffffffffffffffffffffffffffffffffff16141515610c16576040517f08c379a0000000000000000000000000000000000000000000000000000000008152600401610c0d9061187b565b60405180910390fd5b6000809054906101000a900473ffffffffffffffffffffffffffffffffffffffff166002826040518082805190602001908083835b602083101515610c705780518252602082019150602081019050602083039250610c4b565b6001836020036101000a038019825116818451168082178552505050505050905001915050908152602001604051809103902060006101000a81548173ffffffffffffffffffffffffffffffffffffffff021916908373ffffffffffffffffffffffffffffffffffffffff16021790555050565b6000809054906101000a900473ffffffffffffffffffffffffffffffffffffffff1673ffffffffffffffffffffffffffffffffffffffff163373ffffffffffffffffffffffffffffffffffffffff16141515610d75576040517f08c379a0000000000000000000000000000000000000000000000000000000008152600401610d6c9061187b565b60405180910390fd5b600073ffffffffffffffffffffffffffffffffffffffff166001826040518082805190602001908083835b602083101515610dc55780518252602082019150602081019050602083039250610da0565b6001836020036101000a038019825116818451168082178552505050505050905001915050908152602001604051809103902060009054906101000a900473ffffffffffffffffffffffffffffffffffffffff1673ffffffffffffffffffffffffffffffffffffffff1614151515610e72576040517f08c379a0000000000000000000000000000000000000000000000000000000008152600401610e699061183b565b60405180910390fd5b6001816040518082805190602001908083835b602083101515610eaa5780518252602082019150602081019050602083039250610e85565b6001836020036101000a038019825116818451168082178552505050505050905001915050908152602001604051809103902060009054906101000a900473ffffffffffffffffffffffffffffffffffffffff166002836040518082805190602001908083835b602083101515610f365780518252602082019150602081019050602083039250610f11565b6001836020036101000a038019825116818451168082178552505050505050905001915050908152602001604051809103902060006101000a81548173ffffffffffffffffffffffffffffffffffffffff021916908373ffffffffffffffffffffffffffffffffffffffff1602179055505050565b60006004826040518082805190602001908083835b602083101515610fe55780518252602082019150602081019050602083039250610fc0565b6001836020036101000a038019825116818451168082178552505050505050905001915050908152602001604051809103902060009054906101000a900460ff169050919050565b60008073ffffffffffffffffffffffffffffffffffffffff166001836040518082805190602001908083835b60208310151561107e5780518252602082019150602081019050602083039250611059565b6001836020036101000a038019825116818451168082178552505050505050905001915050908152602001604051809103902060009054906101000a900473ffffffffffffffffffffffffffffffffffffffff1673ffffffffffffffffffffffffffffffffffffffff1614159050919050565b60016005826040518082805190602001908083835b60208310151561112b5780518252602082019150602081019050602083039250611106565b6001836020036101000a038019825116818451168082178552505050505050905001915050908152602001604051809103902060006101000a81548160ff02191690831515021790555050565b60006004826040518082805190602001908083835b6020831015156111b2578051825260208201915060208101905060208303925061118d565b6001836020036101000a038019825116818451168082178552505050505050905001915050908152602001604051809103902060009054906101000a900460ff169050919050565b60008073ffffffffffffffffffffffffffffffffffffffff166003836040518082805190602001908083835b60208310151561124b5780518252602082019150602081019050602083039250611226565b6001836020036101000a038019825116818451168082178552505050505050905001915050908152602001604051809103902060000160009054906101000a900473ffffffffffffffffffffffffffffffffffffffff1673ffffffffffffffffffffffffffffffffffffffff1614159050919050565b828054600181600116156101000203166002900490600052602060002090601f016020900481019282601f1061130257805160ff1916838001178555611330565b82800160010185558215611330579182015b8281111561132f578251825591602001919060010190611314565b5b50905061133d9190611341565b5090565b61136391905b8082111561135f576000816000905550600101611347565b5090565b90565b60006113728235611932565b905092915050565b600082601f830112151561138d57600080fd5b81356113a061139b826118c8565b61189b565b915080825260208301602083018583830111156113bc57600080fd5b6113c7838284611944565b50505092915050565b6000602082840312156113e257600080fd5b600082013567ffffffffffffffff8111156113fc57600080fd5b6114088482850161137a565b91505092915050565b6000806040838503121561142457600080fd5b600083013567ffffffffffffffff81111561143e57600080fd5b61144a8582860161137a565b925050602061145b85828601611366565b9150509250929050565b6000806040838503121561147857600080fd5b600083013567ffffffffffffffff81111561149257600080fd5b61149e8582860161137a565b925050602083013567ffffffffffffffff8111156114bb57600080fd5b6114c78582860161137a565b9150509250929050565b600080600080600060a086880312156114e957600080fd5b600086013567ffffffffffffffff81111561150357600080fd5b61150f8882890161137a565b955050602086013567ffffffffffffffff81111561152c57600080fd5b6115388882890161137a565b945050604086013567ffffffffffffffff81111561155557600080fd5b6115618882890161137a565b935050606086013567ffffffffffffffff81111561157e57600080fd5b61158a8882890161137a565b925050608086013567ffffffffffffffff8111156115a757600080fd5b6115b38882890161137a565b9150509295509295909350565b6115c9816118f4565b82525050565b6115d881611906565b82525050565b6000601f82527f436572746966696361746520697320616c726561647920657869737465642e006020830152604082019050919050565b6000601c82527f4d65646963616c20756e6974206973206e6f74206d6174636865642e000000006020830152604082019050919050565b6000601682527f446f63746f72206973206e6f7420657869737465642e000000000000000000006020830152604082019050919050565b6000601c82527f56616363696e6520646f7365206973206e6f7420657869737465642e000000006020830152604082019050919050565b6000601c82527f4d65646963616c20756e6974206973206e6f7420657869737465642e000000006020830152604082019050919050565b6000601882527f496e6a6563746f72206973206e6f7420657869737465642e00000000000000006020830152604082019050919050565b6000603382527f546869732066756e6374696f6e206973207265737472696374656420746f207460208301527f686520636f6e74726163742773206f776e6572000000000000000000000000006040830152606082019050919050565b600060208201905061179a60008301846115c0565b92915050565b60006020820190506117b560008301846115cf565b92915050565b600060208201905081810360008301526117d4816115de565b9050919050565b600060208201905081810360008301526117f481611615565b9050919050565b600060208201905081810360008301526118148161164c565b9050919050565b6000602082019050818103600083015261183481611683565b9050919050565b60006020820190508181036000830152611854816116ba565b9050919050565b60006020820190508181036000830152611874816116f1565b9050919050565b6000602082019050818103600083015261189481611728565b9050919050565b6000604051905081810181811067ffffffffffffffff821117156118be57600080fd5b8060405250919050565b600067ffffffffffffffff8211156118df57600080fd5b601f19601f8301169050602081019050919050565b60006118ff82611912565b9050919050565b60008115159050919050565b600073ffffffffffffffffffffffffffffffffffffffff82169050919050565b600061193d82611912565b9050919050565b8281833760008383015250505056fea265627a7a72305820a6c302968a92b4e1df8e8e246e3d5ec48bc30dbeea0dc31fef71d5d33df450b96c6578706572696d656e74616cf50037",
  "source": "// SPDX-License-Identifier: UNLICENSED\npragma solidity >=0.5.0;\npragma experimental ABIEncoderV2;\n\ncontract PethernetContract {\n    // Ministry of Health's account address \n    address public ministryOfHealthAddr = msg.sender;\n    // Medical Unit hash => Medical Unit account address\n    mapping (string => address) medicalUnits;\n    // Vaccine Dose hash => address of owner (Medical Unit or by default Ministry of Health)\n    mapping (string => address) vaccineDoses;\n    // Certificate hash => Medical Unit address account\n    mapping (string => Certificate) certificates;\n\n    // Doctor hash => existed?\n    mapping (string => bool) doctors;\n    // Injector hash => existed?\n    mapping (string => bool) injectors;\n\n    modifier ministryOfHealthRestricted() {\n        require(\n            msg.sender == ministryOfHealthAddr,\n            \"This function is restricted to the contract's owner\"\n        );\n        _;\n    }\n\n    struct Certificate {\n        address issuer; // Medical unit address\n        string injector;\n        string doctor;\n        string vaccineDose;\n    }\n\n    function addMedicalUnit(string memory _medicalUnitHash, address _medicalUnitOriginAddr) public ministryOfHealthRestricted {\n        medicalUnits[_medicalUnitHash] = _medicalUnitOriginAddr;\n    }\n\n    function addVaccineDose(string memory _vaccineDoseHash) public ministryOfHealthRestricted {\n        vaccineDoses[_vaccineDoseHash] = ministryOfHealthAddr;\n    }\n\n    function distributeVaccineDose(string memory _vaccineDoseHash, string memory _medicalUnitHash) public ministryOfHealthRestricted {\n        require(\n            medicalUnits[_medicalUnitHash] != address(0),\n            \"Medical unit is not existed.\"\n        );\n        vaccineDoses[_vaccineDoseHash] = medicalUnits[_medicalUnitHash];\n    }\n\n    function addDoctor(string memory _doctorHash) public {\n        doctors[_doctorHash] = true;\n    }\n\n    function addInjector(string memory _injectorHash) public {\n        injectors[_injectorHash] = true;\n    }\n\n    function issueCertificate(\n        string memory _medicalUnitHash,\n        string memory _injectorHash,\n        string memory _doctorHash,\n        string memory _vaccineDoseHash,\n        string memory _certificateHash) public {\n        require(\n            medicalUnits[_medicalUnitHash] == msg.sender,\n            \"Medical unit is not matched.\"\n        );\n        require(\n            injectors[_injectorHash] == true,\n            \"Injector is not existed.\"\n        );\n        require(\n            doctors[_doctorHash] == true,\n            \"Doctor is not existed.\"\n        );\n        require(\n            vaccineDoses[_vaccineDoseHash] != address(0),\n            \"Vaccine dose is not existed.\"\n        );\n        require(\n            certificates[_certificateHash].issuer != address(0),\n            \"Certificate is already existed.\"\n        );\n        certificates[_certificateHash] = Certificate(msg.sender, _injectorHash, _doctorHash, _vaccineDoseHash);\n    }\n\n    /* Check functions */\n\n    function checkDoctor(string memory _doctorHash) public view returns(bool isExisted) {\n        isExisted = doctors[_doctorHash];\n    }\n\n    function checkInjector(string memory _injectorHash) public view returns(bool isExisted) {\n        isExisted = doctors[_injectorHash];\n    }\n\n    function checkCertificate(string memory _certificateHash) public view returns(bool isExisted) {\n        isExisted = certificates[_certificateHash].issuer != address(0);\n    }\n\n    function checkVaccineDose(string memory _vaccineDoseHash) public view returns(bool isExisted) {\n        isExisted = vaccineDoses[_vaccineDoseHash] != address(0);\n    }\n\n    function checkMedicalUnit(string memory _medicalUnitHash) public view returns(bool isExisted) {\n        isExisted = medicalUnits[_medicalUnitHash] != address(0);\n    }\n}",
  "sourcePath": "/Users/steven/Github/pethernet/contracts/PethernetContract.sol",
  "compiler": {
    "name": "solc",
    "version": "0.5.0+commit.1d4f565a.Emscripten.clang"
  },
  "schemaVersion": "3.0.1",
  "updatedAt": "2021-08-09T15:54:53.921Z",
  "devdoc": {
    "methods": {}
  },
  "userdoc": {
    "methods": {}
  }
}