{
  "contractName": "PethernetContract",
  "abi": [
    {
      "constant": true,
      "inputs": [
        {
          "name": "",
          "type": "uint256"
        }
      ],
      "name": "vaccineDosesList",
      "outputs": [
        {
          "name": "",
          "type": "string"
        }
      ],
      "payable": false,
      "stateMutability": "view",
      "type": "function",
      "signature": "0x2ae66be7"
    },
    {
      "constant": true,
      "inputs": [],
      "name": "ministryOfHealthAddr",
      "outputs": [
        {
          "name": "",
          "type": "address"
        }
      ],
      "payable": false,
      "stateMutability": "view",
      "type": "function",
      "signature": "0x34d78caa"
    },
    {
      "constant": true,
      "inputs": [
        {
          "name": "",
          "type": "uint256"
        }
      ],
      "name": "certificatesList",
      "outputs": [
        {
          "name": "",
          "type": "string"
        }
      ],
      "payable": false,
      "stateMutability": "view",
      "type": "function",
      "signature": "0x5397a28c"
    },
    {
      "constant": true,
      "inputs": [
        {
          "name": "",
          "type": "uint256"
        }
      ],
      "name": "medicalUnitsList",
      "outputs": [
        {
          "name": "",
          "type": "string"
        }
      ],
      "payable": false,
      "stateMutability": "view",
      "type": "function",
      "signature": "0xed893f09"
    },
    {
      "anonymous": false,
      "inputs": [
        {
          "indexed": false,
          "name": "_medicalUnitHash",
          "type": "string"
        },
        {
          "indexed": false,
          "name": "_medicalUnitAddr",
          "type": "address"
        }
      ],
      "name": "MedicalUnitAddedEvent",
      "type": "event",
      "signature": "0x82dd01867fa73ce6c638aeacccb554275d4894bbbeb7d4bf1d27ebd918a3a9aa"
    },
    {
      "anonymous": false,
      "inputs": [
        {
          "indexed": false,
          "name": "_vaccineDoseHash",
          "type": "string"
        }
      ],
      "name": "VaccinDoseAddedEvent",
      "type": "event",
      "signature": "0xb5ee440dd578e99e26b7c83afcb6e6129db0faa05d5fb3d0729551f6172594a4"
    },
    {
      "anonymous": false,
      "inputs": [
        {
          "indexed": false,
          "name": "_vaccineDoseHash",
          "type": "string"
        },
        {
          "indexed": false,
          "name": "_medicalUnitHash",
          "type": "string"
        }
      ],
      "name": "DistributedVaccinDoseAddedEvent",
      "type": "event",
      "signature": "0xbfaef94abcbed191ebcfcfc55578153dcecadb2913544a018b7041daa5d70241"
    },
    {
      "anonymous": false,
      "inputs": [
        {
          "indexed": false,
          "name": "_certificateHash",
          "type": "string"
        },
        {
          "indexed": false,
          "name": "_patientHash",
          "type": "string"
        }
      ],
      "name": "IssuedCertEvent",
      "type": "event",
      "signature": "0x2aff0832b2fb3e9ea2dab4ecec571ad82eae6f290d51e2f66856c228652b8a31"
    },
    {
      "constant": false,
      "inputs": [
        {
          "name": "_medicalUnitHash",
          "type": "string"
        },
        {
          "name": "_medicalUnitOriginAddr",
          "type": "address"
        }
      ],
      "name": "addMedicalUnit",
      "outputs": [],
      "payable": false,
      "stateMutability": "nonpayable",
      "type": "function",
      "signature": "0x1e9ce79a"
    },
    {
      "constant": false,
      "inputs": [
        {
          "name": "_vaccineDoseHash",
          "type": "string"
        }
      ],
      "name": "addVaccineDose",
      "outputs": [],
      "payable": false,
      "stateMutability": "nonpayable",
      "type": "function",
      "signature": "0x40d58494"
    },
    {
      "constant": false,
      "inputs": [
        {
          "name": "_medicalUnitHash",
          "type": "string"
        },
        {
          "name": "_total",
          "type": "uint256"
        },
        {
          "name": "_vaccineDoseHashes",
          "type": "string[]"
        }
      ],
      "name": "distributeVaccineDoses",
      "outputs": [],
      "payable": false,
      "stateMutability": "nonpayable",
      "type": "function",
      "signature": "0x50308a35"
    },
    {
      "constant": false,
      "inputs": [
        {
          "name": "_medicalUnitHash",
          "type": "string"
        },
        {
          "name": "_patientHash",
          "type": "string"
        },
        {
          "name": "_vaccineDoseHash",
          "type": "string"
        },
        {
          "name": "_certificateHash",
          "type": "string"
        }
      ],
      "name": "issueCertificate",
      "outputs": [],
      "payable": false,
      "stateMutability": "nonpayable",
      "type": "function",
      "signature": "0x818a2994"
    },
    {
      "constant": true,
      "inputs": [
        {
          "name": "_vaccineDoseHash",
          "type": "string"
        }
      ],
      "name": "checkVaccineDose",
      "outputs": [
        {
          "name": "_owner",
          "type": "address"
        }
      ],
      "payable": false,
      "stateMutability": "view",
      "type": "function",
      "signature": "0x37ebc7f0"
    },
    {
      "constant": true,
      "inputs": [
        {
          "name": "_medicalUnitHash",
          "type": "string"
        }
      ],
      "name": "checkMedicalUnit",
      "outputs": [
        {
          "name": "_owner",
          "type": "address"
        }
      ],
      "payable": false,
      "stateMutability": "view",
      "type": "function",
      "signature": "0x9473191a"
    },
    {
      "constant": true,
      "inputs": [
        {
          "name": "_certificateHash",
          "type": "string"
        }
      ],
      "name": "checkCertificate",
      "outputs": [
        {
          "components": [
            {
              "name": "issuer",
              "type": "string"
            },
            {
              "name": "issuerAddr",
              "type": "address"
            },
            {
              "name": "patient",
              "type": "string"
            },
            {
              "name": "vaccineDose",
              "type": "string"
            }
          ],
          "name": "",
          "type": "tuple"
        }
      ],
      "payable": false,
      "stateMutability": "view",
      "type": "function",
      "signature": "0xffbd4dd5"
    },
    {
      "constant": true,
      "inputs": [],
      "name": "vaccineDosesListGetter",
      "outputs": [
        {
          "name": "",
          "type": "string[]"
        }
      ],
      "payable": false,
      "stateMutability": "view",
      "type": "function",
      "signature": "0x64d25fec"
    },
    {
      "constant": true,
      "inputs": [],
      "name": "medicalUnitsListGetter",
      "outputs": [
        {
          "name": "",
          "type": "string[]"
        }
      ],
      "payable": false,
      "stateMutability": "view",
      "type": "function",
      "signature": "0x71a185f0"
    }
  ],
  "bytecode": "0x6080604052336000806101000a81548173ffffffffffffffffffffffffffffffffffffffff021916908373ffffffffffffffffffffffffffffffffffffffff16021790555034801561005057600080fd5b50612660806100606000396000f3fe6080604052600436106100c5576000357c0100000000000000000000000000000000000000000000000000000000900463ffffffff1680631e9ce79a146100ca5780632ae66be7146100f357806334d78caa1461013057806337ebc7f01461015b57806340d584941461019857806350308a35146101c15780635397a28c146101ea57806364d25fec1461022757806371a185f014610252578063818a29941461027d5780639473191a146102a6578063ed893f09146102e3578063ffbd4dd514610320575b600080fd5b3480156100d657600080fd5b506100f160048036036100ec9190810190611d19565b61035d565b005b3480156100ff57600080fd5b5061011a60048036036101159190810190611eaf565b610610565b6040516101279190612299565b60405180910390f35b34801561013c57600080fd5b506101456106cb565b604051610152919061225c565b60405180910390f35b34801561016757600080fd5b50610182600480360361017d9190810190611cd8565b6106f0565b60405161018f919061225c565b60405180910390f35b3480156101a457600080fd5b506101bf60048036036101ba9190810190611cd8565b610785565b005b3480156101cd57600080fd5b506101e860048036036101e39190810190611e30565b610a56565b005b3480156101f657600080fd5b50610211600480360361020c9190810190611eaf565b610ed4565b60405161021e9190612299565b60405180910390f35b34801561023357600080fd5b5061023c610f8f565b6040516102499190612277565b60405180910390f35b34801561025e57600080fd5b50610267611078565b6040516102749190612277565b60405180910390f35b34801561028957600080fd5b506102a4600480360361029f9190810190611d6d565b611161565b005b3480156102b257600080fd5b506102cd60048036036102c89190810190611cd8565b611618565b6040516102da919061225c565b60405180910390f35b3480156102ef57600080fd5b5061030a60048036036103059190810190611eaf565b6116ad565b6040516103179190612299565b60405180910390f35b34801561032c57600080fd5b5061034760048036036103429190810190611cd8565b611768565b604051610354919061247b565b60405180910390f35b6000809054906101000a900473ffffffffffffffffffffffffffffffffffffffff1673ffffffffffffffffffffffffffffffffffffffff163373ffffffffffffffffffffffffffffffffffffffff161415156103ee576040517f08c379a00000000000000000000000000000000000000000000000000000000081526004016103e59061245b565b60405180910390fd5b600073ffffffffffffffffffffffffffffffffffffffff166004836040518082805190602001908083835b60208310151561043e5780518252602082019150602081019050602083039250610419565b6001836020036101000a038019825116818451168082178552505050505050905001915050908152602001604051809103902060009054906101000a900473ffffffffffffffffffffffffffffffffffffffff1673ffffffffffffffffffffffffffffffffffffffff161415156104ea576040517f08c379a00000000000000000000000000000000000000000000000000000000081526004016104e19061243b565b60405180910390fd5b6001829080600181540180825580915050906001820390600052602060002001600090919290919091509080519060200190610527929190611a2a565b5050806004836040518082805190602001908083835b602083101515610562578051825260208201915060208101905060208303925061053d565b6001836020036101000a038019825116818451168082178552505050505050905001915050908152602001604051809103902060006101000a81548173ffffffffffffffffffffffffffffffffffffffff021916908373ffffffffffffffffffffffffffffffffffffffff1602179055507f82dd01867fa73ce6c638aeacccb554275d4894bbbeb7d4bf1d27ebd918a3a9aa82826040516106049291906122dd565b60405180910390a15050565b60028181548110151561061f57fe5b906000526020600020016000915090508054600181600116156101000203166002900480601f0160208091040260200160405190810160405280929190818152602001828054600181600116156101000203166002900480156106c35780601f10610698576101008083540402835291602001916106c3565b820191906000526020600020905b8154815290600101906020018083116106a657829003601f168201915b505050505081565b6000809054906101000a900473ffffffffffffffffffffffffffffffffffffffff1681565b60006005826040518082805190602001908083835b60208310151561072a5780518252602082019150602081019050602083039250610705565b6001836020036101000a038019825116818451168082178552505050505050905001915050908152602001604051809103902060009054906101000a900473ffffffffffffffffffffffffffffffffffffffff169050919050565b6000809054906101000a900473ffffffffffffffffffffffffffffffffffffffff1673ffffffffffffffffffffffffffffffffffffffff163373ffffffffffffffffffffffffffffffffffffffff16141515610816576040517f08c379a000000000000000000000000000000000000000000000000000000000815260040161080d9061245b565b60405180910390fd5b600073ffffffffffffffffffffffffffffffffffffffff166005826040518082805190602001908083835b6020831015156108665780518252602082019150602081019050602083039250610841565b6001836020036101000a038019825116818451168082178552505050505050905001915050908152602001604051809103902060009054906101000a900473ffffffffffffffffffffffffffffffffffffffff1673ffffffffffffffffffffffffffffffffffffffff16141515610912576040517f08c379a00000000000000000000000000000000000000000000000000000000081526004016109099061237b565b60405180910390fd5b600281908060018154018082558091505090600182039060005260206000200160009091929091909150908051906020019061094f929190611a2a565b50506000809054906101000a900473ffffffffffffffffffffffffffffffffffffffff166005826040518082805190602001908083835b6020831015156109ab5780518252602082019150602081019050602083039250610986565b6001836020036101000a038019825116818451168082178552505050505050905001915050908152602001604051809103902060006101000a81548173ffffffffffffffffffffffffffffffffffffffff021916908373ffffffffffffffffffffffffffffffffffffffff1602179055507fb5ee440dd578e99e26b7c83afcb6e6129db0faa05d5fb3d0729551f6172594a481604051610a4b91906122bb565b60405180910390a150565b6000809054906101000a900473ffffffffffffffffffffffffffffffffffffffff1673ffffffffffffffffffffffffffffffffffffffff163373ffffffffffffffffffffffffffffffffffffffff16141515610ae7576040517f08c379a0000000000000000000000000000000000000000000000000000000008152600401610ade9061245b565b60405180910390fd5b600073ffffffffffffffffffffffffffffffffffffffff166004846040518082805190602001908083835b602083101515610b375780518252602082019150602081019050602083039250610b12565b6001836020036101000a038019825116818451168082178552505050505050905001915050908152602001604051809103902060009054906101000a900473ffffffffffffffffffffffffffffffffffffffff1673ffffffffffffffffffffffffffffffffffffffff1614151515610be4576040517f08c379a0000000000000000000000000000000000000000000000000000000008152600401610bdb906123db565b60405180910390fd5b60008090505b82811015610ece576000809054906101000a900473ffffffffffffffffffffffffffffffffffffffff1673ffffffffffffffffffffffffffffffffffffffff1660058383815181101515610c3a57fe5b906020019060200201516040518082805190602001908083835b602083101515610c795780518252602082019150602081019050602083039250610c54565b6001836020036101000a038019825116818451168082178552505050505050905001915050908152602001604051809103902060009054906101000a900473ffffffffffffffffffffffffffffffffffffffff1673ffffffffffffffffffffffffffffffffffffffff16141515610d25576040517f08c379a0000000000000000000000000000000000000000000000000000000008152600401610d1c9061241b565b60405180910390fd5b6004846040518082805190602001908083835b602083101515610d5d5780518252602082019150602081019050602083039250610d38565b6001836020036101000a038019825116818451168082178552505050505050905001915050908152602001604051809103902060009054906101000a900473ffffffffffffffffffffffffffffffffffffffff1660058383815181101515610dc157fe5b906020019060200201516040518082805190602001908083835b602083101515610e005780518252602082019150602081019050602083039250610ddb565b6001836020036101000a038019825116818451168082178552505050505050905001915050908152602001604051809103902060006101000a81548173ffffffffffffffffffffffffffffffffffffffff021916908373ffffffffffffffffffffffffffffffffffffffff1602179055507fbfaef94abcbed191ebcfcfc55578153dcecadb2913544a018b7041daa5d702418282815181101515610ea057fe5b9060200190602002015185604051610eb9929190612344565b60405180910390a18080600101915050610bea565b50505050565b600381815481101515610ee357fe5b906000526020600020016000915090508054600181600116156101000203166002900480601f016020809104026020016040519081016040528092919081815260200182805460018160011615610100020316600290048015610f875780601f10610f5c57610100808354040283529160200191610f87565b820191906000526020600020905b815481529060010190602001808311610f6a57829003601f168201915b505050505081565b60606002805480602002602001604051908101604052809291908181526020016000905b8282101561106f578382906000526020600020018054600181600116156101000203166002900480601f01602080910402602001604051908101604052809291908181526020018280546001816001161561010002031660029004801561105b5780601f106110305761010080835404028352916020019161105b565b820191906000526020600020905b81548152906001019060200180831161103e57829003601f168201915b505050505081526020019060010190610fb3565b50505050905090565b60606001805480602002602001604051908101604052809291908181526020016000905b82821015611158578382906000526020600020018054600181600116156101000203166002900480601f0160208091040260200160405190810160405280929190818152602001828054600181600116156101000203166002900480156111445780601f1061111957610100808354040283529160200191611144565b820191906000526020600020905b81548152906001019060200180831161112757829003601f168201915b50505050508152602001906001019061109c565b50505050905090565b3373ffffffffffffffffffffffffffffffffffffffff166004856040518082805190602001908083835b6020831015156111b0578051825260208201915060208101905060208303925061118b565b6001836020036101000a038019825116818451168082178552505050505050905001915050908152602001604051809103902060009054906101000a900473ffffffffffffffffffffffffffffffffffffffff1673ffffffffffffffffffffffffffffffffffffffff1614151561125c576040517f08c379a0000000000000000000000000000000000000000000000000000000008152600401611253906123bb565b60405180910390fd5b3373ffffffffffffffffffffffffffffffffffffffff166005836040518082805190602001908083835b6020831015156112ab5780518252602082019150602081019050602083039250611286565b6001836020036101000a038019825116818451168082178552505050505050905001915050908152602001604051809103902060009054906101000a900473ffffffffffffffffffffffffffffffffffffffff1673ffffffffffffffffffffffffffffffffffffffff16141515611357576040517f08c379a000000000000000000000000000000000000000000000000000000000815260040161134e906123fb565b60405180910390fd5b600073ffffffffffffffffffffffffffffffffffffffff166006826040518082805190602001908083835b6020831015156113a75780518252602082019150602081019050602083039250611382565b6001836020036101000a038019825116818451168082178552505050505050905001915050908152602001604051809103902060010160009054906101000a900473ffffffffffffffffffffffffffffffffffffffff1673ffffffffffffffffffffffffffffffffffffffff16141515611456576040517f08c379a000000000000000000000000000000000000000000000000000000000815260040161144d9061239b565b60405180910390fd5b6003819080600181540180825580915050906001820390600052602060002001600090919290919091509080519060200190611493929190611a2a565b50506080604051908101604052808581526020013373ffffffffffffffffffffffffffffffffffffffff168152602001848152602001838152506006826040518082805190602001908083835b60208310151561150557805182526020820191506020810190506020830392506114e0565b6001836020036101000a03801982511681845116808217855250505050505090500191505090815260200160405180910390206000820151816000019080519060200190611554929190611aaa565b5060208201518160010160006101000a81548173ffffffffffffffffffffffffffffffffffffffff021916908373ffffffffffffffffffffffffffffffffffffffff16021790555060408201518160020190805190602001906115b8929190611aaa565b5060608201518160030190805190602001906115d5929190611aaa565b509050507f2aff0832b2fb3e9ea2dab4ecec571ad82eae6f290d51e2f66856c228652b8a31818460405161160a92919061230d565b60405180910390a150505050565b60006004826040518082805190602001908083835b602083101515611652578051825260208201915060208101905060208303925061162d565b6001836020036101000a038019825116818451168082178552505050505050905001915050908152602001604051809103902060009054906101000a900473ffffffffffffffffffffffffffffffffffffffff169050919050565b6001818154811015156116bc57fe5b906000526020600020016000915090508054600181600116156101000203166002900480601f0160208091040260200160405190810160405280929190818152602001828054600181600116156101000203166002900480156117605780601f1061173557610100808354040283529160200191611760565b820191906000526020600020905b81548152906001019060200180831161174357829003601f168201915b505050505081565b611770611b2a565b6006826040518082805190602001908083835b6020831015156117a85780518252602082019150602081019050602083039250611783565b6001836020036101000a038019825116818451168082178552505050505050905001915050908152602001604051809103902060806040519081016040529081600082018054600181600116156101000203166002900480601f0160208091040260200160405190810160405280929190818152602001828054600181600116156101000203166002900480156118805780601f1061185557610100808354040283529160200191611880565b820191906000526020600020905b81548152906001019060200180831161186357829003601f168201915b505050505081526020016001820160009054906101000a900473ffffffffffffffffffffffffffffffffffffffff1673ffffffffffffffffffffffffffffffffffffffff1673ffffffffffffffffffffffffffffffffffffffff168152602001600282018054600181600116156101000203166002900480601f0160208091040260200160405190810160405280929190818152602001828054600181600116156101000203166002900480156119785780601f1061194d57610100808354040283529160200191611978565b820191906000526020600020905b81548152906001019060200180831161195b57829003601f168201915b50505050508152602001600382018054600181600116156101000203166002900480601f016020809104026020016040519081016040528092919081815260200182805460018160011615610100020316600290048015611a1a5780601f106119ef57610100808354040283529160200191611a1a565b820191906000526020600020905b8154815290600101906020018083116119fd57829003601f168201915b5050505050815250509050919050565b828054600181600116156101000203166002900490600052602060002090601f016020900481019282601f10611a6b57805160ff1916838001178555611a99565b82800160010185558215611a99579182015b82811115611a98578251825591602001919060010190611a7d565b5b509050611aa69190611b69565b5090565b828054600181600116156101000203166002900490600052602060002090601f016020900481019282601f10611aeb57805160ff1916838001178555611b19565b82800160010185558215611b19579182015b82811115611b18578251825591602001919060010190611afd565b5b509050611b269190611b69565b5090565b60806040519081016040528060608152602001600073ffffffffffffffffffffffffffffffffffffffff16815260200160608152602001606081525090565b611b8b91905b80821115611b87576000816000905550600101611b6f565b5090565b90565b6000611b9a82356125b7565b905092915050565b600082601f8301121515611bb557600080fd5b8135611bc8611bc3826124ca565b61249d565b9150818183526020840193506020810190508360005b83811015611c0e5781358601611bf48882611c18565b845260208401935060208301925050600181019050611bde565b5050505092915050565b600082601f8301121515611c2b57600080fd5b8135611c3e611c39826124f2565b61249d565b91508082526020830160208301858383011115611c5a57600080fd5b611c658382846125d3565b50505092915050565b600082601f8301121515611c8157600080fd5b8135611c94611c8f8261251e565b61249d565b91508082526020830160208301858383011115611cb057600080fd5b611cbb8382846125d3565b50505092915050565b6000611cd082356125c9565b905092915050565b600060208284031215611cea57600080fd5b600082013567ffffffffffffffff811115611d0457600080fd5b611d1084828501611c6e565b91505092915050565b60008060408385031215611d2c57600080fd5b600083013567ffffffffffffffff811115611d4657600080fd5b611d5285828601611c6e565b9250506020611d6385828601611b8e565b9150509250929050565b60008060008060808587031215611d8357600080fd5b600085013567ffffffffffffffff811115611d9d57600080fd5b611da987828801611c6e565b945050602085013567ffffffffffffffff811115611dc657600080fd5b611dd287828801611c6e565b935050604085013567ffffffffffffffff811115611def57600080fd5b611dfb87828801611c6e565b925050606085013567ffffffffffffffff811115611e1857600080fd5b611e2487828801611c6e565b91505092959194509250565b600080600060608486031215611e4557600080fd5b600084013567ffffffffffffffff811115611e5f57600080fd5b611e6b86828701611c6e565b9350506020611e7c86828701611cc4565b925050604084013567ffffffffffffffff811115611e9957600080fd5b611ea586828701611ba2565b9150509250925092565b600060208284031215611ec157600080fd5b6000611ecf84828501611cc4565b91505092915050565b611ee181612585565b82525050565b6000611ef282612557565b80845260208401935083602082028501611f0b8561254a565b60005b84811015611f44578383038852611f26838351611f8b565b9250611f3182612578565b9150602088019750600181019050611f0e565b508196508694505050505092915050565b6000611f608261256d565b808452611f748160208601602086016125e2565b611f7d81612615565b602085010191505092915050565b6000611f9682612562565b808452611faa8160208601602086016125e2565b611fb381612615565b602085010191505092915050565b6000602082527f56616363696e6520646f736520697320616c726561647920657869737465642e6020830152604082019050919050565b6000601f82527f436572746966696361746520697320616c726561647920657869737465642e006020830152604082019050919050565b6000601c82527f4d65646963616c20756e6974206973206e6f74206d6174636865642e000000006020830152604082019050919050565b6000601c82527f4d65646963616c20756e6974206973206e6f7420657869737465642e000000006020830152604082019050919050565b6000603282527f56616363696e6520646f736520646f6573206e6f742062656c6f6e6720746f2060208301527f74686973204d65646963616c20556e69742e00000000000000000000000000006040830152606082019050919050565b6000602282527f56616363696e6520646f736520697320756e65786973746564206f722075736560208301527f642e0000000000000000000000000000000000000000000000000000000000006040830152606082019050919050565b6000602082527f4d65646963616c20756e697420697320616c726561647920657869737465642e6020830152604082019050919050565b6000603382527f546869732066756e6374696f6e206973207265737472696374656420746f207460208301527f686520636f6e74726163742773206f776e6572000000000000000000000000006040830152606082019050919050565b600060808301600083015184820360008601526122088282611f8b565b915050602083015161221d6020860182611ed8565b50604083015184820360408601526122358282611f8b565b9150506060830151848203606086015261224f8282611f8b565b9150508091505092915050565b60006020820190506122716000830184611ed8565b92915050565b600060208201905081810360008301526122918184611ee7565b905092915050565b600060208201905081810360008301526122b38184611f8b565b905092915050565b600060208201905081810360008301526122d58184611f55565b905092915050565b600060408201905081810360008301526122f78185611f55565b90506123066020830184611ed8565b9392505050565b600060408201905081810360008301526123278185611f55565b9050818103602083015261233b8184611f55565b90509392505050565b6000604082019050818103600083015261235e8185611f8b565b905081810360208301526123728184611f55565b90509392505050565b6000602082019050818103600083015261239481611fc1565b9050919050565b600060208201905081810360008301526123b481611ff8565b9050919050565b600060208201905081810360008301526123d48161202f565b9050919050565b600060208201905081810360008301526123f481612066565b9050919050565b600060208201905081810360008301526124148161209d565b9050919050565b60006020820190508181036000830152612434816120fa565b9050919050565b6000602082019050818103600083015261245481612157565b9050919050565b600060208201905081810360008301526124748161218e565b9050919050565b6000602082019050818103600083015261249581846121eb565b905092915050565b6000604051905081810181811067ffffffffffffffff821117156124c057600080fd5b8060405250919050565b600067ffffffffffffffff8211156124e157600080fd5b602082029050602081019050919050565b600067ffffffffffffffff82111561250957600080fd5b601f19601f8301169050602081019050919050565b600067ffffffffffffffff82111561253557600080fd5b601f19601f8301169050602081019050919050565b6000602082019050919050565b600081519050919050565b600081519050919050565b600081519050919050565b6000602082019050919050565b600061259082612597565b9050919050565b600073ffffffffffffffffffffffffffffffffffffffff82169050919050565b60006125c282612597565b9050919050565b6000819050919050565b82818337600083830152505050565b60005b838110156126005780820151818401526020810190506125e5565b8381111561260f576000848401525b50505050565b6000601f19601f830116905091905056fea265627a7a72305820ea8a6e2f37342b27f1b1acf10be2b071f0f7d9281b7669e837c823db97beb58b6c6578706572696d656e74616cf50037",
  "source": "// SPDX-License-Identifier: UNLICENSED\npragma solidity >=0.5.0;\npragma experimental ABIEncoderV2;\n\ncontract PethernetContract {\n    // Ministry of Health's account address \n    address public ministryOfHealthAddr = msg.sender;\n    string[] public medicalUnitsList;\n    string[] public vaccineDosesList;\n    string[] public certificatesList;\n    \n    // Medical Unit hash => Medical Unit account address\n    mapping (string => address) medicalUnits;\n    // Vaccine Dose hash => address of owner (Medical Unit or by default Ministry of Health)\n    mapping (string => address) vaccineDoses;\n    // Certificate hash => Medical Unit address account\n    mapping (string => Certificate) certificates;\n\n    /** Event */\n    event MedicalUnitAddedEvent(string _medicalUnitHash, address _medicalUnitAddr);\n    event VaccinDoseAddedEvent(string _vaccineDoseHash);\n    event DistributedVaccinDoseAddedEvent(string _vaccineDoseHash, string _medicalUnitHash);\n    event IssuedCertEvent(string _certificateHash, string _patientHash);\n\n    modifier ministryOfHealthRestricted() {\n        require(\n            msg.sender == ministryOfHealthAddr,\n            \"This function is restricted to the contract's owner\"\n        );\n        _;\n    }\n\n    struct Certificate {\n        string issuer; // Medical unit address\n        address issuerAddr;\n        string patient;\n        string vaccineDose;\n    }\n\n    function addMedicalUnit(string memory _medicalUnitHash, address _medicalUnitOriginAddr) public ministryOfHealthRestricted {\n        require(\n            medicalUnits[_medicalUnitHash] == address(0),\n            \"Medical unit is already existed.\"\n        );\n        \n        medicalUnitsList.push(_medicalUnitHash);\n        medicalUnits[_medicalUnitHash] = _medicalUnitOriginAddr;\n\n        emit MedicalUnitAddedEvent(_medicalUnitHash, _medicalUnitOriginAddr);\n    }\n\n    function addVaccineDose(string memory _vaccineDoseHash) public ministryOfHealthRestricted {\n        require(\n            vaccineDoses[_vaccineDoseHash] == address(0),\n            \"Vaccine dose is already existed.\"\n        );\n\n        vaccineDosesList.push(_vaccineDoseHash);\n        vaccineDoses[_vaccineDoseHash] = ministryOfHealthAddr;\n        emit VaccinDoseAddedEvent(_vaccineDoseHash);\n    }\n\n    function distributeVaccineDoses(string memory _medicalUnitHash, uint _total, string[] memory _vaccineDoseHashes) public ministryOfHealthRestricted {\n        require(\n            medicalUnits[_medicalUnitHash] != address(0),\n            \"Medical unit is not existed.\"\n        );\n\n        for (uint i = 0; i < _total; i++) {\n            require(\n                vaccineDoses[_vaccineDoseHashes[i]] == ministryOfHealthAddr,\n                \"Vaccine dose is unexisted or used.\"\n            );\n\n            vaccineDoses[_vaccineDoseHashes[i]] = medicalUnits[_medicalUnitHash];\n            emit DistributedVaccinDoseAddedEvent(_vaccineDoseHashes[i], _medicalUnitHash);\n        }\n    }\n\n    function issueCertificate(\n        string memory _medicalUnitHash,\n        string memory _patientHash,\n        string memory _vaccineDoseHash,\n        string memory _certificateHash) public {\n        require(\n            medicalUnits[_medicalUnitHash] == msg.sender,\n            \"Medical unit is not matched.\"\n        );\n        require(\n            vaccineDoses[_vaccineDoseHash] == msg.sender,\n            \"Vaccine dose does not belong to this Medical Unit.\"\n        );\n        require(\n            certificates[_certificateHash].issuerAddr == address(0),\n            \"Certificate is already existed.\"\n        );\n        \n        certificatesList.push(_certificateHash);\n        certificates[_certificateHash] = Certificate(_medicalUnitHash, msg.sender, _patientHash, _vaccineDoseHash);\n        emit IssuedCertEvent(_certificateHash, _patientHash);\n    }\n\n    function checkVaccineDose(string memory _vaccineDoseHash) public view returns(address _owner) {\n        return vaccineDoses[_vaccineDoseHash];\n    }\n\n    function checkMedicalUnit(string memory _medicalUnitHash) public view returns(address _owner) {\n        return medicalUnits[_medicalUnitHash];\n    }\n\n    function checkCertificate(string memory _certificateHash) public view returns (Certificate memory) {\n        return certificates[_certificateHash];\n    }\n    \n    function vaccineDosesListGetter() public view returns (string[] memory) {\n        return vaccineDosesList;\n    }\n\n    function medicalUnitsListGetter() public view returns (string[] memory) {\n        return medicalUnitsList;\n    }\n}",
  "sourcePath": "/Users/steven/Github/sixtyfiver-pethernet/contracts/PethernetContract.sol",
  "compiler": {
    "name": "solc",
    "version": "0.5.0+commit.1d4f565a.Emscripten.clang"
  },
  "schemaVersion": "3.0.1",
  "updatedAt": "2021-08-29T16:12:12.765Z",
  "devdoc": {
    "methods": {}
  },
  "userdoc": {
    "methods": {}
  }
}