{
  "contractName": "PethernetContract",
  "abi": [
    {
      "constant": true,
      "inputs": [
        {
          "name": "",
          "type": "uint256"
        }
      ],
      "name": "vaccineDosesList",
      "outputs": [
        {
          "name": "",
          "type": "string"
        }
      ],
      "payable": false,
      "stateMutability": "view",
      "type": "function",
      "signature": "0x2ae66be7"
    },
    {
      "constant": true,
      "inputs": [],
      "name": "ministryOfHealthAddr",
      "outputs": [
        {
          "name": "",
          "type": "address"
        }
      ],
      "payable": false,
      "stateMutability": "view",
      "type": "function",
      "signature": "0x34d78caa"
    },
    {
      "constant": true,
      "inputs": [
        {
          "name": "",
          "type": "uint256"
        }
      ],
      "name": "certificatesList",
      "outputs": [
        {
          "name": "",
          "type": "string"
        }
      ],
      "payable": false,
      "stateMutability": "view",
      "type": "function",
      "signature": "0x5397a28c"
    },
    {
      "constant": true,
      "inputs": [
        {
          "name": "",
          "type": "uint256"
        }
      ],
      "name": "doctorsList",
      "outputs": [
        {
          "name": "",
          "type": "string"
        }
      ],
      "payable": false,
      "stateMutability": "view",
      "type": "function",
      "signature": "0x709898c0"
    },
    {
      "constant": true,
      "inputs": [
        {
          "name": "",
          "type": "uint256"
        }
      ],
      "name": "injectorsList",
      "outputs": [
        {
          "name": "",
          "type": "string"
        }
      ],
      "payable": false,
      "stateMutability": "view",
      "type": "function",
      "signature": "0xc4f29dea"
    },
    {
      "constant": true,
      "inputs": [
        {
          "name": "",
          "type": "uint256"
        }
      ],
      "name": "medicalUnitsList",
      "outputs": [
        {
          "name": "",
          "type": "string"
        }
      ],
      "payable": false,
      "stateMutability": "view",
      "type": "function",
      "signature": "0xed893f09"
    },
    {
      "anonymous": false,
      "inputs": [
        {
          "indexed": false,
          "name": "_medicalUnitHash",
          "type": "string"
        },
        {
          "indexed": false,
          "name": "_medicalUnitAddr",
          "type": "address"
        }
      ],
      "name": "MedicalUnitAddedEvent",
      "type": "event",
      "signature": "0x82dd01867fa73ce6c638aeacccb554275d4894bbbeb7d4bf1d27ebd918a3a9aa"
    },
    {
      "anonymous": false,
      "inputs": [
        {
          "indexed": false,
          "name": "_vaccineDoseHash",
          "type": "string"
        }
      ],
      "name": "VaccinDoseAddedEvent",
      "type": "event",
      "signature": "0xb5ee440dd578e99e26b7c83afcb6e6129db0faa05d5fb3d0729551f6172594a4"
    },
    {
      "anonymous": false,
      "inputs": [
        {
          "indexed": false,
          "name": "_doctorHash",
          "type": "string"
        }
      ],
      "name": "DoctorAddedEvent",
      "type": "event",
      "signature": "0x95b919e759e2da429bf614614b62ffecd9b157507c7ebddfbe821e49c64e491b"
    },
    {
      "anonymous": false,
      "inputs": [
        {
          "indexed": false,
          "name": "_injectorHash",
          "type": "string"
        }
      ],
      "name": "InjectorAddedEvent",
      "type": "event",
      "signature": "0x934bae8e68646bcc791ccf30eb236d27b862154502319e73637795763c422fcb"
    },
    {
      "anonymous": false,
      "inputs": [
        {
          "indexed": false,
          "name": "_vaccineDoseHash",
          "type": "string"
        },
        {
          "indexed": false,
          "name": "_medicalUnitHash",
          "type": "string"
        }
      ],
      "name": "DistributedVaccinDoseAddedEvent",
      "type": "event",
      "signature": "0xbfaef94abcbed191ebcfcfc55578153dcecadb2913544a018b7041daa5d70241"
    },
    {
      "anonymous": false,
      "inputs": [
        {
          "indexed": false,
          "name": "_certificateHash",
          "type": "string"
        },
        {
          "indexed": false,
          "name": "_injectorHash",
          "type": "string"
        }
      ],
      "name": "IssuedCertEvent",
      "type": "event",
      "signature": "0x2aff0832b2fb3e9ea2dab4ecec571ad82eae6f290d51e2f66856c228652b8a31"
    },
    {
      "constant": false,
      "inputs": [
        {
          "name": "_medicalUnitHash",
          "type": "string"
        },
        {
          "name": "_medicalUnitOriginAddr",
          "type": "address"
        }
      ],
      "name": "addMedicalUnit",
      "outputs": [],
      "payable": false,
      "stateMutability": "nonpayable",
      "type": "function",
      "signature": "0x1e9ce79a"
    },
    {
      "constant": false,
      "inputs": [
        {
          "name": "_vaccineDoseHash",
          "type": "string"
        }
      ],
      "name": "addVaccineDose",
      "outputs": [],
      "payable": false,
      "stateMutability": "nonpayable",
      "type": "function",
      "signature": "0x40d58494"
    },
    {
      "constant": false,
      "inputs": [
        {
          "name": "_vaccineDoseHash",
          "type": "string"
        },
        {
          "name": "_medicalUnitHash",
          "type": "string"
        }
      ],
      "name": "distributeVaccineDose",
      "outputs": [],
      "payable": false,
      "stateMutability": "nonpayable",
      "type": "function",
      "signature": "0x78dd86bc"
    },
    {
      "constant": false,
      "inputs": [
        {
          "name": "_doctorHash",
          "type": "string"
        }
      ],
      "name": "addDoctor",
      "outputs": [],
      "payable": false,
      "stateMutability": "nonpayable",
      "type": "function",
      "signature": "0x0be61700"
    },
    {
      "constant": false,
      "inputs": [
        {
          "name": "_injectorHash",
          "type": "string"
        }
      ],
      "name": "addInjector",
      "outputs": [],
      "payable": false,
      "stateMutability": "nonpayable",
      "type": "function",
      "signature": "0xa10811fc"
    },
    {
      "constant": false,
      "inputs": [
        {
          "name": "_medicalUnitHash",
          "type": "string"
        },
        {
          "name": "_injectorHash",
          "type": "string"
        },
        {
          "name": "_doctorHash",
          "type": "string"
        },
        {
          "name": "_vaccineDoseHash",
          "type": "string"
        },
        {
          "name": "_certificateHash",
          "type": "string"
        }
      ],
      "name": "issueCertificate",
      "outputs": [],
      "payable": false,
      "stateMutability": "nonpayable",
      "type": "function",
      "signature": "0x35318158"
    },
    {
      "constant": true,
      "inputs": [
        {
          "name": "_doctorHash",
          "type": "string"
        }
      ],
      "name": "checkDoctor",
      "outputs": [
        {
          "name": "isExisted",
          "type": "bool"
        }
      ],
      "payable": false,
      "stateMutability": "view",
      "type": "function",
      "signature": "0x932f3fe0"
    },
    {
      "constant": true,
      "inputs": [
        {
          "name": "_injectorHash",
          "type": "string"
        }
      ],
      "name": "checkInjector",
      "outputs": [
        {
          "name": "isExisted",
          "type": "bool"
        }
      ],
      "payable": false,
      "stateMutability": "view",
      "type": "function",
      "signature": "0xfbfd4bc8"
    },
    {
      "constant": true,
      "inputs": [
        {
          "name": "_certificateHash",
          "type": "string"
        }
      ],
      "name": "checkCertificate",
      "outputs": [
        {
          "name": "isExisted",
          "type": "bool"
        }
      ],
      "payable": false,
      "stateMutability": "view",
      "type": "function",
      "signature": "0xffbd4dd5"
    },
    {
      "constant": true,
      "inputs": [
        {
          "name": "_vaccineDoseHash",
          "type": "string"
        }
      ],
      "name": "checkVaccineDose",
      "outputs": [
        {
          "name": "isExisted",
          "type": "bool"
        }
      ],
      "payable": false,
      "stateMutability": "view",
      "type": "function",
      "signature": "0x37ebc7f0"
    },
    {
      "constant": true,
      "inputs": [
        {
          "name": "_medicalUnitHash",
          "type": "string"
        }
      ],
      "name": "checkMedicalUnit",
      "outputs": [
        {
          "name": "isExisted",
          "type": "bool"
        }
      ],
      "payable": false,
      "stateMutability": "view",
      "type": "function",
      "signature": "0x9473191a"
    },
    {
      "constant": true,
      "inputs": [],
      "name": "vaccineDosesListGetter",
      "outputs": [
        {
          "name": "",
          "type": "string[]"
        }
      ],
      "payable": false,
      "stateMutability": "view",
      "type": "function",
      "signature": "0x64d25fec"
    },
    {
      "constant": true,
      "inputs": [],
      "name": "medicalUnitsListGetter",
      "outputs": [
        {
          "name": "",
          "type": "string[]"
        }
      ],
      "payable": false,
      "stateMutability": "view",
      "type": "function",
      "signature": "0x71a185f0"
    },
    {
      "constant": true,
      "inputs": [],
      "name": "certificatesListGetter",
      "outputs": [
        {
          "name": "",
          "type": "string[]"
        }
      ],
      "payable": false,
      "stateMutability": "view",
      "type": "function",
      "signature": "0xb0ee00f2"
    },
    {
      "constant": true,
      "inputs": [],
      "name": "doctorsListGetter",
      "outputs": [
        {
          "name": "",
          "type": "string[]"
        }
      ],
      "payable": false,
      "stateMutability": "view",
      "type": "function",
      "signature": "0xafa60b29"
    },
    {
      "constant": true,
      "inputs": [],
      "name": "injectorsListGetter",
      "outputs": [
        {
          "name": "",
          "type": "string[]"
        }
      ],
      "payable": false,
      "stateMutability": "view",
      "type": "function",
      "signature": "0x96333c53"
    }
  ],
  "bytecode": "0x6080604052336000806101000a81548173ffffffffffffffffffffffffffffffffffffffff021916908373ffffffffffffffffffffffffffffffffffffffff16021790555034801561005057600080fd5b50613002806100606000396000f3fe608060405260043610610128576000357c0100000000000000000000000000000000000000000000000000000000900463ffffffff1680630be617001461012d5780631e9ce79a146101565780632ae66be71461017f57806334d78caa146101bc57806335318158146101e757806337ebc7f01461021057806340d584941461024d5780635397a28c1461027657806364d25fec146102b3578063709898c0146102de57806371a185f01461031b57806378dd86bc14610346578063932f3fe01461036f5780639473191a146103ac57806396333c53146103e9578063a10811fc14610414578063afa60b291461043d578063b0ee00f214610468578063c4f29dea14610493578063ed893f09146104d0578063fbfd4bc81461050d578063ffbd4dd51461054a575b600080fd5b34801561013957600080fd5b50610154600480360361014f91908101906125ed565b610587565b005b34801561016257600080fd5b5061017d6004803603610178919081019061262e565b610745565b005b34801561018b57600080fd5b506101a660048036036101a191908101906127dd565b6109f8565b6040516101b39190612c5c565b60405180910390f35b3480156101c857600080fd5b506101d1610ab3565b6040516101de9190612c04565b60405180910390f35b3480156101f357600080fd5b5061020e600480360361020991908101906126ee565b610ad8565b005b34801561021c57600080fd5b50610237600480360361023291908101906125ed565b6110d3565b6040516102449190612c41565b60405180910390f35b34801561025957600080fd5b50610274600480360361026f91908101906125ed565b611197565b005b34801561028257600080fd5b5061029d600480360361029891908101906127dd565b611468565b6040516102aa9190612c5c565b60405180910390f35b3480156102bf57600080fd5b506102c8611523565b6040516102d59190612c1f565b60405180910390f35b3480156102ea57600080fd5b50610305600480360361030091908101906127dd565b61160c565b6040516103129190612c5c565b60405180910390f35b34801561032757600080fd5b506103306116c7565b60405161033d9190612c1f565b60405180910390f35b34801561035257600080fd5b5061036d60048036036103689190810190612682565b6117b0565b005b34801561037b57600080fd5b50610396600480360361039191908101906125ed565b611bcc565b6040516103a39190612c41565b60405180910390f35b3480156103b857600080fd5b506103d360048036036103ce91908101906125ed565b611c4e565b6040516103e09190612c41565b60405180910390f35b3480156103f557600080fd5b506103fe611d12565b60405161040b9190612c1f565b60405180910390f35b34801561042057600080fd5b5061043b600480360361043691908101906125ed565b611dfb565b005b34801561044957600080fd5b50610452611fb9565b60405161045f9190612c1f565b60405180910390f35b34801561047457600080fd5b5061047d6120a2565b60405161048a9190612c1f565b60405180910390f35b34801561049f57600080fd5b506104ba60048036036104b591908101906127dd565b61218b565b6040516104c79190612c5c565b60405180910390f35b3480156104dc57600080fd5b506104f760048036036104f291908101906127dd565b612246565b6040516105049190612c5c565b60405180910390f35b34801561051957600080fd5b50610534600480360361052f91908101906125ed565b612301565b6040516105419190612c41565b60405180910390f35b34801561055657600080fd5b50610571600480360361056c91908101906125ed565b612383565b60405161057e9190612c41565b60405180910390f35b600015156009826040518082805190602001908083835b6020831015156105c3578051825260208201915060208101905060208303925061059e565b6001836020036101000a038019825116818451168082178552505050505050905001915050908152602001604051809103902060009054906101000a900460ff161515141515610648576040517f08c379a000000000000000000000000000000000000000000000000000000000815260040161063f90612da7565b60405180910390fd5b600481908060018154018082558091505090600182039060005260206000200160009091929091909150908051906020019061068592919061244a565b505060016009826040518082805190602001908083835b6020831015156106c1578051825260208201915060208101905060208303925061069c565b6001836020036101000a038019825116818451168082178552505050505050905001915050908152602001604051809103902060006101000a81548160ff0219169083151502179055507f95b919e759e2da429bf614614b62ffecd9b157507c7ebddfbe821e49c64e491b8160405161073a9190612c7e565b60405180910390a150565b6000809054906101000a900473ffffffffffffffffffffffffffffffffffffffff1673ffffffffffffffffffffffffffffffffffffffff163373ffffffffffffffffffffffffffffffffffffffff161415156107d6576040517f08c379a00000000000000000000000000000000000000000000000000000000081526004016107cd90612e67565b60405180910390fd5b600073ffffffffffffffffffffffffffffffffffffffff166006836040518082805190602001908083835b6020831015156108265780518252602082019150602081019050602083039250610801565b6001836020036101000a038019825116818451168082178552505050505050905001915050908152602001604051809103902060009054906101000a900473ffffffffffffffffffffffffffffffffffffffff1673ffffffffffffffffffffffffffffffffffffffff161415156108d2576040517f08c379a00000000000000000000000000000000000000000000000000000000081526004016108c990612e47565b60405180910390fd5b600182908060018154018082558091505090600182039060005260206000200160009091929091909150908051906020019061090f92919061244a565b5050806006836040518082805190602001908083835b60208310151561094a5780518252602082019150602081019050602083039250610925565b6001836020036101000a038019825116818451168082178552505050505050905001915050908152602001604051809103902060006101000a81548173ffffffffffffffffffffffffffffffffffffffff021916908373ffffffffffffffffffffffffffffffffffffffff1602179055507f82dd01867fa73ce6c638aeacccb554275d4894bbbeb7d4bf1d27ebd918a3a9aa82826040516109ec929190612ca0565b60405180910390a15050565b600281815481101515610a0757fe5b906000526020600020016000915090508054600181600116156101000203166002900480601f016020809104026020016040519081016040528092919081815260200182805460018160011615610100020316600290048015610aab5780601f10610a8057610100808354040283529160200191610aab565b820191906000526020600020905b815481529060010190602001808311610a8e57829003601f168201915b505050505081565b6000809054906101000a900473ffffffffffffffffffffffffffffffffffffffff1681565b3373ffffffffffffffffffffffffffffffffffffffff166006866040518082805190602001908083835b602083101515610b275780518252602082019150602081019050602083039250610b02565b6001836020036101000a038019825116818451168082178552505050505050905001915050908152602001604051809103902060009054906101000a900473ffffffffffffffffffffffffffffffffffffffff1673ffffffffffffffffffffffffffffffffffffffff16141515610bd3576040517f08c379a0000000000000000000000000000000000000000000000000000000008152600401610bca90612d67565b60405180910390fd5b60011515600a856040518082805190602001908083835b602083101515610c0f5780518252602082019150602081019050602083039250610bea565b6001836020036101000a038019825116818451168082178552505050505050905001915050908152602001604051809103902060009054906101000a900460ff161515141515610c94576040517f08c379a0000000000000000000000000000000000000000000000000000000008152600401610c8b90612de7565b60405180910390fd5b600115156009846040518082805190602001908083835b602083101515610cd05780518252602082019150602081019050602083039250610cab565b6001836020036101000a038019825116818451168082178552505050505050905001915050908152602001604051809103902060009054906101000a900460ff161515141515610d55576040517f08c379a0000000000000000000000000000000000000000000000000000000008152600401610d4c90612d87565b60405180910390fd5b3373ffffffffffffffffffffffffffffffffffffffff166007836040518082805190602001908083835b602083101515610da45780518252602082019150602081019050602083039250610d7f565b6001836020036101000a038019825116818451168082178552505050505050905001915050908152602001604051809103902060009054906101000a900473ffffffffffffffffffffffffffffffffffffffff1673ffffffffffffffffffffffffffffffffffffffff16141515610e50576040517f08c379a0000000000000000000000000000000000000000000000000000000008152600401610e4790612e07565b60405180910390fd5b600073ffffffffffffffffffffffffffffffffffffffff166008826040518082805190602001908083835b602083101515610ea05780518252602082019150602081019050602083039250610e7b565b6001836020036101000a038019825116818451168082178552505050505050905001915050908152602001604051809103902060000160009054906101000a900473ffffffffffffffffffffffffffffffffffffffff1673ffffffffffffffffffffffffffffffffffffffff16141515610f4f576040517f08c379a0000000000000000000000000000000000000000000000000000000008152600401610f4690612d47565b60405180910390fd5b6080604051908101604052803373ffffffffffffffffffffffffffffffffffffffff168152602001858152602001848152602001838152506008826040518082805190602001908083835b602083101515610fbf5780518252602082019150602081019050602083039250610f9a565b6001836020036101000a038019825116818451168082178552505050505050905001915050908152602001604051809103902060008201518160000160006101000a81548173ffffffffffffffffffffffffffffffffffffffff021916908373ffffffffffffffffffffffffffffffffffffffff16021790555060208201518160010190805190602001906110559291906124ca565b5060408201518160020190805190602001906110729291906124ca565b50606082015181600301908051906020019061108f9291906124ca565b509050507f2aff0832b2fb3e9ea2dab4ecec571ad82eae6f290d51e2f66856c228652b8a3181856040516110c4929190612cd0565b60405180910390a15050505050565b60008073ffffffffffffffffffffffffffffffffffffffff166007836040518082805190602001908083835b60208310151561112457805182526020820191506020810190506020830392506110ff565b6001836020036101000a038019825116818451168082178552505050505050905001915050908152602001604051809103902060009054906101000a900473ffffffffffffffffffffffffffffffffffffffff1673ffffffffffffffffffffffffffffffffffffffff1614159050919050565b6000809054906101000a900473ffffffffffffffffffffffffffffffffffffffff1673ffffffffffffffffffffffffffffffffffffffff163373ffffffffffffffffffffffffffffffffffffffff16141515611228576040517f08c379a000000000000000000000000000000000000000000000000000000000815260040161121f90612e67565b60405180910390fd5b600073ffffffffffffffffffffffffffffffffffffffff166007826040518082805190602001908083835b6020831015156112785780518252602082019150602081019050602083039250611253565b6001836020036101000a038019825116818451168082178552505050505050905001915050908152602001604051809103902060009054906101000a900473ffffffffffffffffffffffffffffffffffffffff1673ffffffffffffffffffffffffffffffffffffffff16141515611324576040517f08c379a000000000000000000000000000000000000000000000000000000000815260040161131b90612d27565b60405180910390fd5b600281908060018154018082558091505090600182039060005260206000200160009091929091909150908051906020019061136192919061244a565b50506000809054906101000a900473ffffffffffffffffffffffffffffffffffffffff166007826040518082805190602001908083835b6020831015156113bd5780518252602082019150602081019050602083039250611398565b6001836020036101000a038019825116818451168082178552505050505050905001915050908152602001604051809103902060006101000a81548173ffffffffffffffffffffffffffffffffffffffff021916908373ffffffffffffffffffffffffffffffffffffffff1602179055507fb5ee440dd578e99e26b7c83afcb6e6129db0faa05d5fb3d0729551f6172594a48160405161145d9190612c7e565b60405180910390a150565b60038181548110151561147757fe5b906000526020600020016000915090508054600181600116156101000203166002900480601f01602080910402602001604051908101604052809291908181526020018280546001816001161561010002031660029004801561151b5780601f106114f05761010080835404028352916020019161151b565b820191906000526020600020905b8154815290600101906020018083116114fe57829003601f168201915b505050505081565b60606002805480602002602001604051908101604052809291908181526020016000905b82821015611603578382906000526020600020018054600181600116156101000203166002900480601f0160208091040260200160405190810160405280929190818152602001828054600181600116156101000203166002900480156115ef5780601f106115c4576101008083540402835291602001916115ef565b820191906000526020600020905b8154815290600101906020018083116115d257829003601f168201915b505050505081526020019060010190611547565b50505050905090565b60048181548110151561161b57fe5b906000526020600020016000915090508054600181600116156101000203166002900480601f0160208091040260200160405190810160405280929190818152602001828054600181600116156101000203166002900480156116bf5780601f10611694576101008083540402835291602001916116bf565b820191906000526020600020905b8154815290600101906020018083116116a257829003601f168201915b505050505081565b60606001805480602002602001604051908101604052809291908181526020016000905b828210156117a7578382906000526020600020018054600181600116156101000203166002900480601f0160208091040260200160405190810160405280929190818152602001828054600181600116156101000203166002900480156117935780601f1061176857610100808354040283529160200191611793565b820191906000526020600020905b81548152906001019060200180831161177657829003601f168201915b5050505050815260200190600101906116eb565b50505050905090565b6000809054906101000a900473ffffffffffffffffffffffffffffffffffffffff1673ffffffffffffffffffffffffffffffffffffffff163373ffffffffffffffffffffffffffffffffffffffff16141515611841576040517f08c379a000000000000000000000000000000000000000000000000000000000815260040161183890612e67565b60405180910390fd5b600073ffffffffffffffffffffffffffffffffffffffff166006826040518082805190602001908083835b602083101515611891578051825260208201915060208101905060208303925061186c565b6001836020036101000a038019825116818451168082178552505050505050905001915050908152602001604051809103902060009054906101000a900473ffffffffffffffffffffffffffffffffffffffff1673ffffffffffffffffffffffffffffffffffffffff161415151561193e576040517f08c379a000000000000000000000000000000000000000000000000000000000815260040161193590612dc7565b60405180910390fd5b6000809054906101000a900473ffffffffffffffffffffffffffffffffffffffff1673ffffffffffffffffffffffffffffffffffffffff166007836040518082805190602001908083835b6020831015156119ae5780518252602082019150602081019050602083039250611989565b6001836020036101000a038019825116818451168082178552505050505050905001915050908152602001604051809103902060009054906101000a900473ffffffffffffffffffffffffffffffffffffffff1673ffffffffffffffffffffffffffffffffffffffff16141515611a5a576040517f08c379a0000000000000000000000000000000000000000000000000000000008152600401611a5190612e27565b60405180910390fd5b6006816040518082805190602001908083835b602083101515611a925780518252602082019150602081019050602083039250611a6d565b6001836020036101000a038019825116818451168082178552505050505050905001915050908152602001604051809103902060009054906101000a900473ffffffffffffffffffffffffffffffffffffffff166007836040518082805190602001908083835b602083101515611b1e5780518252602082019150602081019050602083039250611af9565b6001836020036101000a038019825116818451168082178552505050505050905001915050908152602001604051809103902060006101000a81548173ffffffffffffffffffffffffffffffffffffffff021916908373ffffffffffffffffffffffffffffffffffffffff1602179055507fbfaef94abcbed191ebcfcfc55578153dcecadb2913544a018b7041daa5d702418282604051611bc0929190612cd0565b60405180910390a15050565b60006009826040518082805190602001908083835b602083101515611c065780518252602082019150602081019050602083039250611be1565b6001836020036101000a038019825116818451168082178552505050505050905001915050908152602001604051809103902060009054906101000a900460ff169050919050565b60008073ffffffffffffffffffffffffffffffffffffffff166006836040518082805190602001908083835b602083101515611c9f5780518252602082019150602081019050602083039250611c7a565b6001836020036101000a038019825116818451168082178552505050505050905001915050908152602001604051809103902060009054906101000a900473ffffffffffffffffffffffffffffffffffffffff1673ffffffffffffffffffffffffffffffffffffffff1614159050919050565b60606005805480602002602001604051908101604052809291908181526020016000905b82821015611df2578382906000526020600020018054600181600116156101000203166002900480601f016020809104026020016040519081016040528092919081815260200182805460018160011615610100020316600290048015611dde5780601f10611db357610100808354040283529160200191611dde565b820191906000526020600020905b815481529060010190602001808311611dc157829003601f168201915b505050505081526020019060010190611d36565b50505050905090565b60001515600a826040518082805190602001908083835b602083101515611e375780518252602082019150602081019050602083039250611e12565b6001836020036101000a038019825116818451168082178552505050505050905001915050908152602001604051809103902060009054906101000a900460ff161515141515611ebc576040517f08c379a0000000000000000000000000000000000000000000000000000000008152600401611eb390612d07565b60405180910390fd5b6005819080600181540180825580915050906001820390600052602060002001600090919290919091509080519060200190611ef992919061244a565b50506001600a826040518082805190602001908083835b602083101515611f355780518252602082019150602081019050602083039250611f10565b6001836020036101000a038019825116818451168082178552505050505050905001915050908152602001604051809103902060006101000a81548160ff0219169083151502179055507f934bae8e68646bcc791ccf30eb236d27b862154502319e73637795763c422fcb81604051611fae9190612c7e565b60405180910390a150565b60606004805480602002602001604051908101604052809291908181526020016000905b82821015612099578382906000526020600020018054600181600116156101000203166002900480601f0160208091040260200160405190810160405280929190818152602001828054600181600116156101000203166002900480156120855780601f1061205a57610100808354040283529160200191612085565b820191906000526020600020905b81548152906001019060200180831161206857829003601f168201915b505050505081526020019060010190611fdd565b50505050905090565b60606003805480602002602001604051908101604052809291908181526020016000905b82821015612182578382906000526020600020018054600181600116156101000203166002900480601f01602080910402602001604051908101604052809291908181526020018280546001816001161561010002031660029004801561216e5780601f106121435761010080835404028352916020019161216e565b820191906000526020600020905b81548152906001019060200180831161215157829003601f168201915b5050505050815260200190600101906120c6565b50505050905090565b60058181548110151561219a57fe5b906000526020600020016000915090508054600181600116156101000203166002900480601f01602080910402602001604051908101604052809291908181526020018280546001816001161561010002031660029004801561223e5780601f106122135761010080835404028352916020019161223e565b820191906000526020600020905b81548152906001019060200180831161222157829003601f168201915b505050505081565b60018181548110151561225557fe5b906000526020600020016000915090508054600181600116156101000203166002900480601f0160208091040260200160405190810160405280929190818152602001828054600181600116156101000203166002900480156122f95780601f106122ce576101008083540402835291602001916122f9565b820191906000526020600020905b8154815290600101906020018083116122dc57829003601f168201915b505050505081565b6000600a826040518082805190602001908083835b60208310151561233b5780518252602082019150602081019050602083039250612316565b6001836020036101000a038019825116818451168082178552505050505050905001915050908152602001604051809103902060009054906101000a900460ff169050919050565b60008073ffffffffffffffffffffffffffffffffffffffff166008836040518082805190602001908083835b6020831015156123d457805182526020820191506020810190506020830392506123af565b6001836020036101000a038019825116818451168082178552505050505050905001915050908152602001604051809103902060000160009054906101000a900473ffffffffffffffffffffffffffffffffffffffff1673ffffffffffffffffffffffffffffffffffffffff1614159050919050565b828054600181600116156101000203166002900490600052602060002090601f016020900481019282601f1061248b57805160ff19168380011785556124b9565b828001600101855582156124b9579182015b828111156124b857825182559160200191906001019061249d565b5b5090506124c6919061254a565b5090565b828054600181600116156101000203166002900490600052602060002090601f016020900481019282601f1061250b57805160ff1916838001178555612539565b82800160010185558215612539579182015b8281111561253857825182559160200191906001019061251d565b5b509050612546919061254a565b5090565b61256c91905b80821115612568576000816000905550600101612550565b5090565b90565b600061257b8235612f59565b905092915050565b600082601f830112151561259657600080fd5b81356125a96125a482612eb4565b612e87565b915080825260208301602083018583830111156125c557600080fd5b6125d0838284612f75565b50505092915050565b60006125e58235612f6b565b905092915050565b6000602082840312156125ff57600080fd5b600082013567ffffffffffffffff81111561261957600080fd5b61262584828501612583565b91505092915050565b6000806040838503121561264157600080fd5b600083013567ffffffffffffffff81111561265b57600080fd5b61266785828601612583565b92505060206126788582860161256f565b9150509250929050565b6000806040838503121561269557600080fd5b600083013567ffffffffffffffff8111156126af57600080fd5b6126bb85828601612583565b925050602083013567ffffffffffffffff8111156126d857600080fd5b6126e485828601612583565b9150509250929050565b600080600080600060a0868803121561270657600080fd5b600086013567ffffffffffffffff81111561272057600080fd5b61272c88828901612583565b955050602086013567ffffffffffffffff81111561274957600080fd5b61275588828901612583565b945050604086013567ffffffffffffffff81111561277257600080fd5b61277e88828901612583565b935050606086013567ffffffffffffffff81111561279b57600080fd5b6127a788828901612583565b925050608086013567ffffffffffffffff8111156127c457600080fd5b6127d088828901612583565b9150509295509295909350565b6000602082840312156127ef57600080fd5b60006127fd848285016125d9565b91505092915050565b61280f81612f1b565b82525050565b600061282082612eed565b8084526020840193508360208202850161283985612ee0565b60005b848110156128725783830388526128548383516128c8565b925061285f82612f0e565b915060208801975060018101905061283c565b508196508694505050505092915050565b61288c81612f2d565b82525050565b600061289d82612f03565b8084526128b1816020860160208601612f84565b6128ba81612fb7565b602085010191505092915050565b60006128d382612ef8565b8084526128e7816020860160208601612f84565b6128f081612fb7565b602085010191505092915050565b6000601b82527f496e6a6563746f7220697320616c7265616479206578697374656400000000006020830152604082019050919050565b6000602082527f56616363696e6520646f736520697320616c726561647920657869737465642e6020830152604082019050919050565b6000601f82527f436572746966696361746520697320616c726561647920657869737465642e006020830152604082019050919050565b6000601c82527f4d65646963616c20756e6974206973206e6f74206d6174636865642e000000006020830152604082019050919050565b6000601682527f446f63746f72206973206e6f7420657869737465642e000000000000000000006020830152604082019050919050565b6000601982527f446f63746f7220697320616c72656164792065786973746564000000000000006020830152604082019050919050565b6000601c82527f4d65646963616c20756e6974206973206e6f7420657869737465642e000000006020830152604082019050919050565b6000601882527f496e6a6563746f72206973206e6f7420657869737465642e00000000000000006020830152604082019050919050565b6000603282527f56616363696e6520646f736520646f6573206e6f742062656c6f6e6720746f2060208301527f74686973204d65646963616c20556e69742e00000000000000000000000000006040830152606082019050919050565b6000602282527f56616363696e6520646f736520697320756e65786973746564206f722075736560208301527f642e0000000000000000000000000000000000000000000000000000000000006040830152606082019050919050565b6000602082527f4d65646963616c20756e697420697320616c726561647920657869737465642e6020830152604082019050919050565b6000603382527f546869732066756e6374696f6e206973207265737472696374656420746f207460208301527f686520636f6e74726163742773206f776e6572000000000000000000000000006040830152606082019050919050565b6000602082019050612c196000830184612806565b92915050565b60006020820190508181036000830152612c398184612815565b905092915050565b6000602082019050612c566000830184612883565b92915050565b60006020820190508181036000830152612c7681846128c8565b905092915050565b60006020820190508181036000830152612c988184612892565b905092915050565b60006040820190508181036000830152612cba8185612892565b9050612cc96020830184612806565b9392505050565b60006040820190508181036000830152612cea8185612892565b90508181036020830152612cfe8184612892565b90509392505050565b60006020820190508181036000830152612d20816128fe565b9050919050565b60006020820190508181036000830152612d4081612935565b9050919050565b60006020820190508181036000830152612d608161296c565b9050919050565b60006020820190508181036000830152612d80816129a3565b9050919050565b60006020820190508181036000830152612da0816129da565b9050919050565b60006020820190508181036000830152612dc081612a11565b9050919050565b60006020820190508181036000830152612de081612a48565b9050919050565b60006020820190508181036000830152612e0081612a7f565b9050919050565b60006020820190508181036000830152612e2081612ab6565b9050919050565b60006020820190508181036000830152612e4081612b13565b9050919050565b60006020820190508181036000830152612e6081612b70565b9050919050565b60006020820190508181036000830152612e8081612ba7565b9050919050565b6000604051905081810181811067ffffffffffffffff82111715612eaa57600080fd5b8060405250919050565b600067ffffffffffffffff821115612ecb57600080fd5b601f19601f8301169050602081019050919050565b6000602082019050919050565b600081519050919050565b600081519050919050565b600081519050919050565b6000602082019050919050565b6000612f2682612f39565b9050919050565b60008115159050919050565b600073ffffffffffffffffffffffffffffffffffffffff82169050919050565b6000612f6482612f39565b9050919050565b6000819050919050565b82818337600083830152505050565b60005b83811015612fa2578082015181840152602081019050612f87565b83811115612fb1576000848401525b50505050565b6000601f19601f830116905091905056fea265627a7a72305820bfcd93950f9bb740c41b92e6c639837bf0d6b7f7fac8ffc514376ac7f1af4f2b6c6578706572696d656e74616cf50037",
  "source": "// SPDX-License-Identifier: UNLICENSED\npragma solidity >=0.5.0;\npragma experimental ABIEncoderV2;\n\ncontract PethernetContract {\n    // Ministry of Health's account address \n    address public ministryOfHealthAddr = msg.sender;\n    string[] public medicalUnitsList;\n    string[] public vaccineDosesList;\n    string[] public certificatesList;\n    string[] public doctorsList;\n    string[] public injectorsList;\n\n    // Medical Unit hash => Medical Unit account address\n    mapping (string => address) medicalUnits;\n    // Vaccine Dose hash => address of owner (Medical Unit or by default Ministry of Health)\n    mapping (string => address) vaccineDoses;\n    // Certificate hash => Medical Unit address account\n    mapping (string => Certificate) certificates;\n\n    // Doctor hash => existed?\n    mapping (string => bool) doctors;\n    // Injector hash => existed?\n    mapping (string => bool) injectors;\n\n    /** Event */\n    event MedicalUnitAddedEvent(string _medicalUnitHash, address _medicalUnitAddr);\n    event VaccinDoseAddedEvent(string _vaccineDoseHash);\n    event DoctorAddedEvent(string _doctorHash);\n    event InjectorAddedEvent(string _injectorHash);\n    event DistributedVaccinDoseAddedEvent(string _vaccineDoseHash, string _medicalUnitHash);\n    event IssuedCertEvent(string _certificateHash, string _injectorHash);\n\n\n    modifier ministryOfHealthRestricted() {\n        require(\n            msg.sender == ministryOfHealthAddr,\n            \"This function is restricted to the contract's owner\"\n        );\n        _;\n    }\n\n    struct Certificate {\n        address issuer; // Medical unit address\n        string injector;\n        string doctor;\n        string vaccineDose;\n    }\n\n    function addMedicalUnit(string memory _medicalUnitHash, address _medicalUnitOriginAddr) public ministryOfHealthRestricted {\n        require(\n            medicalUnits[_medicalUnitHash] == address(0),\n            \"Medical unit is already existed.\"\n        );\n        \n        medicalUnitsList.push(_medicalUnitHash);\n        medicalUnits[_medicalUnitHash] = _medicalUnitOriginAddr;\n\n        emit MedicalUnitAddedEvent(_medicalUnitHash, _medicalUnitOriginAddr);\n    }\n\n    function addVaccineDose(string memory _vaccineDoseHash) public ministryOfHealthRestricted {\n        require(\n            vaccineDoses[_vaccineDoseHash] == address(0),\n            \"Vaccine dose is already existed.\"\n        );\n\n        vaccineDosesList.push(_vaccineDoseHash);\n        vaccineDoses[_vaccineDoseHash] = ministryOfHealthAddr;\n        emit VaccinDoseAddedEvent(_vaccineDoseHash);\n    }\n\n    function distributeVaccineDose(string memory _vaccineDoseHash, string memory _medicalUnitHash) public ministryOfHealthRestricted {\n        require(\n            medicalUnits[_medicalUnitHash] != address(0),\n            \"Medical unit is not existed.\"\n        );\n        require(\n            vaccineDoses[_vaccineDoseHash] == ministryOfHealthAddr,\n            \"Vaccine dose is unexisted or used.\"\n        );\n\n        vaccineDoses[_vaccineDoseHash] = medicalUnits[_medicalUnitHash];\n        emit DistributedVaccinDoseAddedEvent(_vaccineDoseHash, _medicalUnitHash);\n    }\n\n    function addDoctor(string memory _doctorHash) public {\n        require(\n            doctors[_doctorHash] == false,\n            \"Doctor is already existed\"\n        );\n\n        doctorsList.push(_doctorHash);\n        doctors[_doctorHash] = true;\n        emit DoctorAddedEvent(_doctorHash);\n    }\n\n    function addInjector(string memory _injectorHash) public {\n        require(\n            injectors[_injectorHash] == false,\n            \"Injector is already existed\"\n        );\n\n        injectorsList.push(_injectorHash);\n        injectors[_injectorHash] = true;\n        emit InjectorAddedEvent(_injectorHash);\n    }\n\n    function issueCertificate(\n        string memory _medicalUnitHash,\n        string memory _injectorHash,\n        string memory _doctorHash,\n        string memory _vaccineDoseHash,\n        string memory _certificateHash) public {\n        require(\n            medicalUnits[_medicalUnitHash] == msg.sender,\n            \"Medical unit is not matched.\"\n        );\n        require(\n            injectors[_injectorHash] == true,\n            \"Injector is not existed.\"\n        );\n        require(\n            doctors[_doctorHash] == true,\n            \"Doctor is not existed.\"\n        );\n        require(\n            vaccineDoses[_vaccineDoseHash] == msg.sender,\n            \"Vaccine dose does not belong to this Medical Unit.\"\n        );\n        require(\n            certificates[_certificateHash].issuer == address(0),\n            \"Certificate is already existed.\"\n        );\n        \n        certificates[_certificateHash] = Certificate(msg.sender, _injectorHash, _doctorHash, _vaccineDoseHash);\n        emit IssuedCertEvent(_certificateHash, _injectorHash);\n    }\n\n    /* Check functions */\n\n    function checkDoctor(string memory _doctorHash) public view returns(bool isExisted) {\n        isExisted = doctors[_doctorHash];\n    }\n\n    function checkInjector(string memory _injectorHash) public view returns(bool isExisted) {\n        isExisted = injectors[_injectorHash];\n    }\n\n    function checkCertificate(string memory _certificateHash) public view returns(bool isExisted) {\n        isExisted = certificates[_certificateHash].issuer != address(0);\n    }\n\n    function checkVaccineDose(string memory _vaccineDoseHash) public view returns(bool isExisted) {\n        isExisted = vaccineDoses[_vaccineDoseHash] != address(0);\n    }\n\n    function checkMedicalUnit(string memory _medicalUnitHash) public view returns(bool isExisted) {\n        isExisted = medicalUnits[_medicalUnitHash] != address(0);\n    }\n\n    function vaccineDosesListGetter() public view returns (string[] memory) {\n        return vaccineDosesList;\n    }\n\n    function medicalUnitsListGetter() public view returns (string[] memory) {\n        return medicalUnitsList;\n    }\n\n    function certificatesListGetter() public view returns (string[] memory) {\n        return certificatesList;\n    }\n\n    function doctorsListGetter() public view returns (string[] memory) {\n        return doctorsList;\n    }\n\n    function injectorsListGetter() public view returns (string[] memory) {\n        return injectorsList;\n    }\n}",
  "sourcePath": "/Users/steven/Github/pethernet/contracts/PethernetContract.sol",
  "compiler": {
    "name": "solc",
    "version": "0.5.0+commit.1d4f565a.Emscripten.clang"
  },
  "schemaVersion": "3.0.1",
  "updatedAt": "2021-08-15T17:53:59.414Z",
  "devdoc": {
    "methods": {}
  },
  "userdoc": {
    "methods": {}
  }
}