{
  "contractName": "PethernetContract",
  "abi": [
    {
      "constant": true,
      "inputs": [],
      "name": "ministryOfHealthAddr",
      "outputs": [
        {
          "name": "",
          "type": "address"
        }
      ],
      "payable": false,
      "stateMutability": "view",
      "type": "function",
      "signature": "0x34d78caa"
    },
    {
      "constant": true,
      "inputs": [
        {
          "name": "",
          "type": "uint256"
        }
      ],
      "name": "medicalUnits",
      "outputs": [
        {
          "name": "",
          "type": "string"
        }
      ],
      "payable": false,
      "stateMutability": "view",
      "type": "function",
      "signature": "0x3b594c24"
    },
    {
      "constant": true,
      "inputs": [
        {
          "name": "",
          "type": "uint256"
        }
      ],
      "name": "vaccineDoses",
      "outputs": [
        {
          "name": "",
          "type": "string"
        }
      ],
      "payable": false,
      "stateMutability": "view",
      "type": "function",
      "signature": "0xbd5d257f"
    },
    {
      "constant": false,
      "inputs": [
        {
          "name": "_vaccineDoseHash",
          "type": "string"
        }
      ],
      "name": "addVaccineDose",
      "outputs": [],
      "payable": false,
      "stateMutability": "nonpayable",
      "type": "function",
      "signature": "0x40d58494"
    },
    {
      "constant": false,
      "inputs": [
        {
          "name": "_medicalUnitHash",
          "type": "string"
        }
      ],
      "name": "addMedicalUnit",
      "outputs": [],
      "payable": false,
      "stateMutability": "nonpayable",
      "type": "function",
      "signature": "0x3d0ce9d3"
    },
    {
      "constant": true,
      "inputs": [],
      "name": "getVaccineDoses",
      "outputs": [
        {
          "name": "_vaccineDoses",
          "type": "string[]"
        }
      ],
      "payable": false,
      "stateMutability": "view",
      "type": "function",
      "signature": "0xe0cbea69"
    },
    {
      "constant": true,
      "inputs": [],
      "name": "getMedicalUnits",
      "outputs": [
        {
          "name": "_medicalUnits",
          "type": "string[]"
        }
      ],
      "payable": false,
      "stateMutability": "view",
      "type": "function",
      "signature": "0x434df293"
    }
  ],
  "bytecode": "0x6080604052336000806101000a81548173ffffffffffffffffffffffffffffffffffffffff021916908373ffffffffffffffffffffffffffffffffffffffff16021790555034801561005057600080fd5b50610b42806100606000396000f3fe608060405260043610610083576000357c0100000000000000000000000000000000000000000000000000000000900463ffffffff16806334d78caa146100885780633b594c24146100b35780633d0ce9d3146100f057806340d5849414610119578063434df29314610142578063bd5d257f1461016d578063e0cbea69146101aa575b600080fd5b34801561009457600080fd5b5061009d6101d5565b6040516100aa9190610971565b60405180910390f35b3480156100bf57600080fd5b506100da60048036036100d59190810190610838565b6101fa565b6040516100e791906109ae565b60405180910390f35b3480156100fc57600080fd5b50610117600480360361011291908101906107f7565b6102b5565b005b34801561012557600080fd5b50610140600480360361013b91908101906107f7565b610388565b005b34801561014e57600080fd5b5061015761045b565b604051610164919061098c565b60405180910390f35b34801561017957600080fd5b50610194600480360361018f9190810190610838565b610544565b6040516101a191906109ae565b60405180910390f35b3480156101b657600080fd5b506101bf6105ff565b6040516101cc919061098c565b60405180910390f35b6000809054906101000a900473ffffffffffffffffffffffffffffffffffffffff1681565b60028181548110151561020957fe5b906000526020600020016000915090508054600181600116156101000203166002900480601f0160208091040260200160405190810160405280929190818152602001828054600181600116156101000203166002900480156102ad5780601f10610282576101008083540402835291602001916102ad565b820191906000526020600020905b81548152906001019060200180831161029057829003601f168201915b505050505081565b6000809054906101000a900473ffffffffffffffffffffffffffffffffffffffff1673ffffffffffffffffffffffffffffffffffffffff163373ffffffffffffffffffffffffffffffffffffffff16141515610346576040517f08c379a000000000000000000000000000000000000000000000000000000000815260040161033d906109d0565b60405180910390fd5b60028190806001815401808255809150509060018203906000526020600020016000909192909190915090805190602001906103839291906106e8565b505050565b6000809054906101000a900473ffffffffffffffffffffffffffffffffffffffff1673ffffffffffffffffffffffffffffffffffffffff163373ffffffffffffffffffffffffffffffffffffffff16141515610419576040517f08c379a0000000000000000000000000000000000000000000000000000000008152600401610410906109d0565b60405180910390fd5b60018190806001815401808255809150509060018203906000526020600020016000909192909190915090805190602001906104569291906106e8565b505050565b60606002805480602002602001604051908101604052809291908181526020016000905b8282101561053b578382906000526020600020018054600181600116156101000203166002900480601f0160208091040260200160405190810160405280929190818152602001828054600181600116156101000203166002900480156105275780601f106104fc57610100808354040283529160200191610527565b820191906000526020600020905b81548152906001019060200180831161050a57829003601f168201915b50505050508152602001906001019061047f565b50505050905090565b60018181548110151561055357fe5b906000526020600020016000915090508054600181600116156101000203166002900480601f0160208091040260200160405190810160405280929190818152602001828054600181600116156101000203166002900480156105f75780601f106105cc576101008083540402835291602001916105f7565b820191906000526020600020905b8154815290600101906020018083116105da57829003601f168201915b505050505081565b60606001805480602002602001604051908101604052809291908181526020016000905b828210156106df578382906000526020600020018054600181600116156101000203166002900480601f0160208091040260200160405190810160405280929190818152602001828054600181600116156101000203166002900480156106cb5780601f106106a0576101008083540402835291602001916106cb565b820191906000526020600020905b8154815290600101906020018083116106ae57829003601f168201915b505050505081526020019060010190610623565b50505050905090565b828054600181600116156101000203166002900490600052602060002090601f016020900481019282601f1061072957805160ff1916838001178555610757565b82800160010185558215610757579182015b8281111561075657825182559160200191906001019061073b565b5b5090506107649190610768565b5090565b61078a91905b8082111561078657600081600090555060010161076e565b5090565b90565b600082601f83011215156107a057600080fd5b81356107b36107ae82610a1d565b6109f0565b915080825260208301602083018583830111156107cf57600080fd5b6107da838284610ab5565b50505092915050565b60006107ef8235610aab565b905092915050565b60006020828403121561080957600080fd5b600082013567ffffffffffffffff81111561082357600080fd5b61082f8482850161078d565b91505092915050565b60006020828403121561084a57600080fd5b6000610858848285016107e3565b91505092915050565b61086a81610a79565b82525050565b600061087b82610a56565b8084526020840193508360208202850161089485610a49565b60005b848110156108cd5783830388526108af8383516108de565b92506108ba82610a6c565b9150602088019750600181019050610897565b508196508694505050505092915050565b60006108e982610a61565b8084526108fd816020860160208601610ac4565b61090681610af7565b602085010191505092915050565b6000603382527f546869732066756e6374696f6e206973207265737472696374656420746f207460208301527f686520636f6e74726163742773206f776e6572000000000000000000000000006040830152606082019050919050565b60006020820190506109866000830184610861565b92915050565b600060208201905081810360008301526109a68184610870565b905092915050565b600060208201905081810360008301526109c881846108de565b905092915050565b600060208201905081810360008301526109e981610914565b9050919050565b6000604051905081810181811067ffffffffffffffff82111715610a1357600080fd5b8060405250919050565b600067ffffffffffffffff821115610a3457600080fd5b601f19601f8301169050602081019050919050565b6000602082019050919050565b600081519050919050565b600081519050919050565b6000602082019050919050565b6000610a8482610a8b565b9050919050565b600073ffffffffffffffffffffffffffffffffffffffff82169050919050565b6000819050919050565b82818337600083830152505050565b60005b83811015610ae2578082015181840152602081019050610ac7565b83811115610af1576000848401525b50505050565b6000601f19601f830116905091905056fea265627a7a72305820040e9aeb96755a9dee223dd6dde45f29a7ddf0e58466810717b42123b9eae1246c6578706572696d656e74616cf50037",
  "source": "// SPDX-License-Identifier: UNLICENSED\npragma solidity >=0.5.0;\npragma experimental ABIEncoderV2;\n\ncontract PethernetContract {\n    address public ministryOfHealthAddr = msg.sender;\n    string[] public vaccineDoses;\n    string[] public medicalUnits;\n\n    modifier restricted() {\n        require(\n            msg.sender == ministryOfHealthAddr,\n            \"This function is restricted to the contract's owner\"\n        );\n        _;\n    }\n\n    function addVaccineDose(string memory _vaccineDoseHash) public restricted {\n        vaccineDoses.push(_vaccineDoseHash);\n    }\n\n    function addMedicalUnit(string memory _medicalUnitHash) public restricted {\n        medicalUnits.push(_medicalUnitHash);\n    }\n\n    function getVaccineDoses() public view returns(string[] memory _vaccineDoses) {\n        _vaccineDoses = vaccineDoses;\n    }\n\n    function getMedicalUnits() public view returns(string[] memory _medicalUnits) {\n        _medicalUnits = medicalUnits;\n    }\n}",
  "sourcePath": "/Users/steven/Github/pethernet/contracts/PethernetContract.sol",
  "compiler": {
    "name": "solc",
    "version": "0.5.0+commit.1d4f565a.Emscripten.clang"
  },
  "schemaVersion": "3.0.1",
  "updatedAt": "2021-08-08T16:18:43.698Z",
  "devdoc": {
    "methods": {}
  },
  "userdoc": {
    "methods": {}
  }
}