{
  "contractName": "PethernetContract",
  "abi": [
    {
      "constant": true,
      "inputs": [
        {
          "name": "",
          "type": "uint256"
        }
      ],
      "name": "vaccineDosesList",
      "outputs": [
        {
          "name": "",
          "type": "string"
        }
      ],
      "payable": false,
      "stateMutability": "view",
      "type": "function",
      "signature": "0x2ae66be7"
    },
    {
      "constant": true,
      "inputs": [],
      "name": "ministryOfHealthAddr",
      "outputs": [
        {
          "name": "",
          "type": "address"
        }
      ],
      "payable": false,
      "stateMutability": "view",
      "type": "function",
      "signature": "0x34d78caa"
    },
    {
      "constant": true,
      "inputs": [
        {
          "name": "",
          "type": "uint256"
        }
      ],
      "name": "certificatesList",
      "outputs": [
        {
          "name": "",
          "type": "string"
        }
      ],
      "payable": false,
      "stateMutability": "view",
      "type": "function",
      "signature": "0x5397a28c"
    },
    {
      "constant": true,
      "inputs": [
        {
          "name": "",
          "type": "uint256"
        }
      ],
      "name": "doctorsList",
      "outputs": [
        {
          "name": "",
          "type": "string"
        }
      ],
      "payable": false,
      "stateMutability": "view",
      "type": "function",
      "signature": "0x709898c0"
    },
    {
      "constant": true,
      "inputs": [
        {
          "name": "",
          "type": "uint256"
        }
      ],
      "name": "injectorsList",
      "outputs": [
        {
          "name": "",
          "type": "string"
        }
      ],
      "payable": false,
      "stateMutability": "view",
      "type": "function",
      "signature": "0xc4f29dea"
    },
    {
      "constant": true,
      "inputs": [
        {
          "name": "",
          "type": "uint256"
        }
      ],
      "name": "medicalUnitsList",
      "outputs": [
        {
          "name": "",
          "type": "string"
        }
      ],
      "payable": false,
      "stateMutability": "view",
      "type": "function",
      "signature": "0xed893f09"
    },
    {
      "anonymous": false,
      "inputs": [
        {
          "indexed": false,
          "name": "_medicalUnitHash",
          "type": "string"
        },
        {
          "indexed": false,
          "name": "_medicalUnitAddr",
          "type": "address"
        }
      ],
      "name": "MedicalUnitAddedEvent",
      "type": "event",
      "signature": "0x82dd01867fa73ce6c638aeacccb554275d4894bbbeb7d4bf1d27ebd918a3a9aa"
    },
    {
      "constant": false,
      "inputs": [
        {
          "name": "_medicalUnitHash",
          "type": "string"
        },
        {
          "name": "_medicalUnitOriginAddr",
          "type": "address"
        }
      ],
      "name": "addMedicalUnit",
      "outputs": [],
      "payable": false,
      "stateMutability": "nonpayable",
      "type": "function",
      "signature": "0x1e9ce79a"
    },
    {
      "constant": false,
      "inputs": [
        {
          "name": "_vaccineDoseHash",
          "type": "string"
        }
      ],
      "name": "addVaccineDose",
      "outputs": [],
      "payable": false,
      "stateMutability": "nonpayable",
      "type": "function",
      "signature": "0x40d58494"
    },
    {
      "constant": false,
      "inputs": [
        {
          "name": "_vaccineDoseHash",
          "type": "string"
        },
        {
          "name": "_medicalUnitHash",
          "type": "string"
        }
      ],
      "name": "distributeVaccineDose",
      "outputs": [],
      "payable": false,
      "stateMutability": "nonpayable",
      "type": "function",
      "signature": "0x78dd86bc"
    },
    {
      "constant": false,
      "inputs": [
        {
          "name": "_doctorHash",
          "type": "string"
        }
      ],
      "name": "addDoctor",
      "outputs": [],
      "payable": false,
      "stateMutability": "nonpayable",
      "type": "function",
      "signature": "0x0be61700"
    },
    {
      "constant": false,
      "inputs": [
        {
          "name": "_injectorHash",
          "type": "string"
        }
      ],
      "name": "addInjector",
      "outputs": [],
      "payable": false,
      "stateMutability": "nonpayable",
      "type": "function",
      "signature": "0xa10811fc"
    },
    {
      "constant": false,
      "inputs": [
        {
          "name": "_medicalUnitHash",
          "type": "string"
        },
        {
          "name": "_injectorHash",
          "type": "string"
        },
        {
          "name": "_doctorHash",
          "type": "string"
        },
        {
          "name": "_vaccineDoseHash",
          "type": "string"
        },
        {
          "name": "_certificateHash",
          "type": "string"
        }
      ],
      "name": "issueCertificate",
      "outputs": [],
      "payable": false,
      "stateMutability": "nonpayable",
      "type": "function",
      "signature": "0x35318158"
    },
    {
      "constant": true,
      "inputs": [
        {
          "name": "_doctorHash",
          "type": "string"
        }
      ],
      "name": "checkDoctor",
      "outputs": [
        {
          "name": "isExisted",
          "type": "bool"
        }
      ],
      "payable": false,
      "stateMutability": "view",
      "type": "function",
      "signature": "0x932f3fe0"
    },
    {
      "constant": true,
      "inputs": [
        {
          "name": "_injectorHash",
          "type": "string"
        }
      ],
      "name": "checkInjector",
      "outputs": [
        {
          "name": "isExisted",
          "type": "bool"
        }
      ],
      "payable": false,
      "stateMutability": "view",
      "type": "function",
      "signature": "0xfbfd4bc8"
    },
    {
      "constant": true,
      "inputs": [
        {
          "name": "_certificateHash",
          "type": "string"
        }
      ],
      "name": "checkCertificate",
      "outputs": [
        {
          "name": "isExisted",
          "type": "bool"
        }
      ],
      "payable": false,
      "stateMutability": "view",
      "type": "function",
      "signature": "0xffbd4dd5"
    },
    {
      "constant": true,
      "inputs": [
        {
          "name": "_vaccineDoseHash",
          "type": "string"
        }
      ],
      "name": "checkVaccineDose",
      "outputs": [
        {
          "name": "isExisted",
          "type": "bool"
        }
      ],
      "payable": false,
      "stateMutability": "view",
      "type": "function",
      "signature": "0x37ebc7f0"
    },
    {
      "constant": true,
      "inputs": [
        {
          "name": "_medicalUnitHash",
          "type": "string"
        }
      ],
      "name": "checkMedicalUnit",
      "outputs": [
        {
          "name": "isExisted",
          "type": "bool"
        }
      ],
      "payable": false,
      "stateMutability": "view",
      "type": "function",
      "signature": "0x9473191a"
    },
    {
      "constant": true,
      "inputs": [],
      "name": "vaccineDosesListGetter",
      "outputs": [
        {
          "name": "",
          "type": "string[]"
        }
      ],
      "payable": false,
      "stateMutability": "view",
      "type": "function",
      "signature": "0x64d25fec"
    },
    {
      "constant": true,
      "inputs": [],
      "name": "medicalUnitsListGetter",
      "outputs": [
        {
          "name": "",
          "type": "string[]"
        }
      ],
      "payable": false,
      "stateMutability": "view",
      "type": "function",
      "signature": "0x71a185f0"
    },
    {
      "constant": true,
      "inputs": [],
      "name": "certificatesListGetter",
      "outputs": [
        {
          "name": "",
          "type": "string[]"
        }
      ],
      "payable": false,
      "stateMutability": "view",
      "type": "function",
      "signature": "0xb0ee00f2"
    },
    {
      "constant": true,
      "inputs": [],
      "name": "doctorsListGetter",
      "outputs": [
        {
          "name": "",
          "type": "string[]"
        }
      ],
      "payable": false,
      "stateMutability": "view",
      "type": "function",
      "signature": "0xafa60b29"
    },
    {
      "constant": true,
      "inputs": [],
      "name": "injectorsListGetter",
      "outputs": [
        {
          "name": "",
          "type": "string[]"
        }
      ],
      "payable": false,
      "stateMutability": "view",
      "type": "function",
      "signature": "0x96333c53"
    }
  ],
  "bytecode": "0x6080604052336000806101000a81548173ffffffffffffffffffffffffffffffffffffffff021916908373ffffffffffffffffffffffffffffffffffffffff16021790555034801561005057600080fd5b50612f1d806100606000396000f3fe608060405260043610610128576000357c0100000000000000000000000000000000000000000000000000000000900463ffffffff1680630be617001461012d5780631e9ce79a146101565780632ae66be71461017f57806334d78caa146101bc57806335318158146101e757806337ebc7f01461021057806340d584941461024d5780635397a28c1461027657806364d25fec146102b3578063709898c0146102de57806371a185f01461031b57806378dd86bc14610346578063932f3fe01461036f5780639473191a146103ac57806396333c53146103e9578063a10811fc14610414578063afa60b291461043d578063b0ee00f214610468578063c4f29dea14610493578063ed893f09146104d0578063fbfd4bc81461050d578063ffbd4dd51461054a575b600080fd5b34801561013957600080fd5b50610154600480360361014f9190810190612561565b610587565b005b34801561016257600080fd5b5061017d600480360361017891908101906125a2565b61070e565b005b34801561018b57600080fd5b506101a660048036036101a19190810190612751565b6109c1565b6040516101b39190612bd0565b60405180910390f35b3480156101c857600080fd5b506101d1610a7c565b6040516101de9190612b78565b60405180910390f35b3480156101f357600080fd5b5061020e60048036036102099190810190612662565b610aa1565b005b34801561021c57600080fd5b5061023760048036036102329190810190612561565b6110ee565b6040516102449190612bb5565b60405180910390f35b34801561025957600080fd5b50610274600480360361026f9190810190612561565b6111b2565b005b34801561028257600080fd5b5061029d60048036036102989190810190612751565b61144c565b6040516102aa9190612bd0565b60405180910390f35b3480156102bf57600080fd5b506102c8611507565b6040516102d59190612b93565b60405180910390f35b3480156102ea57600080fd5b5061030560048036036103009190810190612751565b6115f0565b6040516103129190612bd0565b60405180910390f35b34801561032757600080fd5b506103306116ab565b60405161033d9190612b93565b60405180910390f35b34801561035257600080fd5b5061036d600480360361036891908101906125f6565b611794565b005b34801561037b57600080fd5b5061039660048036036103919190810190612561565b611b77565b6040516103a39190612bb5565b60405180910390f35b3480156103b857600080fd5b506103d360048036036103ce9190810190612561565b611bf9565b6040516103e09190612bb5565b60405180910390f35b3480156103f557600080fd5b506103fe611cbd565b60405161040b9190612b93565b60405180910390f35b34801561042057600080fd5b5061043b60048036036104369190810190612561565b611da6565b005b34801561044957600080fd5b50610452611f2d565b60405161045f9190612b93565b60405180910390f35b34801561047457600080fd5b5061047d612016565b60405161048a9190612b93565b60405180910390f35b34801561049f57600080fd5b506104ba60048036036104b59190810190612751565b6120ff565b6040516104c79190612bd0565b60405180910390f35b3480156104dc57600080fd5b506104f760048036036104f29190810190612751565b6121ba565b6040516105049190612bd0565b60405180910390f35b34801561051957600080fd5b50610534600480360361052f9190810190612561565b612275565b6040516105419190612bb5565b60405180910390f35b34801561055657600080fd5b50610571600480360361056c9190810190612561565b6122f7565b60405161057e9190612bb5565b60405180910390f35b600015156009826040518082805190602001908083835b6020831015156105c3578051825260208201915060208101905060208303925061059e565b6001836020036101000a038019825116818451168082178552505050505050905001915050908152602001604051809103902060009054906101000a900460ff161515141515610648576040517f08c379a000000000000000000000000000000000000000000000000000000000815260040161063f90612cc2565b60405180910390fd5b60048190806001815401808255809150509060018203906000526020600020016000909192909190915090805190602001906106859291906123be565b505060016009826040518082805190602001908083835b6020831015156106c1578051825260208201915060208101905060208303925061069c565b6001836020036101000a038019825116818451168082178552505050505050905001915050908152602001604051809103902060006101000a81548160ff02191690831515021790555050565b6000809054906101000a900473ffffffffffffffffffffffffffffffffffffffff1673ffffffffffffffffffffffffffffffffffffffff163373ffffffffffffffffffffffffffffffffffffffff1614151561079f576040517f08c379a000000000000000000000000000000000000000000000000000000000815260040161079690612d82565b60405180910390fd5b600073ffffffffffffffffffffffffffffffffffffffff166006836040518082805190602001908083835b6020831015156107ef57805182526020820191506020810190506020830392506107ca565b6001836020036101000a038019825116818451168082178552505050505050905001915050908152602001604051809103902060009054906101000a900473ffffffffffffffffffffffffffffffffffffffff1673ffffffffffffffffffffffffffffffffffffffff1614151561089b576040517f08c379a000000000000000000000000000000000000000000000000000000000815260040161089290612d62565b60405180910390fd5b60018290806001815401808255809150509060018203906000526020600020016000909192909190915090805190602001906108d89291906123be565b5050806006836040518082805190602001908083835b60208310151561091357805182526020820191506020810190506020830392506108ee565b6001836020036101000a038019825116818451168082178552505050505050905001915050908152602001604051809103902060006101000a81548173ffffffffffffffffffffffffffffffffffffffff021916908373ffffffffffffffffffffffffffffffffffffffff1602179055507f82dd01867fa73ce6c638aeacccb554275d4894bbbeb7d4bf1d27ebd918a3a9aa82826040516109b5929190612bf2565b60405180910390a15050565b6002818154811015156109d057fe5b906000526020600020016000915090508054600181600116156101000203166002900480601f016020809104026020016040519081016040528092919081815260200182805460018160011615610100020316600290048015610a745780601f10610a4957610100808354040283529160200191610a74565b820191906000526020600020905b815481529060010190602001808311610a5757829003601f168201915b505050505081565b6000809054906101000a900473ffffffffffffffffffffffffffffffffffffffff1681565b3373ffffffffffffffffffffffffffffffffffffffff166006866040518082805190602001908083835b602083101515610af05780518252602082019150602081019050602083039250610acb565b6001836020036101000a038019825116818451168082178552505050505050905001915050908152602001604051809103902060009054906101000a900473ffffffffffffffffffffffffffffffffffffffff1673ffffffffffffffffffffffffffffffffffffffff16141515610b9c576040517f08c379a0000000000000000000000000000000000000000000000000000000008152600401610b9390612c82565b60405180910390fd5b60011515600a856040518082805190602001908083835b602083101515610bd85780518252602082019150602081019050602083039250610bb3565b6001836020036101000a038019825116818451168082178552505050505050905001915050908152602001604051809103902060009054906101000a900460ff161515141515610c5d576040517f08c379a0000000000000000000000000000000000000000000000000000000008152600401610c5490612d02565b60405180910390fd5b600115156009846040518082805190602001908083835b602083101515610c995780518252602082019150602081019050602083039250610c74565b6001836020036101000a038019825116818451168082178552505050505050905001915050908152602001604051809103902060009054906101000a900460ff161515141515610d1e576040517f08c379a0000000000000000000000000000000000000000000000000000000008152600401610d1590612ca2565b60405180910390fd5b6006856040518082805190602001908083835b602083101515610d565780518252602082019150602081019050602083039250610d31565b6001836020036101000a038019825116818451168082178552505050505050905001915050908152602001604051809103902060009054906101000a900473ffffffffffffffffffffffffffffffffffffffff1673ffffffffffffffffffffffffffffffffffffffff166007836040518082805190602001908083835b602083101515610df85780518252602082019150602081019050602083039250610dd3565b6001836020036101000a038019825116818451168082178552505050505050905001915050908152602001604051809103902060009054906101000a900473ffffffffffffffffffffffffffffffffffffffff1673ffffffffffffffffffffffffffffffffffffffff16141515610ea4576040517f08c379a0000000000000000000000000000000000000000000000000000000008152600401610e9b90612d22565b60405180910390fd5b600073ffffffffffffffffffffffffffffffffffffffff166008826040518082805190602001908083835b602083101515610ef45780518252602082019150602081019050602083039250610ecf565b6001836020036101000a038019825116818451168082178552505050505050905001915050908152602001604051809103902060000160009054906101000a900473ffffffffffffffffffffffffffffffffffffffff1673ffffffffffffffffffffffffffffffffffffffff16141515610fa3576040517f08c379a0000000000000000000000000000000000000000000000000000000008152600401610f9a90612c62565b60405180910390fd5b6080604051908101604052803373ffffffffffffffffffffffffffffffffffffffff168152602001858152602001848152602001838152506008826040518082805190602001908083835b6020831015156110135780518252602082019150602081019050602083039250610fee565b6001836020036101000a038019825116818451168082178552505050505050905001915050908152602001604051809103902060008201518160000160006101000a81548173ffffffffffffffffffffffffffffffffffffffff021916908373ffffffffffffffffffffffffffffffffffffffff16021790555060208201518160010190805190602001906110a992919061243e565b5060408201518160020190805190602001906110c692919061243e565b5060608201518160030190805190602001906110e392919061243e565b509050505050505050565b60008073ffffffffffffffffffffffffffffffffffffffff166007836040518082805190602001908083835b60208310151561113f578051825260208201915060208101905060208303925061111a565b6001836020036101000a038019825116818451168082178552505050505050905001915050908152602001604051809103902060009054906101000a900473ffffffffffffffffffffffffffffffffffffffff1673ffffffffffffffffffffffffffffffffffffffff1614159050919050565b6000809054906101000a900473ffffffffffffffffffffffffffffffffffffffff1673ffffffffffffffffffffffffffffffffffffffff163373ffffffffffffffffffffffffffffffffffffffff16141515611243576040517f08c379a000000000000000000000000000000000000000000000000000000000815260040161123a90612d82565b60405180910390fd5b600073ffffffffffffffffffffffffffffffffffffffff166007826040518082805190602001908083835b602083101515611293578051825260208201915060208101905060208303925061126e565b6001836020036101000a038019825116818451168082178552505050505050905001915050908152602001604051809103902060009054906101000a900473ffffffffffffffffffffffffffffffffffffffff1673ffffffffffffffffffffffffffffffffffffffff1614151561133f576040517f08c379a000000000000000000000000000000000000000000000000000000000815260040161133690612c42565b60405180910390fd5b600281908060018154018082558091505090600182039060005260206000200160009091929091909150908051906020019061137c9291906123be565b50506000809054906101000a900473ffffffffffffffffffffffffffffffffffffffff166007826040518082805190602001908083835b6020831015156113d857805182526020820191506020810190506020830392506113b3565b6001836020036101000a038019825116818451168082178552505050505050905001915050908152602001604051809103902060006101000a81548173ffffffffffffffffffffffffffffffffffffffff021916908373ffffffffffffffffffffffffffffffffffffffff16021790555050565b60038181548110151561145b57fe5b906000526020600020016000915090508054600181600116156101000203166002900480601f0160208091040260200160405190810160405280929190818152602001828054600181600116156101000203166002900480156114ff5780601f106114d4576101008083540402835291602001916114ff565b820191906000526020600020905b8154815290600101906020018083116114e257829003601f168201915b505050505081565b60606002805480602002602001604051908101604052809291908181526020016000905b828210156115e7578382906000526020600020018054600181600116156101000203166002900480601f0160208091040260200160405190810160405280929190818152602001828054600181600116156101000203166002900480156115d35780601f106115a8576101008083540402835291602001916115d3565b820191906000526020600020905b8154815290600101906020018083116115b657829003601f168201915b50505050508152602001906001019061152b565b50505050905090565b6004818154811015156115ff57fe5b906000526020600020016000915090508054600181600116156101000203166002900480601f0160208091040260200160405190810160405280929190818152602001828054600181600116156101000203166002900480156116a35780601f10611678576101008083540402835291602001916116a3565b820191906000526020600020905b81548152906001019060200180831161168657829003601f168201915b505050505081565b60606001805480602002602001604051908101604052809291908181526020016000905b8282101561178b578382906000526020600020018054600181600116156101000203166002900480601f0160208091040260200160405190810160405280929190818152602001828054600181600116156101000203166002900480156117775780601f1061174c57610100808354040283529160200191611777565b820191906000526020600020905b81548152906001019060200180831161175a57829003601f168201915b5050505050815260200190600101906116cf565b50505050905090565b6000809054906101000a900473ffffffffffffffffffffffffffffffffffffffff1673ffffffffffffffffffffffffffffffffffffffff163373ffffffffffffffffffffffffffffffffffffffff16141515611825576040517f08c379a000000000000000000000000000000000000000000000000000000000815260040161181c90612d82565b60405180910390fd5b600073ffffffffffffffffffffffffffffffffffffffff166006826040518082805190602001908083835b6020831015156118755780518252602082019150602081019050602083039250611850565b6001836020036101000a038019825116818451168082178552505050505050905001915050908152602001604051809103902060009054906101000a900473ffffffffffffffffffffffffffffffffffffffff1673ffffffffffffffffffffffffffffffffffffffff1614151515611922576040517f08c379a000000000000000000000000000000000000000000000000000000000815260040161191990612ce2565b60405180910390fd5b6000809054906101000a900473ffffffffffffffffffffffffffffffffffffffff1673ffffffffffffffffffffffffffffffffffffffff166007836040518082805190602001908083835b602083101515611992578051825260208201915060208101905060208303925061196d565b6001836020036101000a038019825116818451168082178552505050505050905001915050908152602001604051809103902060009054906101000a900473ffffffffffffffffffffffffffffffffffffffff1673ffffffffffffffffffffffffffffffffffffffff16141515611a3e576040517f08c379a0000000000000000000000000000000000000000000000000000000008152600401611a3590612d42565b60405180910390fd5b6006816040518082805190602001908083835b602083101515611a765780518252602082019150602081019050602083039250611a51565b6001836020036101000a038019825116818451168082178552505050505050905001915050908152602001604051809103902060009054906101000a900473ffffffffffffffffffffffffffffffffffffffff166007836040518082805190602001908083835b602083101515611b025780518252602082019150602081019050602083039250611add565b6001836020036101000a038019825116818451168082178552505050505050905001915050908152602001604051809103902060006101000a81548173ffffffffffffffffffffffffffffffffffffffff021916908373ffffffffffffffffffffffffffffffffffffffff1602179055505050565b60006009826040518082805190602001908083835b602083101515611bb15780518252602082019150602081019050602083039250611b8c565b6001836020036101000a038019825116818451168082178552505050505050905001915050908152602001604051809103902060009054906101000a900460ff169050919050565b60008073ffffffffffffffffffffffffffffffffffffffff166006836040518082805190602001908083835b602083101515611c4a5780518252602082019150602081019050602083039250611c25565b6001836020036101000a038019825116818451168082178552505050505050905001915050908152602001604051809103902060009054906101000a900473ffffffffffffffffffffffffffffffffffffffff1673ffffffffffffffffffffffffffffffffffffffff1614159050919050565b60606005805480602002602001604051908101604052809291908181526020016000905b82821015611d9d578382906000526020600020018054600181600116156101000203166002900480601f016020809104026020016040519081016040528092919081815260200182805460018160011615610100020316600290048015611d895780601f10611d5e57610100808354040283529160200191611d89565b820191906000526020600020905b815481529060010190602001808311611d6c57829003601f168201915b505050505081526020019060010190611ce1565b50505050905090565b60001515600a826040518082805190602001908083835b602083101515611de25780518252602082019150602081019050602083039250611dbd565b6001836020036101000a038019825116818451168082178552505050505050905001915050908152602001604051809103902060009054906101000a900460ff161515141515611e67576040517f08c379a0000000000000000000000000000000000000000000000000000000008152600401611e5e90612c22565b60405180910390fd5b6005819080600181540180825580915050906001820390600052602060002001600090919290919091509080519060200190611ea49291906123be565b50506001600a826040518082805190602001908083835b602083101515611ee05780518252602082019150602081019050602083039250611ebb565b6001836020036101000a038019825116818451168082178552505050505050905001915050908152602001604051809103902060006101000a81548160ff02191690831515021790555050565b60606004805480602002602001604051908101604052809291908181526020016000905b8282101561200d578382906000526020600020018054600181600116156101000203166002900480601f016020809104026020016040519081016040528092919081815260200182805460018160011615610100020316600290048015611ff95780601f10611fce57610100808354040283529160200191611ff9565b820191906000526020600020905b815481529060010190602001808311611fdc57829003601f168201915b505050505081526020019060010190611f51565b50505050905090565b60606003805480602002602001604051908101604052809291908181526020016000905b828210156120f6578382906000526020600020018054600181600116156101000203166002900480601f0160208091040260200160405190810160405280929190818152602001828054600181600116156101000203166002900480156120e25780601f106120b7576101008083540402835291602001916120e2565b820191906000526020600020905b8154815290600101906020018083116120c557829003601f168201915b50505050508152602001906001019061203a565b50505050905090565b60058181548110151561210e57fe5b906000526020600020016000915090508054600181600116156101000203166002900480601f0160208091040260200160405190810160405280929190818152602001828054600181600116156101000203166002900480156121b25780601f10612187576101008083540402835291602001916121b2565b820191906000526020600020905b81548152906001019060200180831161219557829003601f168201915b505050505081565b6001818154811015156121c957fe5b906000526020600020016000915090508054600181600116156101000203166002900480601f01602080910402602001604051908101604052809291908181526020018280546001816001161561010002031660029004801561226d5780601f106122425761010080835404028352916020019161226d565b820191906000526020600020905b81548152906001019060200180831161225057829003601f168201915b505050505081565b6000600a826040518082805190602001908083835b6020831015156122af578051825260208201915060208101905060208303925061228a565b6001836020036101000a038019825116818451168082178552505050505050905001915050908152602001604051809103902060009054906101000a900460ff169050919050565b60008073ffffffffffffffffffffffffffffffffffffffff166008836040518082805190602001908083835b6020831015156123485780518252602082019150602081019050602083039250612323565b6001836020036101000a038019825116818451168082178552505050505050905001915050908152602001604051809103902060000160009054906101000a900473ffffffffffffffffffffffffffffffffffffffff1673ffffffffffffffffffffffffffffffffffffffff1614159050919050565b828054600181600116156101000203166002900490600052602060002090601f016020900481019282601f106123ff57805160ff191683800117855561242d565b8280016001018555821561242d579182015b8281111561242c578251825591602001919060010190612411565b5b50905061243a91906124be565b5090565b828054600181600116156101000203166002900490600052602060002090601f016020900481019282601f1061247f57805160ff19168380011785556124ad565b828001600101855582156124ad579182015b828111156124ac578251825591602001919060010190612491565b5b5090506124ba91906124be565b5090565b6124e091905b808211156124dc5760008160009055506001016124c4565b5090565b90565b60006124ef8235612e74565b905092915050565b600082601f830112151561250a57600080fd5b813561251d61251882612dcf565b612da2565b9150808252602083016020830185838301111561253957600080fd5b612544838284612e90565b50505092915050565b60006125598235612e86565b905092915050565b60006020828403121561257357600080fd5b600082013567ffffffffffffffff81111561258d57600080fd5b612599848285016124f7565b91505092915050565b600080604083850312156125b557600080fd5b600083013567ffffffffffffffff8111156125cf57600080fd5b6125db858286016124f7565b92505060206125ec858286016124e3565b9150509250929050565b6000806040838503121561260957600080fd5b600083013567ffffffffffffffff81111561262357600080fd5b61262f858286016124f7565b925050602083013567ffffffffffffffff81111561264c57600080fd5b612658858286016124f7565b9150509250929050565b600080600080600060a0868803121561267a57600080fd5b600086013567ffffffffffffffff81111561269457600080fd5b6126a0888289016124f7565b955050602086013567ffffffffffffffff8111156126bd57600080fd5b6126c9888289016124f7565b945050604086013567ffffffffffffffff8111156126e657600080fd5b6126f2888289016124f7565b935050606086013567ffffffffffffffff81111561270f57600080fd5b61271b888289016124f7565b925050608086013567ffffffffffffffff81111561273857600080fd5b612744888289016124f7565b9150509295509295909350565b60006020828403121561276357600080fd5b60006127718482850161254d565b91505092915050565b61278381612e36565b82525050565b600061279482612e08565b808452602084019350836020820285016127ad85612dfb565b60005b848110156127e65783830388526127c883835161283c565b92506127d382612e29565b91506020880197506001810190506127b0565b508196508694505050505092915050565b61280081612e48565b82525050565b600061281182612e1e565b808452612825816020860160208601612e9f565b61282e81612ed2565b602085010191505092915050565b600061284782612e13565b80845261285b816020860160208601612e9f565b61286481612ed2565b602085010191505092915050565b6000601b82527f496e6a6563746f7220697320616c7265616479206578697374656400000000006020830152604082019050919050565b6000602082527f56616363696e6520646f736520697320616c726561647920657869737465642e6020830152604082019050919050565b6000601f82527f436572746966696361746520697320616c726561647920657869737465642e006020830152604082019050919050565b6000601c82527f4d65646963616c20756e6974206973206e6f74206d6174636865642e000000006020830152604082019050919050565b6000601682527f446f63746f72206973206e6f7420657869737465642e000000000000000000006020830152604082019050919050565b6000601982527f446f63746f7220697320616c72656164792065786973746564000000000000006020830152604082019050919050565b6000601c82527f4d65646963616c20756e6974206973206e6f7420657869737465642e000000006020830152604082019050919050565b6000601882527f496e6a6563746f72206973206e6f7420657869737465642e00000000000000006020830152604082019050919050565b6000603282527f56616363696e6520646f736520646f6573206e6f742062656c6f6e6720746f2060208301527f74686973204d65646963616c20556e69742e00000000000000000000000000006040830152606082019050919050565b6000602282527f56616363696e6520646f736520697320756e65786973746564206f722075736560208301527f642e0000000000000000000000000000000000000000000000000000000000006040830152606082019050919050565b6000602082527f4d65646963616c20756e697420697320616c726561647920657869737465642e6020830152604082019050919050565b6000603382527f546869732066756e6374696f6e206973207265737472696374656420746f207460208301527f686520636f6e74726163742773206f776e6572000000000000000000000000006040830152606082019050919050565b6000602082019050612b8d600083018461277a565b92915050565b60006020820190508181036000830152612bad8184612789565b905092915050565b6000602082019050612bca60008301846127f7565b92915050565b60006020820190508181036000830152612bea818461283c565b905092915050565b60006040820190508181036000830152612c0c8185612806565b9050612c1b602083018461277a565b9392505050565b60006020820190508181036000830152612c3b81612872565b9050919050565b60006020820190508181036000830152612c5b816128a9565b9050919050565b60006020820190508181036000830152612c7b816128e0565b9050919050565b60006020820190508181036000830152612c9b81612917565b9050919050565b60006020820190508181036000830152612cbb8161294e565b9050919050565b60006020820190508181036000830152612cdb81612985565b9050919050565b60006020820190508181036000830152612cfb816129bc565b9050919050565b60006020820190508181036000830152612d1b816129f3565b9050919050565b60006020820190508181036000830152612d3b81612a2a565b9050919050565b60006020820190508181036000830152612d5b81612a87565b9050919050565b60006020820190508181036000830152612d7b81612ae4565b9050919050565b60006020820190508181036000830152612d9b81612b1b565b9050919050565b6000604051905081810181811067ffffffffffffffff82111715612dc557600080fd5b8060405250919050565b600067ffffffffffffffff821115612de657600080fd5b601f19601f8301169050602081019050919050565b6000602082019050919050565b600081519050919050565b600081519050919050565b600081519050919050565b6000602082019050919050565b6000612e4182612e54565b9050919050565b60008115159050919050565b600073ffffffffffffffffffffffffffffffffffffffff82169050919050565b6000612e7f82612e54565b9050919050565b6000819050919050565b82818337600083830152505050565b60005b83811015612ebd578082015181840152602081019050612ea2565b83811115612ecc576000848401525b50505050565b6000601f19601f830116905091905056fea265627a7a723058205b217a648b5c329afd2b924801fe6342386209fcb9cd783f16b6959f5aaa20be6c6578706572696d656e74616cf50037",
  "source": "// SPDX-License-Identifier: UNLICENSED\npragma solidity >=0.5.0;\npragma experimental ABIEncoderV2;\n\ncontract PethernetContract {\n    // Ministry of Health's account address \n    address public ministryOfHealthAddr = msg.sender;\n    string[] public medicalUnitsList;\n    string[] public vaccineDosesList;\n    string[] public certificatesList;\n    string[] public doctorsList;\n    string[] public injectorsList;\n\n    // Medical Unit hash => Medical Unit account address\n    mapping (string => address) medicalUnits;\n    // Vaccine Dose hash => address of owner (Medical Unit or by default Ministry of Health)\n    mapping (string => address) vaccineDoses;\n    // Certificate hash => Medical Unit address account\n    mapping (string => Certificate) certificates;\n\n    // Doctor hash => existed?\n    mapping (string => bool) doctors;\n    // Injector hash => existed?\n    mapping (string => bool) injectors;\n\n    /** Event */\n    event MedicalUnitAddedEvent(string _medicalUnitHash, address _medicalUnitAddr);\n\n    modifier ministryOfHealthRestricted() {\n        require(\n            msg.sender == ministryOfHealthAddr,\n            \"This function is restricted to the contract's owner\"\n        );\n        _;\n    }\n\n    struct Certificate {\n        address issuer; // Medical unit address\n        string injector;\n        string doctor;\n        string vaccineDose;\n    }\n\n    function addMedicalUnit(string memory _medicalUnitHash, address _medicalUnitOriginAddr) public ministryOfHealthRestricted {\n        require(\n            medicalUnits[_medicalUnitHash] == address(0),\n            \"Medical unit is already existed.\"\n        );\n        \n        medicalUnitsList.push(_medicalUnitHash);\n        medicalUnits[_medicalUnitHash] = _medicalUnitOriginAddr;\n\n        emit MedicalUnitAddedEvent(_medicalUnitHash, _medicalUnitOriginAddr);\n    }\n\n    function addVaccineDose(string memory _vaccineDoseHash) public ministryOfHealthRestricted {\n        require(\n            vaccineDoses[_vaccineDoseHash] == address(0),\n            \"Vaccine dose is already existed.\"\n        );\n\n        vaccineDosesList.push(_vaccineDoseHash);\n        vaccineDoses[_vaccineDoseHash] = ministryOfHealthAddr;\n    }\n\n    function distributeVaccineDose(string memory _vaccineDoseHash, string memory _medicalUnitHash) public ministryOfHealthRestricted {\n        require(\n            medicalUnits[_medicalUnitHash] != address(0),\n            \"Medical unit is not existed.\"\n        );\n        require(\n            vaccineDoses[_vaccineDoseHash] == ministryOfHealthAddr,\n            \"Vaccine dose is unexisted or used.\"\n        );\n\n        vaccineDoses[_vaccineDoseHash] = medicalUnits[_medicalUnitHash];\n    }\n\n    function addDoctor(string memory _doctorHash) public {\n        require(\n            doctors[_doctorHash] == false,\n            \"Doctor is already existed\"\n        );\n\n        doctorsList.push(_doctorHash);\n        doctors[_doctorHash] = true;\n    }\n\n    function addInjector(string memory _injectorHash) public {\n        require(\n            injectors[_injectorHash] == false,\n            \"Injector is already existed\"\n        );\n\n        injectorsList.push(_injectorHash);\n        injectors[_injectorHash] = true;\n    }\n\n    function issueCertificate(\n        string memory _medicalUnitHash,\n        string memory _injectorHash,\n        string memory _doctorHash,\n        string memory _vaccineDoseHash,\n        string memory _certificateHash) public {\n        require(\n            medicalUnits[_medicalUnitHash] == msg.sender,\n            \"Medical unit is not matched.\"\n        );\n        require(\n            injectors[_injectorHash] == true,\n            \"Injector is not existed.\"\n        );\n        require(\n            doctors[_doctorHash] == true,\n            \"Doctor is not existed.\"\n        );\n        require(\n            vaccineDoses[_vaccineDoseHash] == medicalUnits[_medicalUnitHash],\n            \"Vaccine dose does not belong to this Medical Unit.\"\n        );\n        require(\n            certificates[_certificateHash].issuer == address(0),\n            \"Certificate is already existed.\"\n        );\n        \n        certificates[_certificateHash] = Certificate(msg.sender, _injectorHash, _doctorHash, _vaccineDoseHash);\n    }\n\n    /* Check functions */\n\n    function checkDoctor(string memory _doctorHash) public view returns(bool isExisted) {\n        isExisted = doctors[_doctorHash];\n    }\n\n    function checkInjector(string memory _injectorHash) public view returns(bool isExisted) {\n        isExisted = injectors[_injectorHash];\n    }\n\n    function checkCertificate(string memory _certificateHash) public view returns(bool isExisted) {\n        isExisted = certificates[_certificateHash].issuer != address(0);\n    }\n\n    function checkVaccineDose(string memory _vaccineDoseHash) public view returns(bool isExisted) {\n        isExisted = vaccineDoses[_vaccineDoseHash] != address(0);\n    }\n\n    function checkMedicalUnit(string memory _medicalUnitHash) public view returns(bool isExisted) {\n        isExisted = medicalUnits[_medicalUnitHash] != address(0);\n    }\n\n    function vaccineDosesListGetter() public view returns (string[] memory) {\n        return vaccineDosesList;\n    }\n\n    function medicalUnitsListGetter() public view returns (string[] memory) {\n        return medicalUnitsList;\n    }\n\n    function certificatesListGetter() public view returns (string[] memory) {\n        return certificatesList;\n    }\n\n    function doctorsListGetter() public view returns (string[] memory) {\n        return doctorsList;\n    }\n\n    function injectorsListGetter() public view returns (string[] memory) {\n        return injectorsList;\n    }\n}",
  "sourcePath": "/Users/steven/Github/pethernet/contracts/PethernetContract.sol",
  "compiler": {
    "name": "solc",
    "version": "0.5.0+commit.1d4f565a.Emscripten.clang"
  },
  "schemaVersion": "3.0.1",
  "updatedAt": "2021-08-14T11:07:17.373Z",
  "devdoc": {
    "methods": {}
  },
  "userdoc": {
    "methods": {}
  }
}