{
  "contractName": "PethernetContract",
  "abi": [
    {
      "constant": true,
      "inputs": [],
      "name": "ministryOfHealthAddr",
      "outputs": [
        {
          "name": "",
          "type": "address"
        }
      ],
      "payable": false,
      "stateMutability": "view",
      "type": "function",
      "signature": "0x34d78caa"
    },
    {
      "constant": true,
      "inputs": [
        {
          "name": "",
          "type": "uint256"
        }
      ],
      "name": "vaccineDoses",
      "outputs": [
        {
          "name": "",
          "type": "string"
        }
      ],
      "payable": false,
      "stateMutability": "view",
      "type": "function",
      "signature": "0xbd5d257f"
    },
    {
      "constant": false,
      "inputs": [
        {
          "name": "_vaccineDoseHash",
          "type": "string"
        }
      ],
      "name": "addVaccineDose",
      "outputs": [],
      "payable": false,
      "stateMutability": "nonpayable",
      "type": "function",
      "signature": "0x40d58494"
    },
    {
      "constant": true,
      "inputs": [],
      "name": "getVaccineDose",
      "outputs": [
        {
          "name": "_vaccineDoses",
          "type": "uint256"
        }
      ],
      "payable": false,
      "stateMutability": "view",
      "type": "function",
      "signature": "0x180b4780"
    }
  ],
  "bytecode": "0x6080604052336000806101000a81548173ffffffffffffffffffffffffffffffffffffffff021916908373ffffffffffffffffffffffffffffffffffffffff16021790555034801561005057600080fd5b5061054f806100606000396000f3fe608060405260043610610062576000357c0100000000000000000000000000000000000000000000000000000000900463ffffffff168063180b47801461006757806334d78caa1461009257806340d58494146100e9578063bd5d257f146101b1575b600080fd5b34801561007357600080fd5b5061007c610265565b6040518082815260200191505060405180910390f35b34801561009e57600080fd5b506100a7610272565b604051808273ffffffffffffffffffffffffffffffffffffffff1673ffffffffffffffffffffffffffffffffffffffff16815260200191505060405180910390f35b3480156100f557600080fd5b506101af6004803603602081101561010c57600080fd5b810190808035906020019064010000000081111561012957600080fd5b82018360208201111561013b57600080fd5b8035906020019184600183028401116401000000008311171561015d57600080fd5b91908080601f016020809104026020016040519081016040528093929190818152602001838380828437600081840152601f19601f820116905080830192505050505050509192919290505050610297565b005b3480156101bd57600080fd5b506101ea600480360360208110156101d457600080fd5b81019080803590602001909291905050506103c3565b6040518080602001828103825283818151815260200191508051906020019080838360005b8381101561022a57808201518184015260208101905061020f565b50505050905090810190601f1680156102575780820380516001836020036101000a031916815260200191505b509250505060405180910390f35b6000600180549050905090565b6000809054906101000a900473ffffffffffffffffffffffffffffffffffffffff1681565b6000809054906101000a900473ffffffffffffffffffffffffffffffffffffffff1673ffffffffffffffffffffffffffffffffffffffff163373ffffffffffffffffffffffffffffffffffffffff16141515610381576040517f08c379a00000000000000000000000000000000000000000000000000000000081526004018080602001828103825260338152602001807f546869732066756e6374696f6e206973207265737472696374656420746f207481526020017f686520636f6e74726163742773206f776e65720000000000000000000000000081525060400191505060405180910390fd5b60018190806001815401808255809150509060018203906000526020600020016000909192909190915090805190602001906103be92919061047e565b505050565b6001818154811015156103d257fe5b906000526020600020016000915090508054600181600116156101000203166002900480601f0160208091040260200160405190810160405280929190818152602001828054600181600116156101000203166002900480156104765780601f1061044b57610100808354040283529160200191610476565b820191906000526020600020905b81548152906001019060200180831161045957829003601f168201915b505050505081565b828054600181600116156101000203166002900490600052602060002090601f016020900481019282601f106104bf57805160ff19168380011785556104ed565b828001600101855582156104ed579182015b828111156104ec5782518255916020019190600101906104d1565b5b5090506104fa91906104fe565b5090565b61052091905b8082111561051c576000816000905550600101610504565b5090565b9056fea165627a7a72305820a7d32d17f350fc862065577df0c959cdd3387e81abb08a6f87db8bb7db77e96b0029",
  "source": "// SPDX-License-Identifier: UNLICENSED\npragma solidity >=0.5.0;\n\ncontract PethernetContract {\n    address public ministryOfHealthAddr = msg.sender;\n    string[] public vaccineDoses;\n\n    modifier restricted() {\n        require(\n            msg.sender == ministryOfHealthAddr,\n            \"This function is restricted to the contract's owner\"\n        );\n        _;\n    }\n\n    function addVaccineDose(string memory _vaccineDoseHash) public restricted {\n        vaccineDoses.push(_vaccineDoseHash);\n    }\n\n    function getVaccineDose() public view returns(uint _vaccineDoses) {\n        _vaccineDoses = vaccineDoses.length;\n    }\n}",
  "sourcePath": "/Users/steven/Github/pethernet/contracts/PethernetContract.sol",
  "compiler": {
    "name": "solc",
    "version": "0.5.0+commit.1d4f565a.Emscripten.clang"
  },
  "schemaVersion": "3.0.1",
  "updatedAt": "2021-08-08T15:11:36.424Z",
  "devdoc": {
    "methods": {}
  },
  "userdoc": {
    "methods": {}
  }
}