{
  "contractName": "PethernetContract",
  "abi": [
    {
      "constant": true,
      "inputs": [
        {
          "name": "",
          "type": "uint256"
        }
      ],
      "name": "vaccineDosesList",
      "outputs": [
        {
          "name": "",
          "type": "string"
        }
      ],
      "payable": false,
      "stateMutability": "view",
      "type": "function",
      "signature": "0x2ae66be7"
    },
    {
      "constant": true,
      "inputs": [],
      "name": "ministryOfHealthAddr",
      "outputs": [
        {
          "name": "",
          "type": "address"
        }
      ],
      "payable": false,
      "stateMutability": "view",
      "type": "function",
      "signature": "0x34d78caa"
    },
    {
      "constant": true,
      "inputs": [
        {
          "name": "",
          "type": "uint256"
        }
      ],
      "name": "certificatesList",
      "outputs": [
        {
          "name": "",
          "type": "string"
        }
      ],
      "payable": false,
      "stateMutability": "view",
      "type": "function",
      "signature": "0x5397a28c"
    },
    {
      "constant": true,
      "inputs": [
        {
          "name": "",
          "type": "uint256"
        }
      ],
      "name": "medicalUnitsList",
      "outputs": [
        {
          "name": "",
          "type": "string"
        }
      ],
      "payable": false,
      "stateMutability": "view",
      "type": "function",
      "signature": "0xed893f09"
    },
    {
      "anonymous": false,
      "inputs": [
        {
          "indexed": false,
          "name": "_medicalUnitHash",
          "type": "string"
        },
        {
          "indexed": false,
          "name": "_medicalUnitAddr",
          "type": "address"
        }
      ],
      "name": "MedicalUnitAddedEvent",
      "type": "event",
      "signature": "0x82dd01867fa73ce6c638aeacccb554275d4894bbbeb7d4bf1d27ebd918a3a9aa"
    },
    {
      "anonymous": false,
      "inputs": [
        {
          "indexed": false,
          "name": "_vaccineDoseHash",
          "type": "string"
        }
      ],
      "name": "VaccinDoseAddedEvent",
      "type": "event",
      "signature": "0xb5ee440dd578e99e26b7c83afcb6e6129db0faa05d5fb3d0729551f6172594a4"
    },
    {
      "anonymous": false,
      "inputs": [
        {
          "indexed": false,
          "name": "_vaccineDoseHash",
          "type": "string"
        },
        {
          "indexed": false,
          "name": "_medicalUnitHash",
          "type": "string"
        }
      ],
      "name": "DistributedVaccinDoseAddedEvent",
      "type": "event",
      "signature": "0xbfaef94abcbed191ebcfcfc55578153dcecadb2913544a018b7041daa5d70241"
    },
    {
      "anonymous": false,
      "inputs": [
        {
          "indexed": false,
          "name": "_certificateHash",
          "type": "string"
        },
        {
          "indexed": false,
          "name": "_patientHash",
          "type": "string"
        }
      ],
      "name": "IssuedCertEvent",
      "type": "event",
      "signature": "0x2aff0832b2fb3e9ea2dab4ecec571ad82eae6f290d51e2f66856c228652b8a31"
    },
    {
      "constant": false,
      "inputs": [
        {
          "name": "_medicalUnitHash",
          "type": "string"
        },
        {
          "name": "_medicalUnitOriginAddr",
          "type": "address"
        }
      ],
      "name": "addMedicalUnit",
      "outputs": [],
      "payable": false,
      "stateMutability": "nonpayable",
      "type": "function",
      "signature": "0x1e9ce79a"
    },
    {
      "constant": false,
      "inputs": [
        {
          "name": "_vaccineDoseHash",
          "type": "string"
        }
      ],
      "name": "addVaccineDose",
      "outputs": [],
      "payable": false,
      "stateMutability": "nonpayable",
      "type": "function",
      "signature": "0x40d58494"
    },
    {
      "constant": false,
      "inputs": [
        {
          "name": "_medicalUnitHash",
          "type": "string"
        },
        {
          "name": "_vaccineDoseHashes",
          "type": "string[]"
        }
      ],
      "name": "distributeVaccineDoses",
      "outputs": [],
      "payable": false,
      "stateMutability": "nonpayable",
      "type": "function",
      "signature": "0x8506f463"
    },
    {
      "constant": false,
      "inputs": [
        {
          "name": "_medicalUnitHash",
          "type": "string"
        },
        {
          "name": "_patientHash",
          "type": "string"
        },
        {
          "name": "_vaccineDoseHash",
          "type": "string"
        },
        {
          "name": "_certificateHash",
          "type": "string"
        }
      ],
      "name": "issueCertificate",
      "outputs": [],
      "payable": false,
      "stateMutability": "nonpayable",
      "type": "function",
      "signature": "0x818a2994"
    },
    {
      "constant": true,
      "inputs": [
        {
          "name": "_vaccineDoseHash",
          "type": "string"
        }
      ],
      "name": "checkVaccineDose",
      "outputs": [
        {
          "name": "_owner",
          "type": "address"
        }
      ],
      "payable": false,
      "stateMutability": "view",
      "type": "function",
      "signature": "0x37ebc7f0"
    },
    {
      "constant": true,
      "inputs": [
        {
          "name": "_medicalUnitHash",
          "type": "string"
        }
      ],
      "name": "checkMedicalUnit",
      "outputs": [
        {
          "name": "_owner",
          "type": "address"
        }
      ],
      "payable": false,
      "stateMutability": "view",
      "type": "function",
      "signature": "0x9473191a"
    },
    {
      "constant": true,
      "inputs": [
        {
          "name": "_certificateHash",
          "type": "string"
        }
      ],
      "name": "checkCertificate",
      "outputs": [
        {
          "components": [
            {
              "name": "issuer",
              "type": "string"
            },
            {
              "name": "issuerAddr",
              "type": "address"
            },
            {
              "name": "patient",
              "type": "string"
            },
            {
              "name": "vaccineDose",
              "type": "string"
            }
          ],
          "name": "",
          "type": "tuple"
        }
      ],
      "payable": false,
      "stateMutability": "view",
      "type": "function",
      "signature": "0xffbd4dd5"
    },
    {
      "constant": true,
      "inputs": [],
      "name": "vaccineDosesListGetter",
      "outputs": [
        {
          "name": "",
          "type": "string[]"
        }
      ],
      "payable": false,
      "stateMutability": "view",
      "type": "function",
      "signature": "0x64d25fec"
    },
    {
      "constant": true,
      "inputs": [],
      "name": "medicalUnitsListGetter",
      "outputs": [
        {
          "name": "",
          "type": "string[]"
        }
      ],
      "payable": false,
      "stateMutability": "view",
      "type": "function",
      "signature": "0x71a185f0"
    }
  ],
  "bytecode": "0x6080604052336000806101000a81548173ffffffffffffffffffffffffffffffffffffffff021916908373ffffffffffffffffffffffffffffffffffffffff16021790555034801561005057600080fd5b50612710806100606000396000f3fe6080604052600436106100c5576000357c0100000000000000000000000000000000000000000000000000000000900463ffffffff1680631e9ce79a146100ca5780632ae66be7146100f357806334d78caa1461013057806337ebc7f01461015b57806340d58494146101985780635397a28c146101c157806364d25fec146101fe57806371a185f014610229578063818a2994146102545780638506f4631461027d5780639473191a146102a6578063ed893f09146102e3578063ffbd4dd514610320575b600080fd5b3480156100d657600080fd5b506100f160048036036100ec9190810190611d5f565b61035d565b005b3480156100ff57600080fd5b5061011a60048036036101159190810190611ee2565b610610565b6040516101279190612329565b60405180910390f35b34801561013c57600080fd5b506101456106cb565b60405161015291906122ec565b60405180910390f35b34801561016757600080fd5b50610182600480360361017d9190810190611d1e565b6106f0565b60405161018f91906122ec565b60405180910390f35b3480156101a457600080fd5b506101bf60048036036101ba9190810190611d1e565b610785565b005b3480156101cd57600080fd5b506101e860048036036101e39190810190611ee2565b610a56565b6040516101f59190612329565b60405180910390f35b34801561020a57600080fd5b50610213610b11565b6040516102209190612307565b60405180910390f35b34801561023557600080fd5b5061023e610bfa565b60405161024b9190612307565b60405180910390f35b34801561026057600080fd5b5061027b60048036036102769190810190611e1f565b610ce3565b005b34801561028957600080fd5b506102a4600480360361029f9190810190611db3565b61119a565b005b3480156102b257600080fd5b506102cd60048036036102c89190810190611d1e565b61165e565b6040516102da91906122ec565b60405180910390f35b3480156102ef57600080fd5b5061030a60048036036103059190810190611ee2565b6116f3565b6040516103179190612329565b60405180910390f35b34801561032c57600080fd5b5061034760048036036103429190810190611d1e565b6117ae565b604051610354919061252b565b60405180910390f35b6000809054906101000a900473ffffffffffffffffffffffffffffffffffffffff1673ffffffffffffffffffffffffffffffffffffffff163373ffffffffffffffffffffffffffffffffffffffff161415156103ee576040517f08c379a00000000000000000000000000000000000000000000000000000000081526004016103e59061250b565b60405180910390fd5b600073ffffffffffffffffffffffffffffffffffffffff166004836040518082805190602001908083835b60208310151561043e5780518252602082019150602081019050602083039250610419565b6001836020036101000a038019825116818451168082178552505050505050905001915050908152602001604051809103902060009054906101000a900473ffffffffffffffffffffffffffffffffffffffff1673ffffffffffffffffffffffffffffffffffffffff161415156104ea576040517f08c379a00000000000000000000000000000000000000000000000000000000081526004016104e1906124eb565b60405180910390fd5b6001829080600181540180825580915050906001820390600052602060002001600090919290919091509080519060200190610527929190611a70565b5050806004836040518082805190602001908083835b602083101515610562578051825260208201915060208101905060208303925061053d565b6001836020036101000a038019825116818451168082178552505050505050905001915050908152602001604051809103902060006101000a81548173ffffffffffffffffffffffffffffffffffffffff021916908373ffffffffffffffffffffffffffffffffffffffff1602179055507f82dd01867fa73ce6c638aeacccb554275d4894bbbeb7d4bf1d27ebd918a3a9aa828260405161060492919061236d565b60405180910390a15050565b60028181548110151561061f57fe5b906000526020600020016000915090508054600181600116156101000203166002900480601f0160208091040260200160405190810160405280929190818152602001828054600181600116156101000203166002900480156106c35780601f10610698576101008083540402835291602001916106c3565b820191906000526020600020905b8154815290600101906020018083116106a657829003601f168201915b505050505081565b6000809054906101000a900473ffffffffffffffffffffffffffffffffffffffff1681565b60006005826040518082805190602001908083835b60208310151561072a5780518252602082019150602081019050602083039250610705565b6001836020036101000a038019825116818451168082178552505050505050905001915050908152602001604051809103902060009054906101000a900473ffffffffffffffffffffffffffffffffffffffff169050919050565b6000809054906101000a900473ffffffffffffffffffffffffffffffffffffffff1673ffffffffffffffffffffffffffffffffffffffff163373ffffffffffffffffffffffffffffffffffffffff16141515610816576040517f08c379a000000000000000000000000000000000000000000000000000000000815260040161080d9061250b565b60405180910390fd5b600073ffffffffffffffffffffffffffffffffffffffff166005826040518082805190602001908083835b6020831015156108665780518252602082019150602081019050602083039250610841565b6001836020036101000a038019825116818451168082178552505050505050905001915050908152602001604051809103902060009054906101000a900473ffffffffffffffffffffffffffffffffffffffff1673ffffffffffffffffffffffffffffffffffffffff16141515610912576040517f08c379a00000000000000000000000000000000000000000000000000000000081526004016109099061240b565b60405180910390fd5b600281908060018154018082558091505090600182039060005260206000200160009091929091909150908051906020019061094f929190611a70565b50506000809054906101000a900473ffffffffffffffffffffffffffffffffffffffff166005826040518082805190602001908083835b6020831015156109ab5780518252602082019150602081019050602083039250610986565b6001836020036101000a038019825116818451168082178552505050505050905001915050908152602001604051809103902060006101000a81548173ffffffffffffffffffffffffffffffffffffffff021916908373ffffffffffffffffffffffffffffffffffffffff1602179055507fb5ee440dd578e99e26b7c83afcb6e6129db0faa05d5fb3d0729551f6172594a481604051610a4b919061234b565b60405180910390a150565b600381815481101515610a6557fe5b906000526020600020016000915090508054600181600116156101000203166002900480601f016020809104026020016040519081016040528092919081815260200182805460018160011615610100020316600290048015610b095780601f10610ade57610100808354040283529160200191610b09565b820191906000526020600020905b815481529060010190602001808311610aec57829003601f168201915b505050505081565b60606002805480602002602001604051908101604052809291908181526020016000905b82821015610bf1578382906000526020600020018054600181600116156101000203166002900480601f016020809104026020016040519081016040528092919081815260200182805460018160011615610100020316600290048015610bdd5780601f10610bb257610100808354040283529160200191610bdd565b820191906000526020600020905b815481529060010190602001808311610bc057829003601f168201915b505050505081526020019060010190610b35565b50505050905090565b60606001805480602002602001604051908101604052809291908181526020016000905b82821015610cda578382906000526020600020018054600181600116156101000203166002900480601f016020809104026020016040519081016040528092919081815260200182805460018160011615610100020316600290048015610cc65780601f10610c9b57610100808354040283529160200191610cc6565b820191906000526020600020905b815481529060010190602001808311610ca957829003601f168201915b505050505081526020019060010190610c1e565b50505050905090565b3373ffffffffffffffffffffffffffffffffffffffff166004856040518082805190602001908083835b602083101515610d325780518252602082019150602081019050602083039250610d0d565b6001836020036101000a038019825116818451168082178552505050505050905001915050908152602001604051809103902060009054906101000a900473ffffffffffffffffffffffffffffffffffffffff1673ffffffffffffffffffffffffffffffffffffffff16141515610dde576040517f08c379a0000000000000000000000000000000000000000000000000000000008152600401610dd59061244b565b60405180910390fd5b3373ffffffffffffffffffffffffffffffffffffffff166005836040518082805190602001908083835b602083101515610e2d5780518252602082019150602081019050602083039250610e08565b6001836020036101000a038019825116818451168082178552505050505050905001915050908152602001604051809103902060009054906101000a900473ffffffffffffffffffffffffffffffffffffffff1673ffffffffffffffffffffffffffffffffffffffff16141515610ed9576040517f08c379a0000000000000000000000000000000000000000000000000000000008152600401610ed0906124ab565b60405180910390fd5b600073ffffffffffffffffffffffffffffffffffffffff166006826040518082805190602001908083835b602083101515610f295780518252602082019150602081019050602083039250610f04565b6001836020036101000a038019825116818451168082178552505050505050905001915050908152602001604051809103902060010160009054906101000a900473ffffffffffffffffffffffffffffffffffffffff1673ffffffffffffffffffffffffffffffffffffffff16141515610fd8576040517f08c379a0000000000000000000000000000000000000000000000000000000008152600401610fcf9061242b565b60405180910390fd5b6003819080600181540180825580915050906001820390600052602060002001600090919290919091509080519060200190611015929190611a70565b50506080604051908101604052808581526020013373ffffffffffffffffffffffffffffffffffffffff168152602001848152602001838152506006826040518082805190602001908083835b6020831015156110875780518252602082019150602081019050602083039250611062565b6001836020036101000a038019825116818451168082178552505050505050905001915050908152602001604051809103902060008201518160000190805190602001906110d6929190611af0565b5060208201518160010160006101000a81548173ffffffffffffffffffffffffffffffffffffffff021916908373ffffffffffffffffffffffffffffffffffffffff160217905550604082015181600201908051906020019061113a929190611af0565b506060820151816003019080519060200190611157929190611af0565b509050507f2aff0832b2fb3e9ea2dab4ecec571ad82eae6f290d51e2f66856c228652b8a31818460405161118c92919061239d565b60405180910390a150505050565b6000809054906101000a900473ffffffffffffffffffffffffffffffffffffffff1673ffffffffffffffffffffffffffffffffffffffff163373ffffffffffffffffffffffffffffffffffffffff1614151561122b576040517f08c379a00000000000000000000000000000000000000000000000000000000081526004016112229061250b565b60405180910390fd5b600073ffffffffffffffffffffffffffffffffffffffff166004836040518082805190602001908083835b60208310151561127b5780518252602082019150602081019050602083039250611256565b6001836020036101000a038019825116818451168082178552505050505050905001915050908152602001604051809103902060009054906101000a900473ffffffffffffffffffffffffffffffffffffffff1673ffffffffffffffffffffffffffffffffffffffff1614151515611328576040517f08c379a000000000000000000000000000000000000000000000000000000000815260040161131f9061246b565b60405180910390fd5b6000815111151561136e576040517f08c379a00000000000000000000000000000000000000000000000000000000081526004016113659061248b565b60405180910390fd5b60008090505b8151811015611659576000809054906101000a900473ffffffffffffffffffffffffffffffffffffffff1673ffffffffffffffffffffffffffffffffffffffff16600583838151811015156113c557fe5b906020019060200201516040518082805190602001908083835b60208310151561140457805182526020820191506020810190506020830392506113df565b6001836020036101000a038019825116818451168082178552505050505050905001915050908152602001604051809103902060009054906101000a900473ffffffffffffffffffffffffffffffffffffffff1673ffffffffffffffffffffffffffffffffffffffff161415156114b0576040517f08c379a00000000000000000000000000000000000000000000000000000000081526004016114a7906124cb565b60405180910390fd5b6004836040518082805190602001908083835b6020831015156114e857805182526020820191506020810190506020830392506114c3565b6001836020036101000a038019825116818451168082178552505050505050905001915050908152602001604051809103902060009054906101000a900473ffffffffffffffffffffffffffffffffffffffff166005838381518110151561154c57fe5b906020019060200201516040518082805190602001908083835b60208310151561158b5780518252602082019150602081019050602083039250611566565b6001836020036101000a038019825116818451168082178552505050505050905001915050908152602001604051809103902060006101000a81548173ffffffffffffffffffffffffffffffffffffffff021916908373ffffffffffffffffffffffffffffffffffffffff1602179055507fbfaef94abcbed191ebcfcfc55578153dcecadb2913544a018b7041daa5d70241828281518110151561162b57fe5b90602001906020020151846040516116449291906123d4565b60405180910390a18080600101915050611374565b505050565b60006004826040518082805190602001908083835b6020831015156116985780518252602082019150602081019050602083039250611673565b6001836020036101000a038019825116818451168082178552505050505050905001915050908152602001604051809103902060009054906101000a900473ffffffffffffffffffffffffffffffffffffffff169050919050565b60018181548110151561170257fe5b906000526020600020016000915090508054600181600116156101000203166002900480601f0160208091040260200160405190810160405280929190818152602001828054600181600116156101000203166002900480156117a65780601f1061177b576101008083540402835291602001916117a6565b820191906000526020600020905b81548152906001019060200180831161178957829003601f168201915b505050505081565b6117b6611b70565b6006826040518082805190602001908083835b6020831015156117ee57805182526020820191506020810190506020830392506117c9565b6001836020036101000a038019825116818451168082178552505050505050905001915050908152602001604051809103902060806040519081016040529081600082018054600181600116156101000203166002900480601f0160208091040260200160405190810160405280929190818152602001828054600181600116156101000203166002900480156118c65780601f1061189b576101008083540402835291602001916118c6565b820191906000526020600020905b8154815290600101906020018083116118a957829003601f168201915b505050505081526020016001820160009054906101000a900473ffffffffffffffffffffffffffffffffffffffff1673ffffffffffffffffffffffffffffffffffffffff1673ffffffffffffffffffffffffffffffffffffffff168152602001600282018054600181600116156101000203166002900480601f0160208091040260200160405190810160405280929190818152602001828054600181600116156101000203166002900480156119be5780601f10611993576101008083540402835291602001916119be565b820191906000526020600020905b8154815290600101906020018083116119a157829003601f168201915b50505050508152602001600382018054600181600116156101000203166002900480601f016020809104026020016040519081016040528092919081815260200182805460018160011615610100020316600290048015611a605780601f10611a3557610100808354040283529160200191611a60565b820191906000526020600020905b815481529060010190602001808311611a4357829003601f168201915b5050505050815250509050919050565b828054600181600116156101000203166002900490600052602060002090601f016020900481019282601f10611ab157805160ff1916838001178555611adf565b82800160010185558215611adf579182015b82811115611ade578251825591602001919060010190611ac3565b5b509050611aec9190611baf565b5090565b828054600181600116156101000203166002900490600052602060002090601f016020900481019282601f10611b3157805160ff1916838001178555611b5f565b82800160010185558215611b5f579182015b82811115611b5e578251825591602001919060010190611b43565b5b509050611b6c9190611baf565b5090565b60806040519081016040528060608152602001600073ffffffffffffffffffffffffffffffffffffffff16815260200160608152602001606081525090565b611bd191905b80821115611bcd576000816000905550600101611bb5565b5090565b90565b6000611be08235612667565b905092915050565b600082601f8301121515611bfb57600080fd5b8135611c0e611c098261257a565b61254d565b9150818183526020840193506020810190508360005b83811015611c545781358601611c3a8882611c5e565b845260208401935060208301925050600181019050611c24565b5050505092915050565b600082601f8301121515611c7157600080fd5b8135611c84611c7f826125a2565b61254d565b91508082526020830160208301858383011115611ca057600080fd5b611cab838284612683565b50505092915050565b600082601f8301121515611cc757600080fd5b8135611cda611cd5826125ce565b61254d565b91508082526020830160208301858383011115611cf657600080fd5b611d01838284612683565b50505092915050565b6000611d168235612679565b905092915050565b600060208284031215611d3057600080fd5b600082013567ffffffffffffffff811115611d4a57600080fd5b611d5684828501611cb4565b91505092915050565b60008060408385031215611d7257600080fd5b600083013567ffffffffffffffff811115611d8c57600080fd5b611d9885828601611cb4565b9250506020611da985828601611bd4565b9150509250929050565b60008060408385031215611dc657600080fd5b600083013567ffffffffffffffff811115611de057600080fd5b611dec85828601611cb4565b925050602083013567ffffffffffffffff811115611e0957600080fd5b611e1585828601611be8565b9150509250929050565b60008060008060808587031215611e3557600080fd5b600085013567ffffffffffffffff811115611e4f57600080fd5b611e5b87828801611cb4565b945050602085013567ffffffffffffffff811115611e7857600080fd5b611e8487828801611cb4565b935050604085013567ffffffffffffffff811115611ea157600080fd5b611ead87828801611cb4565b925050606085013567ffffffffffffffff811115611eca57600080fd5b611ed687828801611cb4565b91505092959194509250565b600060208284031215611ef457600080fd5b6000611f0284828501611d0a565b91505092915050565b611f1481612635565b82525050565b6000611f2582612607565b80845260208401935083602082028501611f3e856125fa565b60005b84811015611f77578383038852611f59838351611fbe565b9250611f6482612628565b9150602088019750600181019050611f41565b508196508694505050505092915050565b6000611f938261261d565b808452611fa7816020860160208601612692565b611fb0816126c5565b602085010191505092915050565b6000611fc982612612565b808452611fdd816020860160208601612692565b611fe6816126c5565b602085010191505092915050565b6000602082527f56616363696e6520646f736520697320616c726561647920657869737465642e6020830152604082019050919050565b6000601f82527f436572746966696361746520697320616c726561647920657869737465642e006020830152604082019050919050565b6000601c82527f4d65646963616c20756e6974206973206e6f74206d6174636865642e000000006020830152604082019050919050565b6000601c82527f4d65646963616c20756e6974206973206e6f7420657869737465642e000000006020830152604082019050919050565b6000602d82527f4e756d626572206f662076616363696e6520646f7365732073686f756c64206260208301527f65206174206c6561737420312e000000000000000000000000000000000000006040830152606082019050919050565b6000603282527f56616363696e6520646f736520646f6573206e6f742062656c6f6e6720746f2060208301527f74686973204d65646963616c20556e69742e00000000000000000000000000006040830152606082019050919050565b6000602282527f56616363696e6520646f736520697320756e65786973746564206f722075736560208301527f642e0000000000000000000000000000000000000000000000000000000000006040830152606082019050919050565b6000602082527f4d65646963616c20756e697420697320616c726561647920657869737465642e6020830152604082019050919050565b6000603382527f546869732066756e6374696f6e206973207265737472696374656420746f207460208301527f686520636f6e74726163742773206f776e6572000000000000000000000000006040830152606082019050919050565b600060808301600083015184820360008601526122988282611fbe565b91505060208301516122ad6020860182611f0b565b50604083015184820360408601526122c58282611fbe565b915050606083015184820360608601526122df8282611fbe565b9150508091505092915050565b60006020820190506123016000830184611f0b565b92915050565b600060208201905081810360008301526123218184611f1a565b905092915050565b600060208201905081810360008301526123438184611fbe565b905092915050565b600060208201905081810360008301526123658184611f88565b905092915050565b600060408201905081810360008301526123878185611f88565b90506123966020830184611f0b565b9392505050565b600060408201905081810360008301526123b78185611f88565b905081810360208301526123cb8184611f88565b90509392505050565b600060408201905081810360008301526123ee8185611fbe565b905081810360208301526124028184611f88565b90509392505050565b6000602082019050818103600083015261242481611ff4565b9050919050565b600060208201905081810360008301526124448161202b565b9050919050565b6000602082019050818103600083015261246481612062565b9050919050565b6000602082019050818103600083015261248481612099565b9050919050565b600060208201905081810360008301526124a4816120d0565b9050919050565b600060208201905081810360008301526124c48161212d565b9050919050565b600060208201905081810360008301526124e48161218a565b9050919050565b60006020820190508181036000830152612504816121e7565b9050919050565b600060208201905081810360008301526125248161221e565b9050919050565b60006020820190508181036000830152612545818461227b565b905092915050565b6000604051905081810181811067ffffffffffffffff8211171561257057600080fd5b8060405250919050565b600067ffffffffffffffff82111561259157600080fd5b602082029050602081019050919050565b600067ffffffffffffffff8211156125b957600080fd5b601f19601f8301169050602081019050919050565b600067ffffffffffffffff8211156125e557600080fd5b601f19601f8301169050602081019050919050565b6000602082019050919050565b600081519050919050565b600081519050919050565b600081519050919050565b6000602082019050919050565b600061264082612647565b9050919050565b600073ffffffffffffffffffffffffffffffffffffffff82169050919050565b600061267282612647565b9050919050565b6000819050919050565b82818337600083830152505050565b60005b838110156126b0578082015181840152602081019050612695565b838111156126bf576000848401525b50505050565b6000601f19601f830116905091905056fea265627a7a723058205e86c0e9dd194956ded798b823aa8e3671922bbfa21734b6ffe67f7fb9960c8b6c6578706572696d656e74616cf50037",
  "source": "// SPDX-License-Identifier: UNLICENSED\npragma solidity >=0.5.0;\npragma experimental ABIEncoderV2;\n\ncontract PethernetContract {\n    // Ministry of Health's account address \n    address public ministryOfHealthAddr = msg.sender;\n    string[] public medicalUnitsList;\n    string[] public vaccineDosesList;\n    string[] public certificatesList;\n    \n    // Medical Unit hash => Medical Unit account address\n    mapping (string => address) medicalUnits;\n    // Vaccine Dose hash => address of owner (Medical Unit or by default Ministry of Health)\n    mapping (string => address) vaccineDoses;\n    // Certificate hash => Medical Unit address account\n    mapping (string => Certificate) certificates;\n\n    /** Event */\n    event MedicalUnitAddedEvent(string _medicalUnitHash, address _medicalUnitAddr);\n    event VaccinDoseAddedEvent(string _vaccineDoseHash);\n    event DistributedVaccinDoseAddedEvent(string _vaccineDoseHash, string _medicalUnitHash);\n    event IssuedCertEvent(string _certificateHash, string _patientHash);\n\n    modifier ministryOfHealthRestricted() {\n        require(\n            msg.sender == ministryOfHealthAddr,\n            \"This function is restricted to the contract's owner\"\n        );\n        _;\n    }\n\n    struct Certificate {\n        string issuer; // Medical unit address\n        address issuerAddr;\n        string patient;\n        string vaccineDose;\n    }\n\n    function addMedicalUnit(string memory _medicalUnitHash, address _medicalUnitOriginAddr) public ministryOfHealthRestricted {\n        require(\n            medicalUnits[_medicalUnitHash] == address(0),\n            \"Medical unit is already existed.\"\n        );\n        \n        medicalUnitsList.push(_medicalUnitHash);\n        medicalUnits[_medicalUnitHash] = _medicalUnitOriginAddr;\n\n        emit MedicalUnitAddedEvent(_medicalUnitHash, _medicalUnitOriginAddr);\n    }\n\n    function addVaccineDose(string memory _vaccineDoseHash) public ministryOfHealthRestricted {\n        require(\n            vaccineDoses[_vaccineDoseHash] == address(0),\n            \"Vaccine dose is already existed.\"\n        );\n\n        vaccineDosesList.push(_vaccineDoseHash);\n        vaccineDoses[_vaccineDoseHash] = ministryOfHealthAddr;\n        emit VaccinDoseAddedEvent(_vaccineDoseHash);\n    }\n\n    function distributeVaccineDoses(string memory _medicalUnitHash, string[] memory _vaccineDoseHashes) public ministryOfHealthRestricted {\n        require(\n            medicalUnits[_medicalUnitHash] != address(0),\n            \"Medical unit is not existed.\"\n        );\n\n        require(\n            _vaccineDoseHashes.length > 0,\n            \"Number of vaccine doses should be at least 1.\"\n        );\n\n        for (uint i = 0; i < _vaccineDoseHashes.length; i++) {\n            require(\n                vaccineDoses[_vaccineDoseHashes[i]] == ministryOfHealthAddr,\n                \"Vaccine dose is unexisted or used.\"\n            );\n\n            vaccineDoses[_vaccineDoseHashes[i]] = medicalUnits[_medicalUnitHash];\n            emit DistributedVaccinDoseAddedEvent(_vaccineDoseHashes[i], _medicalUnitHash);\n        }\n    }\n\n    function issueCertificate(\n        string memory _medicalUnitHash,\n        string memory _patientHash,\n        string memory _vaccineDoseHash,\n        string memory _certificateHash) public {\n        require(\n            medicalUnits[_medicalUnitHash] == msg.sender,\n            \"Medical unit is not matched.\"\n        );\n        require(\n            vaccineDoses[_vaccineDoseHash] == msg.sender,\n            \"Vaccine dose does not belong to this Medical Unit.\"\n        );\n        require(\n            certificates[_certificateHash].issuerAddr == address(0),\n            \"Certificate is already existed.\"\n        );\n        \n        certificatesList.push(_certificateHash);\n        certificates[_certificateHash] = Certificate(_medicalUnitHash, msg.sender, _patientHash, _vaccineDoseHash);\n        emit IssuedCertEvent(_certificateHash, _patientHash);\n    }\n\n    function checkVaccineDose(string memory _vaccineDoseHash) public view returns(address _owner) {\n        return vaccineDoses[_vaccineDoseHash];\n    }\n\n    function checkMedicalUnit(string memory _medicalUnitHash) public view returns(address _owner) {\n        return medicalUnits[_medicalUnitHash];\n    }\n\n    function checkCertificate(string memory _certificateHash) public view returns (Certificate memory) {\n        return certificates[_certificateHash];\n    }\n    \n    function vaccineDosesListGetter() public view returns (string[] memory) {\n        return vaccineDosesList;\n    }\n\n    function medicalUnitsListGetter() public view returns (string[] memory) {\n        return medicalUnitsList;\n    }\n}",
  "sourcePath": "/Users/steven/Github/sixtyfiver-pethernet/contracts/PethernetContract.sol",
  "compiler": {
    "name": "solc",
    "version": "0.5.0+commit.1d4f565a.Emscripten.clang"
  },
  "schemaVersion": "3.0.1",
  "updatedAt": "2021-08-31T16:47:51.955Z",
  "devdoc": {
    "methods": {}
  },
  "userdoc": {
    "methods": {}
  }
}