{
  "contractName": "PethernetContract",
  "abi": [
    {
      "constant": true,
      "inputs": [
        {
          "name": "",
          "type": "uint256"
        }
      ],
      "name": "vaccineDosesList",
      "outputs": [
        {
          "name": "",
          "type": "string"
        }
      ],
      "payable": false,
      "stateMutability": "view",
      "type": "function",
      "signature": "0x2ae66be7"
    },
    {
      "constant": true,
      "inputs": [],
      "name": "ministryOfHealthAddr",
      "outputs": [
        {
          "name": "",
          "type": "address"
        }
      ],
      "payable": false,
      "stateMutability": "view",
      "type": "function",
      "signature": "0x34d78caa"
    },
    {
      "constant": true,
      "inputs": [
        {
          "name": "",
          "type": "uint256"
        }
      ],
      "name": "certificatesList",
      "outputs": [
        {
          "name": "",
          "type": "string"
        }
      ],
      "payable": false,
      "stateMutability": "view",
      "type": "function",
      "signature": "0x5397a28c"
    },
    {
      "constant": true,
      "inputs": [
        {
          "name": "",
          "type": "uint256"
        }
      ],
      "name": "injectorsList",
      "outputs": [
        {
          "name": "",
          "type": "string"
        }
      ],
      "payable": false,
      "stateMutability": "view",
      "type": "function",
      "signature": "0xc4f29dea"
    },
    {
      "constant": true,
      "inputs": [
        {
          "name": "",
          "type": "uint256"
        }
      ],
      "name": "medicalUnitsList",
      "outputs": [
        {
          "name": "",
          "type": "string"
        }
      ],
      "payable": false,
      "stateMutability": "view",
      "type": "function",
      "signature": "0xed893f09"
    },
    {
      "anonymous": false,
      "inputs": [
        {
          "indexed": false,
          "name": "_medicalUnitHash",
          "type": "string"
        },
        {
          "indexed": false,
          "name": "_medicalUnitAddr",
          "type": "address"
        }
      ],
      "name": "MedicalUnitAddedEvent",
      "type": "event",
      "signature": "0x82dd01867fa73ce6c638aeacccb554275d4894bbbeb7d4bf1d27ebd918a3a9aa"
    },
    {
      "anonymous": false,
      "inputs": [
        {
          "indexed": false,
          "name": "_vaccineDoseHash",
          "type": "string"
        }
      ],
      "name": "VaccinDoseAddedEvent",
      "type": "event",
      "signature": "0xb5ee440dd578e99e26b7c83afcb6e6129db0faa05d5fb3d0729551f6172594a4"
    },
    {
      "anonymous": false,
      "inputs": [
        {
          "indexed": false,
          "name": "_injectorHash",
          "type": "string"
        }
      ],
      "name": "InjectorAddedEvent",
      "type": "event",
      "signature": "0x934bae8e68646bcc791ccf30eb236d27b862154502319e73637795763c422fcb"
    },
    {
      "anonymous": false,
      "inputs": [
        {
          "indexed": false,
          "name": "_vaccineDoseHash",
          "type": "string"
        },
        {
          "indexed": false,
          "name": "_medicalUnitHash",
          "type": "string"
        }
      ],
      "name": "DistributedVaccinDoseAddedEvent",
      "type": "event",
      "signature": "0xbfaef94abcbed191ebcfcfc55578153dcecadb2913544a018b7041daa5d70241"
    },
    {
      "anonymous": false,
      "inputs": [
        {
          "indexed": false,
          "name": "_certificateHash",
          "type": "string"
        },
        {
          "indexed": false,
          "name": "_injectorHash",
          "type": "string"
        }
      ],
      "name": "IssuedCertEvent",
      "type": "event",
      "signature": "0x2aff0832b2fb3e9ea2dab4ecec571ad82eae6f290d51e2f66856c228652b8a31"
    },
    {
      "constant": false,
      "inputs": [
        {
          "name": "_medicalUnitHash",
          "type": "string"
        },
        {
          "name": "_medicalUnitOriginAddr",
          "type": "address"
        }
      ],
      "name": "addMedicalUnit",
      "outputs": [],
      "payable": false,
      "stateMutability": "nonpayable",
      "type": "function",
      "signature": "0x1e9ce79a"
    },
    {
      "constant": false,
      "inputs": [
        {
          "name": "_vaccineDoseHash",
          "type": "string"
        }
      ],
      "name": "addVaccineDose",
      "outputs": [],
      "payable": false,
      "stateMutability": "nonpayable",
      "type": "function",
      "signature": "0x40d58494"
    },
    {
      "constant": false,
      "inputs": [
        {
          "name": "_vaccineDoseHash",
          "type": "string"
        },
        {
          "name": "_medicalUnitHash",
          "type": "string"
        }
      ],
      "name": "distributeVaccineDose",
      "outputs": [],
      "payable": false,
      "stateMutability": "nonpayable",
      "type": "function",
      "signature": "0x78dd86bc"
    },
    {
      "constant": false,
      "inputs": [
        {
          "name": "_injectorHash",
          "type": "string"
        }
      ],
      "name": "addInjector",
      "outputs": [],
      "payable": false,
      "stateMutability": "nonpayable",
      "type": "function",
      "signature": "0xa10811fc"
    },
    {
      "constant": false,
      "inputs": [
        {
          "name": "_medicalUnitHash",
          "type": "string"
        },
        {
          "name": "_injectorHash",
          "type": "string"
        },
        {
          "name": "_vaccineDoseHash",
          "type": "string"
        },
        {
          "name": "_certificateHash",
          "type": "string"
        }
      ],
      "name": "issueCertificate",
      "outputs": [],
      "payable": false,
      "stateMutability": "nonpayable",
      "type": "function",
      "signature": "0x818a2994"
    },
    {
      "constant": true,
      "inputs": [
        {
          "name": "_injectorHash",
          "type": "string"
        }
      ],
      "name": "checkInjector",
      "outputs": [
        {
          "name": "isExisted",
          "type": "bool"
        }
      ],
      "payable": false,
      "stateMutability": "view",
      "type": "function",
      "signature": "0xfbfd4bc8"
    },
    {
      "constant": true,
      "inputs": [
        {
          "name": "_certificateHash",
          "type": "string"
        }
      ],
      "name": "checkCertificate",
      "outputs": [
        {
          "name": "isExisted",
          "type": "bool"
        }
      ],
      "payable": false,
      "stateMutability": "view",
      "type": "function",
      "signature": "0xffbd4dd5"
    },
    {
      "constant": true,
      "inputs": [
        {
          "name": "_vaccineDoseHash",
          "type": "string"
        }
      ],
      "name": "checkVaccineDose",
      "outputs": [
        {
          "name": "isExisted",
          "type": "bool"
        }
      ],
      "payable": false,
      "stateMutability": "view",
      "type": "function",
      "signature": "0x37ebc7f0"
    },
    {
      "constant": true,
      "inputs": [
        {
          "name": "_medicalUnitHash",
          "type": "string"
        }
      ],
      "name": "checkMedicalUnit",
      "outputs": [
        {
          "name": "isExisted",
          "type": "bool"
        }
      ],
      "payable": false,
      "stateMutability": "view",
      "type": "function",
      "signature": "0x9473191a"
    },
    {
      "constant": true,
      "inputs": [],
      "name": "vaccineDosesListGetter",
      "outputs": [
        {
          "name": "",
          "type": "string[]"
        }
      ],
      "payable": false,
      "stateMutability": "view",
      "type": "function",
      "signature": "0x64d25fec"
    },
    {
      "constant": true,
      "inputs": [],
      "name": "medicalUnitsListGetter",
      "outputs": [
        {
          "name": "",
          "type": "string[]"
        }
      ],
      "payable": false,
      "stateMutability": "view",
      "type": "function",
      "signature": "0x71a185f0"
    },
    {
      "constant": true,
      "inputs": [],
      "name": "certificatesListGetter",
      "outputs": [
        {
          "name": "",
          "type": "string[]"
        }
      ],
      "payable": false,
      "stateMutability": "view",
      "type": "function",
      "signature": "0xb0ee00f2"
    },
    {
      "constant": true,
      "inputs": [],
      "name": "injectorsListGetter",
      "outputs": [
        {
          "name": "",
          "type": "string[]"
        }
      ],
      "payable": false,
      "stateMutability": "view",
      "type": "function",
      "signature": "0x96333c53"
    }
  ],
  "bytecode": "0x6080604052336000806101000a81548173ffffffffffffffffffffffffffffffffffffffff021916908373ffffffffffffffffffffffffffffffffffffffff16021790555034801561005057600080fd5b50612965806100606000396000f3fe6080604052600436106100fc576000357c0100000000000000000000000000000000000000000000000000000000900463ffffffff1680631e9ce79a146101015780632ae66be71461012a57806334d78caa1461016757806337ebc7f01461019257806340d58494146101cf5780635397a28c146101f857806364d25fec1461023557806371a185f01461026057806378dd86bc1461028b578063818a2994146102b45780639473191a146102dd57806396333c531461031a578063a10811fc14610345578063b0ee00f21461036e578063c4f29dea14610399578063ed893f09146103d6578063fbfd4bc814610413578063ffbd4dd514610450575b600080fd5b34801561010d57600080fd5b506101286004803603610123919081019061206b565b61048d565b005b34801561013657600080fd5b50610151600480360361014c91908101906121ee565b610740565b60405161015e91906125ff565b60405180910390f35b34801561017357600080fd5b5061017c6107fb565b60405161018991906125a7565b60405180910390f35b34801561019e57600080fd5b506101b960048036036101b4919081019061202a565b610820565b6040516101c691906125e4565b60405180910390f35b3480156101db57600080fd5b506101f660048036036101f1919081019061202a565b6108e4565b005b34801561020457600080fd5b5061021f600480360361021a91908101906121ee565b610bb5565b60405161022c91906125ff565b60405180910390f35b34801561024157600080fd5b5061024a610c70565b60405161025791906125c2565b60405180910390f35b34801561026c57600080fd5b50610275610d59565b60405161028291906125c2565b60405180910390f35b34801561029757600080fd5b506102b260048036036102ad91908101906120bf565b610e42565b005b3480156102c057600080fd5b506102db60048036036102d6919081019061212b565b61125e565b005b3480156102e957600080fd5b5061030460048036036102ff919081019061202a565b611774565b60405161031191906125e4565b60405180910390f35b34801561032657600080fd5b5061032f611838565b60405161033c91906125c2565b60405180910390f35b34801561035157600080fd5b5061036c6004803603610367919081019061202a565b611921565b005b34801561037a57600080fd5b50610383611adf565b60405161039091906125c2565b60405180910390f35b3480156103a557600080fd5b506103c060048036036103bb91908101906121ee565b611bc8565b6040516103cd91906125ff565b60405180910390f35b3480156103e257600080fd5b506103fd60048036036103f891908101906121ee565b611c83565b60405161040a91906125ff565b60405180910390f35b34801561041f57600080fd5b5061043a6004803603610435919081019061202a565b611d3e565b60405161044791906125e4565b60405180910390f35b34801561045c57600080fd5b506104776004803603610472919081019061202a565b611dc0565b60405161048491906125e4565b60405180910390f35b6000809054906101000a900473ffffffffffffffffffffffffffffffffffffffff1673ffffffffffffffffffffffffffffffffffffffff163373ffffffffffffffffffffffffffffffffffffffff1614151561051e576040517f08c379a0000000000000000000000000000000000000000000000000000000008152600401610515906127ca565b60405180910390fd5b600073ffffffffffffffffffffffffffffffffffffffff166005836040518082805190602001908083835b60208310151561056e5780518252602082019150602081019050602083039250610549565b6001836020036101000a038019825116818451168082178552505050505050905001915050908152602001604051809103902060009054906101000a900473ffffffffffffffffffffffffffffffffffffffff1673ffffffffffffffffffffffffffffffffffffffff1614151561061a576040517f08c379a0000000000000000000000000000000000000000000000000000000008152600401610611906127aa565b60405180910390fd5b6001829080600181540180825580915050906001820390600052602060002001600090919290919091509080519060200190610657929190611e87565b5050806005836040518082805190602001908083835b602083101515610692578051825260208201915060208101905060208303925061066d565b6001836020036101000a038019825116818451168082178552505050505050905001915050908152602001604051809103902060006101000a81548173ffffffffffffffffffffffffffffffffffffffff021916908373ffffffffffffffffffffffffffffffffffffffff1602179055507f82dd01867fa73ce6c638aeacccb554275d4894bbbeb7d4bf1d27ebd918a3a9aa8282604051610734929190612643565b60405180910390a15050565b60028181548110151561074f57fe5b906000526020600020016000915090508054600181600116156101000203166002900480601f0160208091040260200160405190810160405280929190818152602001828054600181600116156101000203166002900480156107f35780601f106107c8576101008083540402835291602001916107f3565b820191906000526020600020905b8154815290600101906020018083116107d657829003601f168201915b505050505081565b6000809054906101000a900473ffffffffffffffffffffffffffffffffffffffff1681565b60008073ffffffffffffffffffffffffffffffffffffffff166006836040518082805190602001908083835b602083101515610871578051825260208201915060208101905060208303925061084c565b6001836020036101000a038019825116818451168082178552505050505050905001915050908152602001604051809103902060009054906101000a900473ffffffffffffffffffffffffffffffffffffffff1673ffffffffffffffffffffffffffffffffffffffff1614159050919050565b6000809054906101000a900473ffffffffffffffffffffffffffffffffffffffff1673ffffffffffffffffffffffffffffffffffffffff163373ffffffffffffffffffffffffffffffffffffffff16141515610975576040517f08c379a000000000000000000000000000000000000000000000000000000000815260040161096c906127ca565b60405180910390fd5b600073ffffffffffffffffffffffffffffffffffffffff166006826040518082805190602001908083835b6020831015156109c557805182526020820191506020810190506020830392506109a0565b6001836020036101000a038019825116818451168082178552505050505050905001915050908152602001604051809103902060009054906101000a900473ffffffffffffffffffffffffffffffffffffffff1673ffffffffffffffffffffffffffffffffffffffff16141515610a71576040517f08c379a0000000000000000000000000000000000000000000000000000000008152600401610a68906126ca565b60405180910390fd5b6002819080600181540180825580915050906001820390600052602060002001600090919290919091509080519060200190610aae929190611e87565b50506000809054906101000a900473ffffffffffffffffffffffffffffffffffffffff166006826040518082805190602001908083835b602083101515610b0a5780518252602082019150602081019050602083039250610ae5565b6001836020036101000a038019825116818451168082178552505050505050905001915050908152602001604051809103902060006101000a81548173ffffffffffffffffffffffffffffffffffffffff021916908373ffffffffffffffffffffffffffffffffffffffff1602179055507fb5ee440dd578e99e26b7c83afcb6e6129db0faa05d5fb3d0729551f6172594a481604051610baa9190612621565b60405180910390a150565b600381815481101515610bc457fe5b906000526020600020016000915090508054600181600116156101000203166002900480601f016020809104026020016040519081016040528092919081815260200182805460018160011615610100020316600290048015610c685780601f10610c3d57610100808354040283529160200191610c68565b820191906000526020600020905b815481529060010190602001808311610c4b57829003601f168201915b505050505081565b60606002805480602002602001604051908101604052809291908181526020016000905b82821015610d50578382906000526020600020018054600181600116156101000203166002900480601f016020809104026020016040519081016040528092919081815260200182805460018160011615610100020316600290048015610d3c5780601f10610d1157610100808354040283529160200191610d3c565b820191906000526020600020905b815481529060010190602001808311610d1f57829003601f168201915b505050505081526020019060010190610c94565b50505050905090565b60606001805480602002602001604051908101604052809291908181526020016000905b82821015610e39578382906000526020600020018054600181600116156101000203166002900480601f016020809104026020016040519081016040528092919081815260200182805460018160011615610100020316600290048015610e255780601f10610dfa57610100808354040283529160200191610e25565b820191906000526020600020905b815481529060010190602001808311610e0857829003601f168201915b505050505081526020019060010190610d7d565b50505050905090565b6000809054906101000a900473ffffffffffffffffffffffffffffffffffffffff1673ffffffffffffffffffffffffffffffffffffffff163373ffffffffffffffffffffffffffffffffffffffff16141515610ed3576040517f08c379a0000000000000000000000000000000000000000000000000000000008152600401610eca906127ca565b60405180910390fd5b600073ffffffffffffffffffffffffffffffffffffffff166005826040518082805190602001908083835b602083101515610f235780518252602082019150602081019050602083039250610efe565b6001836020036101000a038019825116818451168082178552505050505050905001915050908152602001604051809103902060009054906101000a900473ffffffffffffffffffffffffffffffffffffffff1673ffffffffffffffffffffffffffffffffffffffff1614151515610fd0576040517f08c379a0000000000000000000000000000000000000000000000000000000008152600401610fc79061272a565b60405180910390fd5b6000809054906101000a900473ffffffffffffffffffffffffffffffffffffffff1673ffffffffffffffffffffffffffffffffffffffff166006836040518082805190602001908083835b602083101515611040578051825260208201915060208101905060208303925061101b565b6001836020036101000a038019825116818451168082178552505050505050905001915050908152602001604051809103902060009054906101000a900473ffffffffffffffffffffffffffffffffffffffff1673ffffffffffffffffffffffffffffffffffffffff161415156110ec576040517f08c379a00000000000000000000000000000000000000000000000000000000081526004016110e39061278a565b60405180910390fd5b6005816040518082805190602001908083835b60208310151561112457805182526020820191506020810190506020830392506110ff565b6001836020036101000a038019825116818451168082178552505050505050905001915050908152602001604051809103902060009054906101000a900473ffffffffffffffffffffffffffffffffffffffff166006836040518082805190602001908083835b6020831015156111b0578051825260208201915060208101905060208303925061118b565b6001836020036101000a038019825116818451168082178552505050505050905001915050908152602001604051809103902060006101000a81548173ffffffffffffffffffffffffffffffffffffffff021916908373ffffffffffffffffffffffffffffffffffffffff1602179055507fbfaef94abcbed191ebcfcfc55578153dcecadb2913544a018b7041daa5d702418282604051611252929190612673565b60405180910390a15050565b3373ffffffffffffffffffffffffffffffffffffffff166005856040518082805190602001908083835b6020831015156112ad5780518252602082019150602081019050602083039250611288565b6001836020036101000a038019825116818451168082178552505050505050905001915050908152602001604051809103902060009054906101000a900473ffffffffffffffffffffffffffffffffffffffff1673ffffffffffffffffffffffffffffffffffffffff16141515611359576040517f08c379a00000000000000000000000000000000000000000000000000000000081526004016113509061270a565b60405180910390fd5b600115156008846040518082805190602001908083835b6020831015156113955780518252602082019150602081019050602083039250611370565b6001836020036101000a038019825116818451168082178552505050505050905001915050908152602001604051809103902060009054906101000a900460ff16151514151561141a576040517f08c379a00000000000000000000000000000000000000000000000000000000081526004016114119061274a565b60405180910390fd5b3373ffffffffffffffffffffffffffffffffffffffff166006836040518082805190602001908083835b6020831015156114695780518252602082019150602081019050602083039250611444565b6001836020036101000a038019825116818451168082178552505050505050905001915050908152602001604051809103902060009054906101000a900473ffffffffffffffffffffffffffffffffffffffff1673ffffffffffffffffffffffffffffffffffffffff16141515611515576040517f08c379a000000000000000000000000000000000000000000000000000000000815260040161150c9061276a565b60405180910390fd5b600073ffffffffffffffffffffffffffffffffffffffff166007826040518082805190602001908083835b6020831015156115655780518252602082019150602081019050602083039250611540565b6001836020036101000a038019825116818451168082178552505050505050905001915050908152602001604051809103902060000160009054906101000a900473ffffffffffffffffffffffffffffffffffffffff1673ffffffffffffffffffffffffffffffffffffffff16141515611614576040517f08c379a000000000000000000000000000000000000000000000000000000000815260040161160b906126ea565b60405180910390fd5b6060604051908101604052803373ffffffffffffffffffffffffffffffffffffffff168152602001848152602001838152506007826040518082805190602001908083835b60208310151561167e5780518252602082019150602081019050602083039250611659565b6001836020036101000a038019825116818451168082178552505050505050905001915050908152602001604051809103902060008201518160000160006101000a81548173ffffffffffffffffffffffffffffffffffffffff021916908373ffffffffffffffffffffffffffffffffffffffff1602179055506020820151816001019080519060200190611714929190611f07565b506040820151816002019080519060200190611731929190611f07565b509050507f2aff0832b2fb3e9ea2dab4ecec571ad82eae6f290d51e2f66856c228652b8a318184604051611766929190612673565b60405180910390a150505050565b60008073ffffffffffffffffffffffffffffffffffffffff166005836040518082805190602001908083835b6020831015156117c557805182526020820191506020810190506020830392506117a0565b6001836020036101000a038019825116818451168082178552505050505050905001915050908152602001604051809103902060009054906101000a900473ffffffffffffffffffffffffffffffffffffffff1673ffffffffffffffffffffffffffffffffffffffff1614159050919050565b60606004805480602002602001604051908101604052809291908181526020016000905b82821015611918578382906000526020600020018054600181600116156101000203166002900480601f0160208091040260200160405190810160405280929190818152602001828054600181600116156101000203166002900480156119045780601f106118d957610100808354040283529160200191611904565b820191906000526020600020905b8154815290600101906020018083116118e757829003601f168201915b50505050508152602001906001019061185c565b50505050905090565b600015156008826040518082805190602001908083835b60208310151561195d5780518252602082019150602081019050602083039250611938565b6001836020036101000a038019825116818451168082178552505050505050905001915050908152602001604051809103902060009054906101000a900460ff1615151415156119e2576040517f08c379a00000000000000000000000000000000000000000000000000000000081526004016119d9906126aa565b60405180910390fd5b6004819080600181540180825580915050906001820390600052602060002001600090919290919091509080519060200190611a1f929190611e87565b505060016008826040518082805190602001908083835b602083101515611a5b5780518252602082019150602081019050602083039250611a36565b6001836020036101000a038019825116818451168082178552505050505050905001915050908152602001604051809103902060006101000a81548160ff0219169083151502179055507f934bae8e68646bcc791ccf30eb236d27b862154502319e73637795763c422fcb81604051611ad49190612621565b60405180910390a150565b60606003805480602002602001604051908101604052809291908181526020016000905b82821015611bbf578382906000526020600020018054600181600116156101000203166002900480601f016020809104026020016040519081016040528092919081815260200182805460018160011615610100020316600290048015611bab5780601f10611b8057610100808354040283529160200191611bab565b820191906000526020600020905b815481529060010190602001808311611b8e57829003601f168201915b505050505081526020019060010190611b03565b50505050905090565b600481815481101515611bd757fe5b906000526020600020016000915090508054600181600116156101000203166002900480601f016020809104026020016040519081016040528092919081815260200182805460018160011615610100020316600290048015611c7b5780601f10611c5057610100808354040283529160200191611c7b565b820191906000526020600020905b815481529060010190602001808311611c5e57829003601f168201915b505050505081565b600181815481101515611c9257fe5b906000526020600020016000915090508054600181600116156101000203166002900480601f016020809104026020016040519081016040528092919081815260200182805460018160011615610100020316600290048015611d365780601f10611d0b57610100808354040283529160200191611d36565b820191906000526020600020905b815481529060010190602001808311611d1957829003601f168201915b505050505081565b60006008826040518082805190602001908083835b602083101515611d785780518252602082019150602081019050602083039250611d53565b6001836020036101000a038019825116818451168082178552505050505050905001915050908152602001604051809103902060009054906101000a900460ff169050919050565b60008073ffffffffffffffffffffffffffffffffffffffff166007836040518082805190602001908083835b602083101515611e115780518252602082019150602081019050602083039250611dec565b6001836020036101000a038019825116818451168082178552505050505050905001915050908152602001604051809103902060000160009054906101000a900473ffffffffffffffffffffffffffffffffffffffff1673ffffffffffffffffffffffffffffffffffffffff1614159050919050565b828054600181600116156101000203166002900490600052602060002090601f016020900481019282601f10611ec857805160ff1916838001178555611ef6565b82800160010185558215611ef6579182015b82811115611ef5578251825591602001919060010190611eda565b5b509050611f039190611f87565b5090565b828054600181600116156101000203166002900490600052602060002090601f016020900481019282601f10611f4857805160ff1916838001178555611f76565b82800160010185558215611f76579182015b82811115611f75578251825591602001919060010190611f5a565b5b509050611f839190611f87565b5090565b611fa991905b80821115611fa5576000816000905550600101611f8d565b5090565b90565b6000611fb882356128bc565b905092915050565b600082601f8301121515611fd357600080fd5b8135611fe6611fe182612817565b6127ea565b9150808252602083016020830185838301111561200257600080fd5b61200d8382846128d8565b50505092915050565b600061202282356128ce565b905092915050565b60006020828403121561203c57600080fd5b600082013567ffffffffffffffff81111561205657600080fd5b61206284828501611fc0565b91505092915050565b6000806040838503121561207e57600080fd5b600083013567ffffffffffffffff81111561209857600080fd5b6120a485828601611fc0565b92505060206120b585828601611fac565b9150509250929050565b600080604083850312156120d257600080fd5b600083013567ffffffffffffffff8111156120ec57600080fd5b6120f885828601611fc0565b925050602083013567ffffffffffffffff81111561211557600080fd5b61212185828601611fc0565b9150509250929050565b6000806000806080858703121561214157600080fd5b600085013567ffffffffffffffff81111561215b57600080fd5b61216787828801611fc0565b945050602085013567ffffffffffffffff81111561218457600080fd5b61219087828801611fc0565b935050604085013567ffffffffffffffff8111156121ad57600080fd5b6121b987828801611fc0565b925050606085013567ffffffffffffffff8111156121d657600080fd5b6121e287828801611fc0565b91505092959194509250565b60006020828403121561220057600080fd5b600061220e84828501612016565b91505092915050565b6122208161287e565b82525050565b600061223182612850565b8084526020840193508360208202850161224a85612843565b60005b848110156122835783830388526122658383516122d9565b925061227082612871565b915060208801975060018101905061224d565b508196508694505050505092915050565b61229d81612890565b82525050565b60006122ae82612866565b8084526122c28160208601602086016128e7565b6122cb8161291a565b602085010191505092915050565b60006122e48261285b565b8084526122f88160208601602086016128e7565b6123018161291a565b602085010191505092915050565b6000601b82527f496e6a6563746f7220697320616c7265616479206578697374656400000000006020830152604082019050919050565b6000602082527f56616363696e6520646f736520697320616c726561647920657869737465642e6020830152604082019050919050565b6000601f82527f436572746966696361746520697320616c726561647920657869737465642e006020830152604082019050919050565b6000601c82527f4d65646963616c20756e6974206973206e6f74206d6174636865642e000000006020830152604082019050919050565b6000601c82527f4d65646963616c20756e6974206973206e6f7420657869737465642e000000006020830152604082019050919050565b6000601882527f496e6a6563746f72206973206e6f7420657869737465642e00000000000000006020830152604082019050919050565b6000603282527f56616363696e6520646f736520646f6573206e6f742062656c6f6e6720746f2060208301527f74686973204d65646963616c20556e69742e00000000000000000000000000006040830152606082019050919050565b6000602282527f56616363696e6520646f736520697320756e65786973746564206f722075736560208301527f642e0000000000000000000000000000000000000000000000000000000000006040830152606082019050919050565b6000602082527f4d65646963616c20756e697420697320616c726561647920657869737465642e6020830152604082019050919050565b6000603382527f546869732066756e6374696f6e206973207265737472696374656420746f207460208301527f686520636f6e74726163742773206f776e6572000000000000000000000000006040830152606082019050919050565b60006020820190506125bc6000830184612217565b92915050565b600060208201905081810360008301526125dc8184612226565b905092915050565b60006020820190506125f96000830184612294565b92915050565b6000602082019050818103600083015261261981846122d9565b905092915050565b6000602082019050818103600083015261263b81846122a3565b905092915050565b6000604082019050818103600083015261265d81856122a3565b905061266c6020830184612217565b9392505050565b6000604082019050818103600083015261268d81856122a3565b905081810360208301526126a181846122a3565b90509392505050565b600060208201905081810360008301526126c38161230f565b9050919050565b600060208201905081810360008301526126e381612346565b9050919050565b600060208201905081810360008301526127038161237d565b9050919050565b60006020820190508181036000830152612723816123b4565b9050919050565b60006020820190508181036000830152612743816123eb565b9050919050565b6000602082019050818103600083015261276381612422565b9050919050565b6000602082019050818103600083015261278381612459565b9050919050565b600060208201905081810360008301526127a3816124b6565b9050919050565b600060208201905081810360008301526127c381612513565b9050919050565b600060208201905081810360008301526127e38161254a565b9050919050565b6000604051905081810181811067ffffffffffffffff8211171561280d57600080fd5b8060405250919050565b600067ffffffffffffffff82111561282e57600080fd5b601f19601f8301169050602081019050919050565b6000602082019050919050565b600081519050919050565b600081519050919050565b600081519050919050565b6000602082019050919050565b60006128898261289c565b9050919050565b60008115159050919050565b600073ffffffffffffffffffffffffffffffffffffffff82169050919050565b60006128c78261289c565b9050919050565b6000819050919050565b82818337600083830152505050565b60005b838110156129055780820151818401526020810190506128ea565b83811115612914576000848401525b50505050565b6000601f19601f830116905091905056fea265627a7a72305820af1492b8c7a08e09035b68f6d4ff7905cc9ff7c0ae9559a2ef5d14515e5911806c6578706572696d656e74616cf50037",
  "source": "// SPDX-License-Identifier: UNLICENSED\npragma solidity >=0.5.0;\npragma experimental ABIEncoderV2;\n\ncontract PethernetContract {\n    // Ministry of Health's account address \n    address public ministryOfHealthAddr = msg.sender;\n    string[] public medicalUnitsList;\n    string[] public vaccineDosesList;\n    string[] public certificatesList;\n    string[] public injectorsList;\n\n    // Medical Unit hash => Medical Unit account address\n    mapping (string => address) medicalUnits;\n    // Vaccine Dose hash => address of owner (Medical Unit or by default Ministry of Health)\n    mapping (string => address) vaccineDoses;\n    // Certificate hash => Medical Unit address account\n    mapping (string => Certificate) certificates;\n    // Injector hash => existed?\n    mapping (string => bool) injectors;\n\n    /** Event */\n    event MedicalUnitAddedEvent(string _medicalUnitHash, address _medicalUnitAddr);\n    event VaccinDoseAddedEvent(string _vaccineDoseHash);\n    event InjectorAddedEvent(string _injectorHash);\n    event DistributedVaccinDoseAddedEvent(string _vaccineDoseHash, string _medicalUnitHash);\n    event IssuedCertEvent(string _certificateHash, string _injectorHash);\n\n    modifier ministryOfHealthRestricted() {\n        require(\n            msg.sender == ministryOfHealthAddr,\n            \"This function is restricted to the contract's owner\"\n        );\n        _;\n    }\n\n    struct Certificate {\n        address issuer; // Medical unit address\n        string injector;\n        string vaccineDose;\n    }\n\n    function addMedicalUnit(string memory _medicalUnitHash, address _medicalUnitOriginAddr) public ministryOfHealthRestricted {\n        require(\n            medicalUnits[_medicalUnitHash] == address(0),\n            \"Medical unit is already existed.\"\n        );\n        \n        medicalUnitsList.push(_medicalUnitHash);\n        medicalUnits[_medicalUnitHash] = _medicalUnitOriginAddr;\n\n        emit MedicalUnitAddedEvent(_medicalUnitHash, _medicalUnitOriginAddr);\n    }\n\n    function addVaccineDose(string memory _vaccineDoseHash) public ministryOfHealthRestricted {\n        require(\n            vaccineDoses[_vaccineDoseHash] == address(0),\n            \"Vaccine dose is already existed.\"\n        );\n\n        vaccineDosesList.push(_vaccineDoseHash);\n        vaccineDoses[_vaccineDoseHash] = ministryOfHealthAddr;\n        emit VaccinDoseAddedEvent(_vaccineDoseHash);\n    }\n\n    function distributeVaccineDose(string memory _vaccineDoseHash, string memory _medicalUnitHash) public ministryOfHealthRestricted {\n        require(\n            medicalUnits[_medicalUnitHash] != address(0),\n            \"Medical unit is not existed.\"\n        );\n        require(\n            vaccineDoses[_vaccineDoseHash] == ministryOfHealthAddr,\n            \"Vaccine dose is unexisted or used.\"\n        );\n\n        vaccineDoses[_vaccineDoseHash] = medicalUnits[_medicalUnitHash];\n        emit DistributedVaccinDoseAddedEvent(_vaccineDoseHash, _medicalUnitHash);\n    }\n\n    function addInjector(string memory _injectorHash) public {\n        require(\n            injectors[_injectorHash] == false,\n            \"Injector is already existed\"\n        );\n\n        injectorsList.push(_injectorHash);\n        injectors[_injectorHash] = true;\n        emit InjectorAddedEvent(_injectorHash);\n    }\n\n    function issueCertificate(\n        string memory _medicalUnitHash,\n        string memory _injectorHash,\n        string memory _vaccineDoseHash,\n        string memory _certificateHash) public {\n        require(\n            medicalUnits[_medicalUnitHash] == msg.sender,\n            \"Medical unit is not matched.\"\n        );\n        require(\n            injectors[_injectorHash] == true,\n            \"Injector is not existed.\"\n        );\n        require(\n            vaccineDoses[_vaccineDoseHash] == msg.sender,\n            \"Vaccine dose does not belong to this Medical Unit.\"\n        );\n        require(\n            certificates[_certificateHash].issuer == address(0),\n            \"Certificate is already existed.\"\n        );\n        \n        certificates[_certificateHash] = Certificate(msg.sender, _injectorHash, _vaccineDoseHash);\n        emit IssuedCertEvent(_certificateHash, _injectorHash);\n    }\n\n    function checkInjector(string memory _injectorHash) public view returns(bool isExisted) {\n        isExisted = injectors[_injectorHash];\n    }\n\n    function checkCertificate(string memory _certificateHash) public view returns(bool isExisted) {\n        isExisted = certificates[_certificateHash].issuer != address(0);\n    }\n\n    function checkVaccineDose(string memory _vaccineDoseHash) public view returns(bool isExisted) {\n        isExisted = vaccineDoses[_vaccineDoseHash] != address(0);\n    }\n\n    function checkMedicalUnit(string memory _medicalUnitHash) public view returns(bool isExisted) {\n        isExisted = medicalUnits[_medicalUnitHash] != address(0);\n    }\n\n    function vaccineDosesListGetter() public view returns (string[] memory) {\n        return vaccineDosesList;\n    }\n\n    function medicalUnitsListGetter() public view returns (string[] memory) {\n        return medicalUnitsList;\n    }\n\n    function certificatesListGetter() public view returns (string[] memory) {\n        return certificatesList;\n    }\n\n    function injectorsListGetter() public view returns (string[] memory) {\n        return injectorsList;\n    }\n}",
  "sourcePath": "/Users/steven/Github/pethernet/contracts/PethernetContract.sol",
  "compiler": {
    "name": "solc",
    "version": "0.5.0+commit.1d4f565a.Emscripten.clang"
  },
  "schemaVersion": "3.0.1",
  "updatedAt": "2021-08-27T12:43:11.115Z",
  "devdoc": {
    "methods": {}
  },
  "userdoc": {
    "methods": {}
  }
}