{
  "contractName": "PethernetContract",
  "abi": [
    {
      "constant": true,
      "inputs": [
        {
          "name": "",
          "type": "uint256"
        }
      ],
      "name": "vaccineDosesList",
      "outputs": [
        {
          "name": "",
          "type": "string"
        }
      ],
      "payable": false,
      "stateMutability": "view",
      "type": "function"
    },
    {
      "constant": true,
      "inputs": [],
      "name": "ministryOfHealthAddr",
      "outputs": [
        {
          "name": "",
          "type": "address"
        }
      ],
      "payable": false,
      "stateMutability": "view",
      "type": "function"
    },
    {
      "constant": true,
      "inputs": [
        {
          "name": "",
          "type": "uint256"
        }
      ],
      "name": "certificatesList",
      "outputs": [
        {
          "name": "",
          "type": "string"
        }
      ],
      "payable": false,
      "stateMutability": "view",
      "type": "function"
    },
    {
      "constant": true,
      "inputs": [
        {
          "name": "",
          "type": "uint256"
        }
      ],
      "name": "doctorsList",
      "outputs": [
        {
          "name": "",
          "type": "string"
        }
      ],
      "payable": false,
      "stateMutability": "view",
      "type": "function"
    },
    {
      "constant": true,
      "inputs": [
        {
          "name": "",
          "type": "uint256"
        }
      ],
      "name": "injectorsList",
      "outputs": [
        {
          "name": "",
          "type": "string"
        }
      ],
      "payable": false,
      "stateMutability": "view",
      "type": "function"
    },
    {
      "constant": true,
      "inputs": [
        {
          "name": "",
          "type": "uint256"
        }
      ],
      "name": "medicalUnitsList",
      "outputs": [
        {
          "name": "",
          "type": "string"
        }
      ],
      "payable": false,
      "stateMutability": "view",
      "type": "function"
    },
    {
      "anonymous": false,
      "inputs": [
        {
          "indexed": false,
          "name": "_medicalUnitHash",
          "type": "string"
        },
        {
          "indexed": false,
          "name": "_medicalUnitAddr",
          "type": "address"
        }
      ],
      "name": "MedicalUnitAddedEvent",
      "type": "event"
    },
    {
      "constant": false,
      "inputs": [
        {
          "name": "_medicalUnitHash",
          "type": "string"
        },
        {
          "name": "_medicalUnitOriginAddr",
          "type": "address"
        }
      ],
      "name": "addMedicalUnit",
      "outputs": [],
      "payable": false,
      "stateMutability": "nonpayable",
      "type": "function"
    },
    {
      "constant": false,
      "inputs": [
        {
          "name": "_vaccineDoseHash",
          "type": "string"
        }
      ],
      "name": "addVaccineDose",
      "outputs": [],
      "payable": false,
      "stateMutability": "nonpayable",
      "type": "function"
    },
    {
      "constant": false,
      "inputs": [
        {
          "name": "_vaccineDoseHash",
          "type": "string"
        },
        {
          "name": "_medicalUnitHash",
          "type": "string"
        }
      ],
      "name": "distributeVaccineDose",
      "outputs": [],
      "payable": false,
      "stateMutability": "nonpayable",
      "type": "function"
    },
    {
      "constant": false,
      "inputs": [
        {
          "name": "_doctorHash",
          "type": "string"
        }
      ],
      "name": "addDoctor",
      "outputs": [],
      "payable": false,
      "stateMutability": "nonpayable",
      "type": "function"
    },
    {
      "constant": false,
      "inputs": [
        {
          "name": "_injectorHash",
          "type": "string"
        }
      ],
      "name": "addInjector",
      "outputs": [],
      "payable": false,
      "stateMutability": "nonpayable",
      "type": "function"
    },
    {
      "constant": false,
      "inputs": [
        {
          "name": "_medicalUnitHash",
          "type": "string"
        },
        {
          "name": "_injectorHash",
          "type": "string"
        },
        {
          "name": "_doctorHash",
          "type": "string"
        },
        {
          "name": "_vaccineDoseHash",
          "type": "string"
        },
        {
          "name": "_certificateHash",
          "type": "string"
        }
      ],
      "name": "issueCertificate",
      "outputs": [],
      "payable": false,
      "stateMutability": "nonpayable",
      "type": "function"
    },
    {
      "constant": true,
      "inputs": [
        {
          "name": "_doctorHash",
          "type": "string"
        }
      ],
      "name": "checkDoctor",
      "outputs": [
        {
          "name": "isExisted",
          "type": "bool"
        }
      ],
      "payable": false,
      "stateMutability": "view",
      "type": "function"
    },
    {
      "constant": true,
      "inputs": [
        {
          "name": "_injectorHash",
          "type": "string"
        }
      ],
      "name": "checkInjector",
      "outputs": [
        {
          "name": "isExisted",
          "type": "bool"
        }
      ],
      "payable": false,
      "stateMutability": "view",
      "type": "function"
    },
    {
      "constant": true,
      "inputs": [
        {
          "name": "_certificateHash",
          "type": "string"
        }
      ],
      "name": "checkCertificate",
      "outputs": [
        {
          "name": "isExisted",
          "type": "bool"
        }
      ],
      "payable": false,
      "stateMutability": "view",
      "type": "function"
    },
    {
      "constant": true,
      "inputs": [
        {
          "name": "_vaccineDoseHash",
          "type": "string"
        }
      ],
      "name": "checkVaccineDose",
      "outputs": [
        {
          "name": "isExisted",
          "type": "bool"
        }
      ],
      "payable": false,
      "stateMutability": "view",
      "type": "function"
    },
    {
      "constant": true,
      "inputs": [
        {
          "name": "_medicalUnitHash",
          "type": "string"
        }
      ],
      "name": "checkMedicalUnit",
      "outputs": [
        {
          "name": "isExisted",
          "type": "bool"
        }
      ],
      "payable": false,
      "stateMutability": "view",
      "type": "function"
    }
  ],
  "bytecode": "0x6080604052336000806101000a81548173ffffffffffffffffffffffffffffffffffffffff021916908373ffffffffffffffffffffffffffffffffffffffff16021790555034801561005057600080fd5b506128cd806100606000396000f3fe6080604052600436106100f1576000357c0100000000000000000000000000000000000000000000000000000000900463ffffffff1680630be61700146100f65780631e9ce79a1461011f5780632ae66be71461014857806334d78caa1461018557806335318158146101b057806337ebc7f0146101d957806340d58494146102165780635397a28c1461023f578063709898c01461027c57806378dd86bc146102b9578063932f3fe0146102e25780639473191a1461031f578063a10811fc1461035c578063c4f29dea14610385578063ed893f09146103c2578063fbfd4bc8146103ff578063ffbd4dd51461043c575b600080fd5b34801561010257600080fd5b5061011d60048036036101189190810190611fc6565b610479565b005b34801561012b57600080fd5b5061014660048036036101419190810190612007565b610600565b005b34801561015457600080fd5b5061016f600480360361016a91908101906121b6565b6108b3565b60405161017c91906125a5565b60405180910390f35b34801561019157600080fd5b5061019a61096e565b6040516101a7919061256f565b60405180910390f35b3480156101bc57600080fd5b506101d760048036036101d291908101906120c7565b610993565b005b3480156101e557600080fd5b5061020060048036036101fb9190810190611fc6565b610fe0565b60405161020d919061258a565b60405180910390f35b34801561022257600080fd5b5061023d60048036036102389190810190611fc6565b6110a4565b005b34801561024b57600080fd5b50610266600480360361026191908101906121b6565b61133e565b60405161027391906125a5565b60405180910390f35b34801561028857600080fd5b506102a3600480360361029e91908101906121b6565b6113f9565b6040516102b091906125a5565b60405180910390f35b3480156102c557600080fd5b506102e060048036036102db919081019061205b565b6114b4565b005b3480156102ee57600080fd5b5061030960048036036103049190810190611fc6565b611897565b604051610316919061258a565b60405180910390f35b34801561032b57600080fd5b5061034660048036036103419190810190611fc6565b611919565b604051610353919061258a565b60405180910390f35b34801561036857600080fd5b50610383600480360361037e9190810190611fc6565b6119dd565b005b34801561039157600080fd5b506103ac60048036036103a791908101906121b6565b611b64565b6040516103b991906125a5565b60405180910390f35b3480156103ce57600080fd5b506103e960048036036103e491908101906121b6565b611c1f565b6040516103f691906125a5565b60405180910390f35b34801561040b57600080fd5b5061042660048036036104219190810190611fc6565b611cda565b604051610433919061258a565b60405180910390f35b34801561044857600080fd5b50610463600480360361045e9190810190611fc6565b611d5c565b604051610470919061258a565b60405180910390f35b600015156009826040518082805190602001908083835b6020831015156104b55780518252602082019150602081019050602083039250610490565b6001836020036101000a038019825116818451168082178552505050505050905001915050908152602001604051809103902060009054906101000a900460ff16151514151561053a576040517f08c379a000000000000000000000000000000000000000000000000000000000815260040161053190612697565b60405180910390fd5b6004819080600181540180825580915050906001820390600052602060002001600090919290919091509080519060200190610577929190611e23565b505060016009826040518082805190602001908083835b6020831015156105b3578051825260208201915060208101905060208303925061058e565b6001836020036101000a038019825116818451168082178552505050505050905001915050908152602001604051809103902060006101000a81548160ff02191690831515021790555050565b6000809054906101000a900473ffffffffffffffffffffffffffffffffffffffff1673ffffffffffffffffffffffffffffffffffffffff163373ffffffffffffffffffffffffffffffffffffffff16141515610691576040517f08c379a000000000000000000000000000000000000000000000000000000000815260040161068890612757565b60405180910390fd5b600073ffffffffffffffffffffffffffffffffffffffff166006836040518082805190602001908083835b6020831015156106e157805182526020820191506020810190506020830392506106bc565b6001836020036101000a038019825116818451168082178552505050505050905001915050908152602001604051809103902060009054906101000a900473ffffffffffffffffffffffffffffffffffffffff1673ffffffffffffffffffffffffffffffffffffffff1614151561078d576040517f08c379a000000000000000000000000000000000000000000000000000000000815260040161078490612737565b60405180910390fd5b60018290806001815401808255809150509060018203906000526020600020016000909192909190915090805190602001906107ca929190611e23565b5050806006836040518082805190602001908083835b60208310151561080557805182526020820191506020810190506020830392506107e0565b6001836020036101000a038019825116818451168082178552505050505050905001915050908152602001604051809103902060006101000a81548173ffffffffffffffffffffffffffffffffffffffff021916908373ffffffffffffffffffffffffffffffffffffffff1602179055507f82dd01867fa73ce6c638aeacccb554275d4894bbbeb7d4bf1d27ebd918a3a9aa82826040516108a79291906125c7565b60405180910390a15050565b6002818154811015156108c257fe5b906000526020600020016000915090508054600181600116156101000203166002900480601f0160208091040260200160405190810160405280929190818152602001828054600181600116156101000203166002900480156109665780601f1061093b57610100808354040283529160200191610966565b820191906000526020600020905b81548152906001019060200180831161094957829003601f168201915b505050505081565b6000809054906101000a900473ffffffffffffffffffffffffffffffffffffffff1681565b3373ffffffffffffffffffffffffffffffffffffffff166006866040518082805190602001908083835b6020831015156109e257805182526020820191506020810190506020830392506109bd565b6001836020036101000a038019825116818451168082178552505050505050905001915050908152602001604051809103902060009054906101000a900473ffffffffffffffffffffffffffffffffffffffff1673ffffffffffffffffffffffffffffffffffffffff16141515610a8e576040517f08c379a0000000000000000000000000000000000000000000000000000000008152600401610a8590612657565b60405180910390fd5b60011515600a856040518082805190602001908083835b602083101515610aca5780518252602082019150602081019050602083039250610aa5565b6001836020036101000a038019825116818451168082178552505050505050905001915050908152602001604051809103902060009054906101000a900460ff161515141515610b4f576040517f08c379a0000000000000000000000000000000000000000000000000000000008152600401610b46906126d7565b60405180910390fd5b600115156009846040518082805190602001908083835b602083101515610b8b5780518252602082019150602081019050602083039250610b66565b6001836020036101000a038019825116818451168082178552505050505050905001915050908152602001604051809103902060009054906101000a900460ff161515141515610c10576040517f08c379a0000000000000000000000000000000000000000000000000000000008152600401610c0790612677565b60405180910390fd5b6006856040518082805190602001908083835b602083101515610c485780518252602082019150602081019050602083039250610c23565b6001836020036101000a038019825116818451168082178552505050505050905001915050908152602001604051809103902060009054906101000a900473ffffffffffffffffffffffffffffffffffffffff1673ffffffffffffffffffffffffffffffffffffffff166007836040518082805190602001908083835b602083101515610cea5780518252602082019150602081019050602083039250610cc5565b6001836020036101000a038019825116818451168082178552505050505050905001915050908152602001604051809103902060009054906101000a900473ffffffffffffffffffffffffffffffffffffffff1673ffffffffffffffffffffffffffffffffffffffff16141515610d96576040517f08c379a0000000000000000000000000000000000000000000000000000000008152600401610d8d906126f7565b60405180910390fd5b600073ffffffffffffffffffffffffffffffffffffffff166008826040518082805190602001908083835b602083101515610de65780518252602082019150602081019050602083039250610dc1565b6001836020036101000a038019825116818451168082178552505050505050905001915050908152602001604051809103902060000160009054906101000a900473ffffffffffffffffffffffffffffffffffffffff1673ffffffffffffffffffffffffffffffffffffffff16141515610e95576040517f08c379a0000000000000000000000000000000000000000000000000000000008152600401610e8c90612637565b60405180910390fd5b6080604051908101604052803373ffffffffffffffffffffffffffffffffffffffff168152602001858152602001848152602001838152506008826040518082805190602001908083835b602083101515610f055780518252602082019150602081019050602083039250610ee0565b6001836020036101000a038019825116818451168082178552505050505050905001915050908152602001604051809103902060008201518160000160006101000a81548173ffffffffffffffffffffffffffffffffffffffff021916908373ffffffffffffffffffffffffffffffffffffffff1602179055506020820151816001019080519060200190610f9b929190611ea3565b506040820151816002019080519060200190610fb8929190611ea3565b506060820151816003019080519060200190610fd5929190611ea3565b509050505050505050565b60008073ffffffffffffffffffffffffffffffffffffffff166007836040518082805190602001908083835b602083101515611031578051825260208201915060208101905060208303925061100c565b6001836020036101000a038019825116818451168082178552505050505050905001915050908152602001604051809103902060009054906101000a900473ffffffffffffffffffffffffffffffffffffffff1673ffffffffffffffffffffffffffffffffffffffff1614159050919050565b6000809054906101000a900473ffffffffffffffffffffffffffffffffffffffff1673ffffffffffffffffffffffffffffffffffffffff163373ffffffffffffffffffffffffffffffffffffffff16141515611135576040517f08c379a000000000000000000000000000000000000000000000000000000000815260040161112c90612757565b60405180910390fd5b600073ffffffffffffffffffffffffffffffffffffffff166007826040518082805190602001908083835b6020831015156111855780518252602082019150602081019050602083039250611160565b6001836020036101000a038019825116818451168082178552505050505050905001915050908152602001604051809103902060009054906101000a900473ffffffffffffffffffffffffffffffffffffffff1673ffffffffffffffffffffffffffffffffffffffff16141515611231576040517f08c379a000000000000000000000000000000000000000000000000000000000815260040161122890612617565b60405180910390fd5b600281908060018154018082558091505090600182039060005260206000200160009091929091909150908051906020019061126e929190611e23565b50506000809054906101000a900473ffffffffffffffffffffffffffffffffffffffff166007826040518082805190602001908083835b6020831015156112ca57805182526020820191506020810190506020830392506112a5565b6001836020036101000a038019825116818451168082178552505050505050905001915050908152602001604051809103902060006101000a81548173ffffffffffffffffffffffffffffffffffffffff021916908373ffffffffffffffffffffffffffffffffffffffff16021790555050565b60038181548110151561134d57fe5b906000526020600020016000915090508054600181600116156101000203166002900480601f0160208091040260200160405190810160405280929190818152602001828054600181600116156101000203166002900480156113f15780601f106113c6576101008083540402835291602001916113f1565b820191906000526020600020905b8154815290600101906020018083116113d457829003601f168201915b505050505081565b60048181548110151561140857fe5b906000526020600020016000915090508054600181600116156101000203166002900480601f0160208091040260200160405190810160405280929190818152602001828054600181600116156101000203166002900480156114ac5780601f10611481576101008083540402835291602001916114ac565b820191906000526020600020905b81548152906001019060200180831161148f57829003601f168201915b505050505081565b6000809054906101000a900473ffffffffffffffffffffffffffffffffffffffff1673ffffffffffffffffffffffffffffffffffffffff163373ffffffffffffffffffffffffffffffffffffffff16141515611545576040517f08c379a000000000000000000000000000000000000000000000000000000000815260040161153c90612757565b60405180910390fd5b600073ffffffffffffffffffffffffffffffffffffffff166006826040518082805190602001908083835b6020831015156115955780518252602082019150602081019050602083039250611570565b6001836020036101000a038019825116818451168082178552505050505050905001915050908152602001604051809103902060009054906101000a900473ffffffffffffffffffffffffffffffffffffffff1673ffffffffffffffffffffffffffffffffffffffff1614151515611642576040517f08c379a0000000000000000000000000000000000000000000000000000000008152600401611639906126b7565b60405180910390fd5b6000809054906101000a900473ffffffffffffffffffffffffffffffffffffffff1673ffffffffffffffffffffffffffffffffffffffff166007836040518082805190602001908083835b6020831015156116b2578051825260208201915060208101905060208303925061168d565b6001836020036101000a038019825116818451168082178552505050505050905001915050908152602001604051809103902060009054906101000a900473ffffffffffffffffffffffffffffffffffffffff1673ffffffffffffffffffffffffffffffffffffffff1614151561175e576040517f08c379a000000000000000000000000000000000000000000000000000000000815260040161175590612717565b60405180910390fd5b6006816040518082805190602001908083835b6020831015156117965780518252602082019150602081019050602083039250611771565b6001836020036101000a038019825116818451168082178552505050505050905001915050908152602001604051809103902060009054906101000a900473ffffffffffffffffffffffffffffffffffffffff166007836040518082805190602001908083835b60208310151561182257805182526020820191506020810190506020830392506117fd565b6001836020036101000a038019825116818451168082178552505050505050905001915050908152602001604051809103902060006101000a81548173ffffffffffffffffffffffffffffffffffffffff021916908373ffffffffffffffffffffffffffffffffffffffff1602179055505050565b60006009826040518082805190602001908083835b6020831015156118d157805182526020820191506020810190506020830392506118ac565b6001836020036101000a038019825116818451168082178552505050505050905001915050908152602001604051809103902060009054906101000a900460ff169050919050565b60008073ffffffffffffffffffffffffffffffffffffffff166006836040518082805190602001908083835b60208310151561196a5780518252602082019150602081019050602083039250611945565b6001836020036101000a038019825116818451168082178552505050505050905001915050908152602001604051809103902060009054906101000a900473ffffffffffffffffffffffffffffffffffffffff1673ffffffffffffffffffffffffffffffffffffffff1614159050919050565b60001515600a826040518082805190602001908083835b602083101515611a1957805182526020820191506020810190506020830392506119f4565b6001836020036101000a038019825116818451168082178552505050505050905001915050908152602001604051809103902060009054906101000a900460ff161515141515611a9e576040517f08c379a0000000000000000000000000000000000000000000000000000000008152600401611a95906125f7565b60405180910390fd5b6005819080600181540180825580915050906001820390600052602060002001600090919290919091509080519060200190611adb929190611e23565b50506001600a826040518082805190602001908083835b602083101515611b175780518252602082019150602081019050602083039250611af2565b6001836020036101000a038019825116818451168082178552505050505050905001915050908152602001604051809103902060006101000a81548160ff02191690831515021790555050565b600581815481101515611b7357fe5b906000526020600020016000915090508054600181600116156101000203166002900480601f016020809104026020016040519081016040528092919081815260200182805460018160011615610100020316600290048015611c175780601f10611bec57610100808354040283529160200191611c17565b820191906000526020600020905b815481529060010190602001808311611bfa57829003601f168201915b505050505081565b600181815481101515611c2e57fe5b906000526020600020016000915090508054600181600116156101000203166002900480601f016020809104026020016040519081016040528092919081815260200182805460018160011615610100020316600290048015611cd25780601f10611ca757610100808354040283529160200191611cd2565b820191906000526020600020905b815481529060010190602001808311611cb557829003601f168201915b505050505081565b60006009826040518082805190602001908083835b602083101515611d145780518252602082019150602081019050602083039250611cef565b6001836020036101000a038019825116818451168082178552505050505050905001915050908152602001604051809103902060009054906101000a900460ff169050919050565b60008073ffffffffffffffffffffffffffffffffffffffff166008836040518082805190602001908083835b602083101515611dad5780518252602082019150602081019050602083039250611d88565b6001836020036101000a038019825116818451168082178552505050505050905001915050908152602001604051809103902060000160009054906101000a900473ffffffffffffffffffffffffffffffffffffffff1673ffffffffffffffffffffffffffffffffffffffff1614159050919050565b828054600181600116156101000203166002900490600052602060002090601f016020900481019282601f10611e6457805160ff1916838001178555611e92565b82800160010185558215611e92579182015b82811115611e91578251825591602001919060010190611e76565b5b509050611e9f9190611f23565b5090565b828054600181600116156101000203166002900490600052602060002090601f016020900481019282601f10611ee457805160ff1916838001178555611f12565b82800160010185558215611f12579182015b82811115611f11578251825591602001919060010190611ef6565b5b509050611f1f9190611f23565b5090565b611f4591905b80821115611f41576000816000905550600101611f29565b5090565b90565b6000611f548235612824565b905092915050565b600082601f8301121515611f6f57600080fd5b8135611f82611f7d826127a4565b612777565b91508082526020830160208301858383011115611f9e57600080fd5b611fa9838284612840565b50505092915050565b6000611fbe8235612836565b905092915050565b600060208284031215611fd857600080fd5b600082013567ffffffffffffffff811115611ff257600080fd5b611ffe84828501611f5c565b91505092915050565b6000806040838503121561201a57600080fd5b600083013567ffffffffffffffff81111561203457600080fd5b61204085828601611f5c565b925050602061205185828601611f48565b9150509250929050565b6000806040838503121561206e57600080fd5b600083013567ffffffffffffffff81111561208857600080fd5b61209485828601611f5c565b925050602083013567ffffffffffffffff8111156120b157600080fd5b6120bd85828601611f5c565b9150509250929050565b600080600080600060a086880312156120df57600080fd5b600086013567ffffffffffffffff8111156120f957600080fd5b61210588828901611f5c565b955050602086013567ffffffffffffffff81111561212257600080fd5b61212e88828901611f5c565b945050604086013567ffffffffffffffff81111561214b57600080fd5b61215788828901611f5c565b935050606086013567ffffffffffffffff81111561217457600080fd5b61218088828901611f5c565b925050608086013567ffffffffffffffff81111561219d57600080fd5b6121a988828901611f5c565b9150509295509295909350565b6000602082840312156121c857600080fd5b60006121d684828501611fb2565b91505092915050565b6121e8816127e6565b82525050565b6121f7816127f8565b82525050565b6000612208826127db565b80845261221c81602086016020860161284f565b61222581612882565b602085010191505092915050565b600061223e826127d0565b80845261225281602086016020860161284f565b61225b81612882565b602085010191505092915050565b6000601b82527f496e6a6563746f7220697320616c7265616479206578697374656400000000006020830152604082019050919050565b6000602082527f56616363696e6520646f736520697320616c726561647920657869737465642e6020830152604082019050919050565b6000601f82527f436572746966696361746520697320616c726561647920657869737465642e006020830152604082019050919050565b6000601c82527f4d65646963616c20756e6974206973206e6f74206d6174636865642e000000006020830152604082019050919050565b6000601682527f446f63746f72206973206e6f7420657869737465642e000000000000000000006020830152604082019050919050565b6000601982527f446f63746f7220697320616c72656164792065786973746564000000000000006020830152604082019050919050565b6000601c82527f4d65646963616c20756e6974206973206e6f7420657869737465642e000000006020830152604082019050919050565b6000601882527f496e6a6563746f72206973206e6f7420657869737465642e00000000000000006020830152604082019050919050565b6000603282527f56616363696e6520646f736520646f6573206e6f742062656c6f6e6720746f2060208301527f74686973204d65646963616c20556e69742e00000000000000000000000000006040830152606082019050919050565b6000602282527f56616363696e6520646f736520697320756e65786973746564206f722075736560208301527f642e0000000000000000000000000000000000000000000000000000000000006040830152606082019050919050565b6000602082527f4d65646963616c20756e697420697320616c726561647920657869737465642e6020830152604082019050919050565b6000603382527f546869732066756e6374696f6e206973207265737472696374656420746f207460208301527f686520636f6e74726163742773206f776e6572000000000000000000000000006040830152606082019050919050565b600060208201905061258460008301846121df565b92915050565b600060208201905061259f60008301846121ee565b92915050565b600060208201905081810360008301526125bf8184612233565b905092915050565b600060408201905081810360008301526125e181856121fd565b90506125f060208301846121df565b9392505050565b6000602082019050818103600083015261261081612269565b9050919050565b60006020820190508181036000830152612630816122a0565b9050919050565b60006020820190508181036000830152612650816122d7565b9050919050565b600060208201905081810360008301526126708161230e565b9050919050565b6000602082019050818103600083015261269081612345565b9050919050565b600060208201905081810360008301526126b08161237c565b9050919050565b600060208201905081810360008301526126d0816123b3565b9050919050565b600060208201905081810360008301526126f0816123ea565b9050919050565b6000602082019050818103600083015261271081612421565b9050919050565b600060208201905081810360008301526127308161247e565b9050919050565b60006020820190508181036000830152612750816124db565b9050919050565b6000602082019050818103600083015261277081612512565b9050919050565b6000604051905081810181811067ffffffffffffffff8211171561279a57600080fd5b8060405250919050565b600067ffffffffffffffff8211156127bb57600080fd5b601f19601f8301169050602081019050919050565b600081519050919050565b600081519050919050565b60006127f182612804565b9050919050565b60008115159050919050565b600073ffffffffffffffffffffffffffffffffffffffff82169050919050565b600061282f82612804565b9050919050565b6000819050919050565b82818337600083830152505050565b60005b8381101561286d578082015181840152602081019050612852565b8381111561287c576000848401525b50505050565b6000601f19601f830116905091905056fea265627a7a723058209acb813af2b2c0b118e62e34f180b59e89e192f0e8a107ed96f6fa48f38242946c6578706572696d656e74616cf50037",
  "source": "// SPDX-License-Identifier: UNLICENSED\npragma solidity >=0.5.0;\npragma experimental ABIEncoderV2;\n\ncontract PethernetContract {\n    // Ministry of Health's account address \n    address public ministryOfHealthAddr = msg.sender;\n    string[] public medicalUnitsList;\n    string[] public vaccineDosesList;\n    string[] public certificatesList;\n    string[] public doctorsList;\n    string[] public injectorsList;\n\n    // Medical Unit hash => Medical Unit account address\n    mapping (string => address) medicalUnits;\n    // Vaccine Dose hash => address of owner (Medical Unit or by default Ministry of Health)\n    mapping (string => address) vaccineDoses;\n    // Certificate hash => Medical Unit address account\n    mapping (string => Certificate) certificates;\n\n    // Doctor hash => existed?\n    mapping (string => bool) doctors;\n    // Injector hash => existed?\n    mapping (string => bool) injectors;\n\n    /** Event */\n    event MedicalUnitAddedEvent(string _medicalUnitHash, address _medicalUnitAddr);\n\n    modifier ministryOfHealthRestricted() {\n        require(\n            msg.sender == ministryOfHealthAddr,\n            \"This function is restricted to the contract's owner\"\n        );\n        _;\n    }\n\n    struct Certificate {\n        address issuer; // Medical unit address\n        string injector;\n        string doctor;\n        string vaccineDose;\n    }\n\n    function addMedicalUnit(string memory _medicalUnitHash, address _medicalUnitOriginAddr) public ministryOfHealthRestricted {\n        require(\n            medicalUnits[_medicalUnitHash] == address(0),\n            \"Medical unit is already existed.\"\n        );\n        \n        medicalUnitsList.push(_medicalUnitHash);\n        medicalUnits[_medicalUnitHash] = _medicalUnitOriginAddr;\n\n        emit MedicalUnitAddedEvent(_medicalUnitHash, _medicalUnitOriginAddr);\n    }\n\n    function addVaccineDose(string memory _vaccineDoseHash) public ministryOfHealthRestricted {\n        require(\n            vaccineDoses[_vaccineDoseHash] == address(0),\n            \"Vaccine dose is already existed.\"\n        );\n\n        vaccineDosesList.push(_vaccineDoseHash);\n        vaccineDoses[_vaccineDoseHash] = ministryOfHealthAddr;\n    }\n\n    function distributeVaccineDose(string memory _vaccineDoseHash, string memory _medicalUnitHash) public ministryOfHealthRestricted {\n        require(\n            medicalUnits[_medicalUnitHash] != address(0),\n            \"Medical unit is not existed.\"\n        );\n        require(\n            vaccineDoses[_vaccineDoseHash] == ministryOfHealthAddr,\n            \"Vaccine dose is unexisted or used.\"\n        );\n\n        vaccineDoses[_vaccineDoseHash] = medicalUnits[_medicalUnitHash];\n    }\n\n    function addDoctor(string memory _doctorHash) public {\n        require(\n            doctors[_doctorHash] == false,\n            \"Doctor is already existed\"\n        );\n\n        doctorsList.push(_doctorHash);\n        doctors[_doctorHash] = true;\n    }\n\n    function addInjector(string memory _injectorHash) public {\n        require(\n            injectors[_injectorHash] == false,\n            \"Injector is already existed\"\n        );\n\n        injectorsList.push(_injectorHash);\n        injectors[_injectorHash] = true;\n    }\n\n    function issueCertificate(\n        string memory _medicalUnitHash,\n        string memory _injectorHash,\n        string memory _doctorHash,\n        string memory _vaccineDoseHash,\n        string memory _certificateHash) public {\n        require(\n            medicalUnits[_medicalUnitHash] == msg.sender,\n            \"Medical unit is not matched.\"\n        );\n        require(\n            injectors[_injectorHash] == true,\n            \"Injector is not existed.\"\n        );\n        require(\n            doctors[_doctorHash] == true,\n            \"Doctor is not existed.\"\n        );\n        require(\n            vaccineDoses[_vaccineDoseHash] == medicalUnits[_medicalUnitHash],\n            \"Vaccine dose does not belong to this Medical Unit.\"\n        );\n        require(\n            certificates[_certificateHash].issuer == address(0),\n            \"Certificate is already existed.\"\n        );\n        \n        certificates[_certificateHash] = Certificate(msg.sender, _injectorHash, _doctorHash, _vaccineDoseHash);\n    }\n\n    /* Check functions */\n\n    function checkDoctor(string memory _doctorHash) public view returns(bool isExisted) {\n        isExisted = doctors[_doctorHash];\n    }\n\n    function checkInjector(string memory _injectorHash) public view returns(bool isExisted) {\n        isExisted = doctors[_injectorHash];\n    }\n\n    function checkCertificate(string memory _certificateHash) public view returns(bool isExisted) {\n        isExisted = certificates[_certificateHash].issuer != address(0);\n    }\n\n    function checkVaccineDose(string memory _vaccineDoseHash) public view returns(bool isExisted) {\n        isExisted = vaccineDoses[_vaccineDoseHash] != address(0);\n    }\n\n    function checkMedicalUnit(string memory _medicalUnitHash) public view returns(bool isExisted) {\n        isExisted = medicalUnits[_medicalUnitHash] != address(0);\n    }\n}",
  "sourcePath": "/Users/steven/Github/pethernet/contracts/PethernetContract.sol",
  "compiler": {
    "name": "solc",
    "version": "0.5.0+commit.1d4f565a.Emscripten.clang"
  },
  "schemaVersion": "3.0.1",
  "updatedAt": "2021-08-11T15:28:57.899Z",
  "devdoc": {
    "methods": {}
  },
  "userdoc": {
    "methods": {}
  }
}